{
    "contractName": "MyFirstContract",
    "abi": [
        {
            "inputs": [],
            "name": "hey",
            "outputs": [
                {
                    "internalType": "string",
                    "name": "",
                    "type": "string"
                }
            ],
            "stateMutability": "view",
            "type": "function"
        },
        {
            "inputs": [],
            "name": "lucky_number",
            "outputs": [
                {
                    "internalType": "uint256",
                    "name": "",
                    "type": "uint256"
                }
            ],
            "stateMutability": "view",
            "type": "function"
        },
        {
            "inputs": [
                {
                    "internalType": "string",
                    "name": "_hey",
                    "type": "string"
                }
            ],
            "name": "updateHey",
            "outputs": [],
            "stateMutability": "nonpayable",
            "type": "function"
        }
    ],
    "bytecode": "608060405234801561001057600080fd5b506103be806100206000396000f3fe608060405234801561001057600080fd5b50600436106100415760003560e01c80633cc7a658146100465780634d94994c1461005b578063bde2b57314610077575b600080fd5b610059610054366004610140565b61008c565b005b61006460015481565b6040519081526020015b60405180910390f35b61007f61009c565b60405161006e91906101f1565b600061009882826102c8565b5050565b600080546100a99061023f565b80601f01602080910402602001604051908101604052809291908181526020018280546100d59061023f565b80156101225780601f106100f757610100808354040283529160200191610122565b820191906000526020600020905b81548152906001019060200180831161010557829003601f168201915b505050505081565b634e487b7160e01b600052604160045260246000fd5b60006020828403121561015257600080fd5b813567ffffffffffffffff8082111561016a57600080fd5b818401915084601f83011261017e57600080fd5b8135818111156101905761019061012a565b604051601f8201601f19908116603f011681019083821181831017156101b8576101b861012a565b816040528281528760208487010111156101d157600080fd5b826020860160208301376000928101602001929092525095945050505050565b600060208083528351808285015260005b8181101561021e57858101830151858201604001528201610202565b506000604082860101526040601f19601f8301168501019250505092915050565b600181811c9082168061025357607f821691505b60208210810361027357634e487b7160e01b600052602260045260246000fd5b50919050565b601f8211156102c357600081815260208120601f850160051c810160208610156102a05750805b601f850160051c820191505b818110156102bf578281556001016102ac565b5050505b505050565b815167ffffffffffffffff8111156102e2576102e261012a565b6102f6816102f0845461023f565b84610279565b602080601f83116001811461032b57600084156103135750858301515b600019600386901b1c1916600185901b1785556102bf565b600085815260208120601f198616915b8281101561035a5788860151825594840194600190910190840161033b565b50858210156103785787850151600019600388901b60f8161c191681555b5050505050600190811b0190555056fea2646970667358221220be434879461b2e8955f2459701eb94afe36cb4153bc72869446c10ca2f9a8c4364736f6c63430008130033",
    "sourcePath": "/Users/mac/Documents/solidity_/main.sol",
    "compiler": {
        "name": "solc",
        "version": "0.8.19+commit.7dd6d404"
    },
    "functionHashes": {
        "hey()": "bde2b573",
        "lucky_number()": "4d94994c",
        "updateHey(string)": "3cc7a658"
    },
    "gasEstimates": {
        "creation": {
            "codeDepositCost": "191600",
            "executionCost": "232",
            "totalCost": "191832"
        },
        "external": {
            "hey()": "infinite",
            "lucky_number()": "2284",
            "updateHey(string)": "infinite"
        }
    }
}