{
    "contractName": "NFTCount",
    "abi": [
        {
            "inputs": [],
            "name": "checkNFTCount",
            "outputs": [
                {
                    "internalType": "uint256",
                    "name": "",
                    "type": "uint256"
                }
            ],
            "stateMutability": "view",
            "type": "function"
        },
        {
            "inputs": [],
            "name": "decreaseNFT",
            "outputs": [],
            "stateMutability": "nonpayable",
            "type": "function"
        },
        {
            "inputs": [],
            "name": "increaseNFT",
            "outputs": [],
            "stateMutability": "nonpayable",
            "type": "function"
        }
    ],
    "bytecode": "608060405234801561001057600080fd5b50610158806100206000396000f3fe608060405234801561001057600080fd5b50600436106100415760003560e01c806360c50851146100465780638f635bf11461005b578063c11aa37914610065575b600080fd5b60005460405190815260200160405180910390f35b61006361006d565b005b610063610086565b600160008082825461007f91906100f6565b9091555050565b60008054116100ce5760405162461bcd60e51b815260206004820152601060248201526f04e46542062616c616e636520697320360841b604482015260640160405180910390fd5b600160008082825461007f919061010f565b634e487b7160e01b600052601160045260246000fd5b80820180821115610109576101096100e0565b92915050565b81810381811115610109576101096100e056fea26469706673582212207bcbfe41ab84d014a719467c86bf44610da56cbea0b756d581e78d12677e612e64736f6c63430008130033",
    "sourcePath": "/Users/mac/Documents/solidity_/main.sol",
    "compiler": {
        "name": "solc",
        "version": "0.8.19+commit.7dd6d404"
    },
    "functionHashes": {
        "checkNFTCount()": "60c50851",
        "decreaseNFT()": "c11aa379",
        "increaseNFT()": "8f635bf1"
    },
    "gasEstimates": {
        "creation": {
            "codeDepositCost": "68800",
            "executionCost": "117",
            "totalCost": "68917"
        },
        "external": {
            "checkNFTCount()": "2246",
            "decreaseNFT()": "26589",
            "increaseNFT()": "24444"
        }
    }
}