{
	"main.sol": {
		"BusyDay": {
			"abi": [
				{
					"inputs": [
						{
							"internalType": "uint8",
							"name": "_days_of_the_week",
							"type": "uint8"
						},
						{
							"internalType": "uint8",
							"name": "_months_of_year",
							"type": "uint8"
						}
					],
					"stateMutability": "nonpayable",
					"type": "constructor"
				},
				{
					"inputs": [
						{
							"internalType": "uint8",
							"name": "newMonths",
							"type": "uint8"
						}
					],
					"name": "adjusNumberOfMonths",
					"outputs": [],
					"stateMutability": "nonpayable",
					"type": "function"
				},
				{
					"inputs": [
						{
							"internalType": "uint8",
							"name": "newDays",
							"type": "uint8"
						}
					],
					"name": "adjustNumberOfWeeks",
					"outputs": [],
					"stateMutability": "nonpayable",
					"type": "function"
				},
				{
					"inputs": [],
					"name": "clearDays",
					"outputs": [],
					"stateMutability": "nonpayable",
					"type": "function"
				},
				{
					"inputs": [],
					"name": "clearMonths",
					"outputs": [],
					"stateMutability": "nonpayable",
					"type": "function"
				},
				{
					"inputs": [],
					"name": "decreaseDaysOfWeek",
					"outputs": [],
					"stateMutability": "nonpayable",
					"type": "function"
				},
				{
					"inputs": [],
					"name": "decreaseMonthOfYear",
					"outputs": [],
					"stateMutability": "nonpayable",
					"type": "function"
				},
				{
					"inputs": [],
					"name": "greet",
					"outputs": [
						{
							"internalType": "string",
							"name": "",
							"type": "string"
						}
					],
					"stateMutability": "pure",
					"type": "function"
				},
				{
					"inputs": [],
					"name": "increaseDaysOfWeek",
					"outputs": [],
					"stateMutability": "nonpayable",
					"type": "function"
				},
				{
					"inputs": [],
					"name": "increaseMonthsOfYear",
					"outputs": [],
					"stateMutability": "nonpayable",
					"type": "function"
				},
				{
					"inputs": [
						{
							"internalType": "string",
							"name": "_name",
							"type": "string"
						}
					],
					"name": "sayHello",
					"outputs": [
						{
							"internalType": "string",
							"name": "",
							"type": "string"
						}
					],
					"stateMutability": "pure",
					"type": "function"
				},
				{
					"inputs": [],
					"name": "viewDays",
					"outputs": [
						{
							"internalType": "uint8",
							"name": "",
							"type": "uint8"
						}
					],
					"stateMutability": "view",
					"type": "function"
				},
				{
					"inputs": [],
					"name": "viewMonths",
					"outputs": [
						{
							"internalType": "uint8",
							"name": "",
							"type": "uint8"
						}
					],
					"stateMutability": "view",
					"type": "function"
				}
			],
			"devdoc": {
				"kind": "dev",
				"methods": {},
				"version": 1
			},
			"evm": {
				"assembly": "    /* \"main.sol\":787:2075  contract BusyDay {... */\n  mstore(0x40, 0x80)\n    /* \"main.sol\":861:1012  constructor(uint8 _days_of_the_week, uint8 _months_of_year) {... */\n  callvalue\n  dup1\n  iszero\n  tag_1\n  jumpi\n  0x00\n  dup1\n  revert\ntag_1:\n  pop\n  mload(0x40)\n  sub(codesize, bytecodeSize)\n  dup1\n  bytecodeSize\n  dup4\n  codecopy\n  dup2\n  dup2\n  add\n  0x40\n  mstore\n  dup2\n  add\n  swap1\n  tag_2\n  swap2\n  swap1\n  tag_3\n  jump\t// in\ntag_2:\n    /* \"main.sol\":946:963  _days_of_the_week */\n  dup2\n    /* \"main.sol\":931:943  days_of_week */\n  0x00\n  dup1\n    /* \"main.sol\":931:963  days_of_week = _days_of_the_week */\n  0x0100\n  exp\n  dup2\n  sload\n  dup2\n  0xff\n  mul\n  not\n  and\n  swap1\n  dup4\n  0xff\n  and\n  mul\n  or\n  swap1\n  sstore\n  pop\n    /* \"main.sol\":990:1005  _months_of_year */\n  dup1\n    /* \"main.sol\":973:987  months_of_year */\n  0x00\n  0x01\n    /* \"main.sol\":973:1005  months_of_year = _months_of_year */\n  0x0100\n  exp\n  dup2\n  sload\n  dup2\n  0xff\n  mul\n  not\n  and\n  swap1\n  dup4\n  0xff\n  and\n  mul\n  or\n  swap1\n  sstore\n  pop\n    /* \"main.sol\":861:1012  constructor(uint8 _days_of_the_week, uint8 _months_of_year) {... */\n  pop\n  pop\n    /* \"main.sol\":787:2075  contract BusyDay {... */\n  jump(tag_6)\n    /* \"#utility.yul\":88:205   */\ntag_8:\n    /* \"#utility.yul\":197:198   */\n  0x00\n    /* \"#utility.yul\":194:195   */\n  dup1\n    /* \"#utility.yul\":187:199   */\n  revert\n    /* \"#utility.yul\":334:420   */\ntag_10:\n    /* \"#utility.yul\":369:376   */\n  0x00\n    /* \"#utility.yul\":409:413   */\n  0xff\n    /* \"#utility.yul\":402:407   */\n  dup3\n    /* \"#utility.yul\":398:414   */\n  and\n    /* \"#utility.yul\":387:414   */\n  swap1\n  pop\n    /* \"#utility.yul\":334:420   */\n  swap2\n  swap1\n  pop\n  jump\t// out\n    /* \"#utility.yul\":426:544   */\ntag_11:\n    /* \"#utility.yul\":497:519   */\n  tag_19\n    /* \"#utility.yul\":513:518   */\n  dup2\n    /* \"#utility.yul\":497:519   */\n  tag_10\n  jump\t// in\ntag_19:\n    /* \"#utility.yul\":490:495   */\n  dup2\n    /* \"#utility.yul\":487:520   */\n  eq\n    /* \"#utility.yul\":477:538   */\n  tag_20\n  jumpi\n    /* \"#utility.yul\":534:535   */\n  0x00\n    /* \"#utility.yul\":531:532   */\n  dup1\n    /* \"#utility.yul\":524:536   */\n  revert\n    /* \"#utility.yul\":477:538   */\ntag_20:\n    /* \"#utility.yul\":426:544   */\n  pop\n  jump\t// out\n    /* \"#utility.yul\":550:689   */\ntag_12:\n    /* \"#utility.yul\":605:610   */\n  0x00\n    /* \"#utility.yul\":636:642   */\n  dup2\n    /* \"#utility.yul\":630:643   */\n  mload\n    /* \"#utility.yul\":621:643   */\n  swap1\n  pop\n    /* \"#utility.yul\":652:683   */\n  tag_22\n    /* \"#utility.yul\":677:682   */\n  dup2\n    /* \"#utility.yul\":652:683   */\n  tag_11\n  jump\t// in\ntag_22:\n    /* \"#utility.yul\":550:689   */\n  swap3\n  swap2\n  pop\n  pop\n  jump\t// out\n    /* \"#utility.yul\":695:1194   */\ntag_3:\n    /* \"#utility.yul\":770:776   */\n  0x00\n    /* \"#utility.yul\":778:784   */\n  dup1\n    /* \"#utility.yul\":827:829   */\n  0x40\n    /* \"#utility.yul\":815:824   */\n  dup4\n    /* \"#utility.yul\":806:813   */\n  dup6\n    /* \"#utility.yul\":802:825   */\n  sub\n    /* \"#utility.yul\":798:830   */\n  slt\n    /* \"#utility.yul\":795:914   */\n  iszero\n  tag_24\n  jumpi\n    /* \"#utility.yul\":833:912   */\n  tag_25\n  tag_8\n  jump\t// in\ntag_25:\n    /* \"#utility.yul\":795:914   */\ntag_24:\n    /* \"#utility.yul\":953:954   */\n  0x00\n    /* \"#utility.yul\":978:1040   */\n  tag_26\n    /* \"#utility.yul\":1032:1039   */\n  dup6\n    /* \"#utility.yul\":1023:1029   */\n  dup3\n    /* \"#utility.yul\":1012:1021   */\n  dup7\n    /* \"#utility.yul\":1008:1030   */\n  add\n    /* \"#utility.yul\":978:1040   */\n  tag_12\n  jump\t// in\ntag_26:\n    /* \"#utility.yul\":968:1040   */\n  swap3\n  pop\n    /* \"#utility.yul\":924:1050   */\n  pop\n    /* \"#utility.yul\":1089:1091   */\n  0x20\n    /* \"#utility.yul\":1115:1177   */\n  tag_27\n    /* \"#utility.yul\":1169:1176   */\n  dup6\n    /* \"#utility.yul\":1160:1166   */\n  dup3\n    /* \"#utility.yul\":1149:1158   */\n  dup7\n    /* \"#utility.yul\":1145:1167   */\n  add\n    /* \"#utility.yul\":1115:1177   */\n  tag_12\n  jump\t// in\ntag_27:\n    /* \"#utility.yul\":1105:1177   */\n  swap2\n  pop\n    /* \"#utility.yul\":1060:1187   */\n  pop\n    /* \"#utility.yul\":695:1194   */\n  swap3\n  pop\n  swap3\n  swap1\n  pop\n  jump\t// out\n    /* \"main.sol\":787:2075  contract BusyDay {... */\ntag_6:\n  dataSize(sub_0)\n  dup1\n  dataOffset(sub_0)\n  0x00\n  codecopy\n  0x00\n  return\nstop\n\nsub_0: assembly {\n        /* \"main.sol\":787:2075  contract BusyDay {... */\n      mstore(0x40, 0x80)\n      callvalue\n      dup1\n      iszero\n      tag_1\n      jumpi\n      0x00\n      dup1\n      revert\n    tag_1:\n      pop\n      jumpi(tag_2, lt(calldatasize, 0x04))\n      shr(0xe0, calldataload(0x00))\n      dup1\n      0xb7eb19ff\n      gt\n      tag_15\n      jumpi\n      dup1\n      0xb7eb19ff\n      eq\n      tag_9\n      jumpi\n      dup1\n      0xc3a9b1c5\n      eq\n      tag_10\n      jumpi\n      dup1\n      0xca5c0471\n      eq\n      tag_11\n      jumpi\n      dup1\n      0xcfae3217\n      eq\n      tag_12\n      jumpi\n      dup1\n      0xe6e7a4b0\n      eq\n      tag_13\n      jumpi\n      dup1\n      0xf7e32c34\n      eq\n      tag_14\n      jumpi\n      jump(tag_2)\n    tag_15:\n      dup1\n      0x13aa95f8\n      eq\n      tag_3\n      jumpi\n      dup1\n      0x32874521\n      eq\n      tag_4\n      jumpi\n      dup1\n      0x3387553a\n      eq\n      tag_5\n      jumpi\n      dup1\n      0x6c570bea\n      eq\n      tag_6\n      jumpi\n      dup1\n      0x9f0c3295\n      eq\n      tag_7\n      jumpi\n      dup1\n      0xaa1e9b68\n      eq\n      tag_8\n      jumpi\n    tag_2:\n      0x00\n      dup1\n      revert\n        /* \"main.sol\":1786:1847  function clearDays() public {... */\n    tag_3:\n      tag_16\n      tag_17\n      jump\t// in\n    tag_16:\n      stop\n        /* \"main.sol\":1400:1471  function increaseDaysOfWeek() public {... */\n    tag_4:\n      tag_18\n      tag_19\n      jump\t// in\n    tag_18:\n      stop\n        /* \"main.sol\":1018:1108  function adjustNumberOfWeeks(uint8 newDays) public {... */\n    tag_5:\n      tag_20\n      0x04\n      dup1\n      calldatasize\n      sub\n      dup2\n      add\n      swap1\n      tag_21\n      swap2\n      swap1\n      tag_22\n      jump\t// in\n    tag_21:\n      tag_23\n      jump\t// in\n    tag_20:\n      stop\n        /* \"main.sol\":1216:1300  function viewDays() public view returns (uint8) {... */\n    tag_6:\n      tag_24\n      tag_25\n      jump\t// in\n    tag_24:\n      mload(0x40)\n      tag_26\n      swap2\n      swap1\n      tag_27\n      jump\t// in\n    tag_26:\n      mload(0x40)\n      dup1\n      swap2\n      sub\n      swap1\n      return\n        /* \"main.sol\":1477:1552  function increaseMonthsOfYear() public {... */\n    tag_7:\n      tag_28\n      tag_29\n      jump\t// in\n    tag_28:\n      stop\n        /* \"main.sol\":1114:1210  function adjusNumberOfMonths(uint8 newMonths) public {... */\n    tag_8:\n      tag_30\n      0x04\n      dup1\n      calldatasize\n      sub\n      dup2\n      add\n      swap1\n      tag_31\n      swap2\n      swap1\n      tag_22\n      jump\t// in\n    tag_31:\n      tag_32\n      jump\t// in\n    tag_30:\n      stop\n        /* \"main.sol\":1558:1629  function decreaseDaysOfWeek() public {... */\n    tag_9:\n      tag_33\n      tag_34\n      jump\t// in\n    tag_33:\n      stop\n        /* \"main.sol\":1853:1983  function sayHello(string memory _name) public pure  returns (string memory) {... */\n    tag_10:\n      tag_35\n      0x04\n      dup1\n      calldatasize\n      sub\n      dup2\n      add\n      swap1\n      tag_36\n      swap2\n      swap1\n      tag_37\n      jump\t// in\n    tag_36:\n      tag_38\n      jump\t// in\n    tag_35:\n      mload(0x40)\n      tag_39\n      swap2\n      swap1\n      tag_40\n      jump\t// in\n    tag_39:\n      mload(0x40)\n      dup1\n      swap2\n      sub\n      swap1\n      return\n        /* \"main.sol\":1715:1780  function clearMonths() public {... */\n    tag_11:\n      tag_41\n      tag_42\n      jump\t// in\n    tag_41:\n      stop\n        /* \"main.sol\":1989:2073  function greet() public pure  returns(string memory) {... */\n    tag_12:\n      tag_43\n      tag_44\n      jump\t// in\n    tag_43:\n      mload(0x40)\n      tag_45\n      swap2\n      swap1\n      tag_40\n      jump\t// in\n    tag_45:\n      mload(0x40)\n      dup1\n      swap2\n      sub\n      swap1\n      return\n        /* \"main.sol\":1635:1709  function decreaseMonthOfYear() public {... */\n    tag_13:\n      tag_46\n      tag_47\n      jump\t// in\n    tag_46:\n      stop\n        /* \"main.sol\":1306:1394  function viewMonths() public view returns (uint8) {... */\n    tag_14:\n      tag_48\n      tag_49\n      jump\t// in\n    tag_48:\n      mload(0x40)\n      tag_50\n      swap2\n      swap1\n      tag_27\n      jump\t// in\n    tag_50:\n      mload(0x40)\n      dup1\n      swap2\n      sub\n      swap1\n      return\n        /* \"main.sol\":1786:1847  function clearDays() public {... */\n    tag_17:\n        /* \"main.sol\":1839:1840  0 */\n      0x00\n        /* \"main.sol\":1824:1836  days_of_week */\n      dup1\n      0x00\n        /* \"main.sol\":1824:1840  days_of_week = 0 */\n      0x0100\n      exp\n      dup2\n      sload\n      dup2\n      0xff\n      mul\n      not\n      and\n      swap1\n      dup4\n      0xff\n      and\n      mul\n      or\n      swap1\n      sstore\n      pop\n        /* \"main.sol\":1786:1847  function clearDays() public {... */\n      jump\t// out\n        /* \"main.sol\":1400:1471  function increaseDaysOfWeek() public {... */\n    tag_19:\n        /* \"main.sol\":1463:1464  1 */\n      0x01\n        /* \"main.sol\":1447:1459  days_of_week */\n      0x00\n      dup1\n        /* \"main.sol\":1447:1464  days_of_week += 1 */\n      dup3\n      dup3\n      dup3\n      swap1\n      sload\n      swap1\n      0x0100\n      exp\n      swap1\n      div\n      0xff\n      and\n      tag_53\n      swap2\n      swap1\n      tag_54\n      jump\t// in\n    tag_53:\n      swap3\n      pop\n      0x0100\n      exp\n      dup2\n      sload\n      dup2\n      0xff\n      mul\n      not\n      and\n      swap1\n      dup4\n      0xff\n      and\n      mul\n      or\n      swap1\n      sstore\n      pop\n        /* \"main.sol\":1400:1471  function increaseDaysOfWeek() public {... */\n      jump\t// out\n        /* \"main.sol\":1018:1108  function adjustNumberOfWeeks(uint8 newDays) public {... */\n    tag_23:\n        /* \"main.sol\":1094:1101  newDays */\n      dup1\n        /* \"main.sol\":1079:1091  days_of_week */\n      0x00\n      dup1\n        /* \"main.sol\":1079:1101  days_of_week = newDays */\n      0x0100\n      exp\n      dup2\n      sload\n      dup2\n      0xff\n      mul\n      not\n      and\n      swap1\n      dup4\n      0xff\n      and\n      mul\n      or\n      swap1\n      sstore\n      pop\n        /* \"main.sol\":1018:1108  function adjustNumberOfWeeks(uint8 newDays) public {... */\n      pop\n      jump\t// out\n        /* \"main.sol\":1216:1300  function viewDays() public view returns (uint8) {... */\n    tag_25:\n        /* \"main.sol\":1257:1262  uint8 */\n      0x00\n        /* \"main.sol\":1281:1293  days_of_week */\n      dup1\n      0x00\n      swap1\n      sload\n      swap1\n      0x0100\n      exp\n      swap1\n      div\n      0xff\n      and\n        /* \"main.sol\":1274:1293  return days_of_week */\n      swap1\n      pop\n        /* \"main.sol\":1216:1300  function viewDays() public view returns (uint8) {... */\n      swap1\n      jump\t// out\n        /* \"main.sol\":1477:1552  function increaseMonthsOfYear() public {... */\n    tag_29:\n        /* \"main.sol\":1544:1545  1 */\n      0x01\n        /* \"main.sol\":1526:1540  months_of_year */\n      0x00\n      0x01\n        /* \"main.sol\":1526:1545  months_of_year += 1 */\n      dup3\n      dup3\n      dup3\n      swap1\n      sload\n      swap1\n      0x0100\n      exp\n      swap1\n      div\n      0xff\n      and\n      tag_58\n      swap2\n      swap1\n      tag_54\n      jump\t// in\n    tag_58:\n      swap3\n      pop\n      0x0100\n      exp\n      dup2\n      sload\n      dup2\n      0xff\n      mul\n      not\n      and\n      swap1\n      dup4\n      0xff\n      and\n      mul\n      or\n      swap1\n      sstore\n      pop\n        /* \"main.sol\":1477:1552  function increaseMonthsOfYear() public {... */\n      jump\t// out\n        /* \"main.sol\":1114:1210  function adjusNumberOfMonths(uint8 newMonths) public {... */\n    tag_32:\n        /* \"main.sol\":1194:1203  newMonths */\n      dup1\n        /* \"main.sol\":1177:1191  months_of_year */\n      0x00\n      0x01\n        /* \"main.sol\":1177:1203  months_of_year = newMonths */\n      0x0100\n      exp\n      dup2\n      sload\n      dup2\n      0xff\n      mul\n      not\n      and\n      swap1\n      dup4\n      0xff\n      and\n      mul\n      or\n      swap1\n      sstore\n      pop\n        /* \"main.sol\":1114:1210  function adjusNumberOfMonths(uint8 newMonths) public {... */\n      pop\n      jump\t// out\n        /* \"main.sol\":1558:1629  function decreaseDaysOfWeek() public {... */\n    tag_34:\n        /* \"main.sol\":1621:1622  1 */\n      0x01\n        /* \"main.sol\":1605:1617  days_of_week */\n      0x00\n      dup1\n        /* \"main.sol\":1605:1622  days_of_week -= 1 */\n      dup3\n      dup3\n      dup3\n      swap1\n      sload\n      swap1\n      0x0100\n      exp\n      swap1\n      div\n      0xff\n      and\n      tag_61\n      swap2\n      swap1\n      tag_62\n      jump\t// in\n    tag_61:\n      swap3\n      pop\n      0x0100\n      exp\n      dup2\n      sload\n      dup2\n      0xff\n      mul\n      not\n      and\n      swap1\n      dup4\n      0xff\n      and\n      mul\n      or\n      swap1\n      sstore\n      pop\n        /* \"main.sol\":1558:1629  function decreaseDaysOfWeek() public {... */\n      jump\t// out\n        /* \"main.sol\":1853:1983  function sayHello(string memory _name) public pure  returns (string memory) {... */\n    tag_38:\n        /* \"main.sol\":1914:1927  string memory */\n      0x60\n        /* \"main.sol\":1970:1975  _name */\n      dup2\n        /* \"main.sol\":1946:1976  string.concat(\"Hello \", _name) */\n      add(0x20, mload(0x40))\n      tag_64\n      swap2\n      swap1\n      tag_65\n      jump\t// in\n    tag_64:\n      mload(0x40)\n      0x20\n      dup2\n      dup4\n      sub\n      sub\n      dup2\n      mstore\n      swap1\n      0x40\n      mstore\n        /* \"main.sol\":1939:1976  return string.concat(\"Hello \", _name) */\n      swap1\n      pop\n        /* \"main.sol\":1853:1983  function sayHello(string memory _name) public pure  returns (string memory) {... */\n      swap2\n      swap1\n      pop\n      jump\t// out\n        /* \"main.sol\":1715:1780  function clearMonths() public {... */\n    tag_42:\n        /* \"main.sol\":1772:1773  0 */\n      0x00\n        /* \"main.sol\":1755:1769  months_of_year */\n      dup1\n      0x01\n        /* \"main.sol\":1755:1773  months_of_year = 0 */\n      0x0100\n      exp\n      dup2\n      sload\n      dup2\n      0xff\n      mul\n      not\n      and\n      swap1\n      dup4\n      0xff\n      and\n      mul\n      or\n      swap1\n      sstore\n      pop\n        /* \"main.sol\":1715:1780  function clearMonths() public {... */\n      jump\t// out\n        /* \"main.sol\":1989:2073  function greet() public pure  returns(string memory) {... */\n    tag_44:\n        /* \"main.sol\":2027:2040  string memory */\n      0x60\n        /* \"main.sol\":2052:2066  return \"Hello\" */\n      mload(0x40)\n      dup1\n      0x40\n      add\n      0x40\n      mstore\n      dup1\n      0x05\n      dup2\n      mstore\n      0x20\n      add\n      0x48656c6c6f000000000000000000000000000000000000000000000000000000\n      dup2\n      mstore\n      pop\n      swap1\n      pop\n        /* \"main.sol\":1989:2073  function greet() public pure  returns(string memory) {... */\n      swap1\n      jump\t// out\n        /* \"main.sol\":1635:1709  function decreaseMonthOfYear() public {... */\n    tag_47:\n        /* \"main.sol\":1701:1702  1 */\n      0x01\n        /* \"main.sol\":1683:1697  months_of_year */\n      0x00\n      0x01\n        /* \"main.sol\":1683:1702  months_of_year -= 1 */\n      dup3\n      dup3\n      dup3\n      swap1\n      sload\n      swap1\n      0x0100\n      exp\n      swap1\n      div\n      0xff\n      and\n      tag_69\n      swap2\n      swap1\n      tag_62\n      jump\t// in\n    tag_69:\n      swap3\n      pop\n      0x0100\n      exp\n      dup2\n      sload\n      dup2\n      0xff\n      mul\n      not\n      and\n      swap1\n      dup4\n      0xff\n      and\n      mul\n      or\n      swap1\n      sstore\n      pop\n        /* \"main.sol\":1635:1709  function decreaseMonthOfYear() public {... */\n      jump\t// out\n        /* \"main.sol\":1306:1394  function viewMonths() public view returns (uint8) {... */\n    tag_49:\n        /* \"main.sol\":1349:1354  uint8 */\n      0x00\n        /* \"main.sol\":1373:1387  months_of_year */\n      dup1\n      0x01\n      swap1\n      sload\n      swap1\n      0x0100\n      exp\n      swap1\n      div\n      0xff\n      and\n        /* \"main.sol\":1366:1387  return months_of_year */\n      swap1\n      pop\n        /* \"main.sol\":1306:1394  function viewMonths() public view returns (uint8) {... */\n      swap1\n      jump\t// out\n        /* \"#utility.yul\":7:82   */\n    tag_71:\n        /* \"#utility.yul\":40:46   */\n      0x00\n        /* \"#utility.yul\":73:75   */\n      0x40\n        /* \"#utility.yul\":67:76   */\n      mload\n        /* \"#utility.yul\":57:76   */\n      swap1\n      pop\n        /* \"#utility.yul\":7:82   */\n      swap1\n      jump\t// out\n        /* \"#utility.yul\":88:205   */\n    tag_72:\n        /* \"#utility.yul\":197:198   */\n      0x00\n        /* \"#utility.yul\":194:195   */\n      dup1\n        /* \"#utility.yul\":187:199   */\n      revert\n        /* \"#utility.yul\":211:328   */\n    tag_73:\n        /* \"#utility.yul\":320:321   */\n      0x00\n        /* \"#utility.yul\":317:318   */\n      dup1\n        /* \"#utility.yul\":310:322   */\n      revert\n        /* \"#utility.yul\":334:420   */\n    tag_74:\n        /* \"#utility.yul\":369:376   */\n      0x00\n        /* \"#utility.yul\":409:413   */\n      0xff\n        /* \"#utility.yul\":402:407   */\n      dup3\n        /* \"#utility.yul\":398:414   */\n      and\n        /* \"#utility.yul\":387:414   */\n      swap1\n      pop\n        /* \"#utility.yul\":334:420   */\n      swap2\n      swap1\n      pop\n      jump\t// out\n        /* \"#utility.yul\":426:544   */\n    tag_75:\n        /* \"#utility.yul\":497:519   */\n      tag_102\n        /* \"#utility.yul\":513:518   */\n      dup2\n        /* \"#utility.yul\":497:519   */\n      tag_74\n      jump\t// in\n    tag_102:\n        /* \"#utility.yul\":490:495   */\n      dup2\n        /* \"#utility.yul\":487:520   */\n      eq\n        /* \"#utility.yul\":477:538   */\n      tag_103\n      jumpi\n        /* \"#utility.yul\":534:535   */\n      0x00\n        /* \"#utility.yul\":531:532   */\n      dup1\n        /* \"#utility.yul\":524:536   */\n      revert\n        /* \"#utility.yul\":477:538   */\n    tag_103:\n        /* \"#utility.yul\":426:544   */\n      pop\n      jump\t// out\n        /* \"#utility.yul\":550:685   */\n    tag_76:\n        /* \"#utility.yul\":594:599   */\n      0x00\n        /* \"#utility.yul\":632:638   */\n      dup2\n        /* \"#utility.yul\":619:639   */\n      calldataload\n        /* \"#utility.yul\":610:639   */\n      swap1\n      pop\n        /* \"#utility.yul\":648:679   */\n      tag_105\n        /* \"#utility.yul\":673:678   */\n      dup2\n        /* \"#utility.yul\":648:679   */\n      tag_75\n      jump\t// in\n    tag_105:\n        /* \"#utility.yul\":550:685   */\n      swap3\n      swap2\n      pop\n      pop\n      jump\t// out\n        /* \"#utility.yul\":691:1016   */\n    tag_22:\n        /* \"#utility.yul\":748:754   */\n      0x00\n        /* \"#utility.yul\":797:799   */\n      0x20\n        /* \"#utility.yul\":785:794   */\n      dup3\n        /* \"#utility.yul\":776:783   */\n      dup5\n        /* \"#utility.yul\":772:795   */\n      sub\n        /* \"#utility.yul\":768:800   */\n      slt\n        /* \"#utility.yul\":765:884   */\n      iszero\n      tag_107\n      jumpi\n        /* \"#utility.yul\":803:882   */\n      tag_108\n      tag_72\n      jump\t// in\n    tag_108:\n        /* \"#utility.yul\":765:884   */\n    tag_107:\n        /* \"#utility.yul\":923:924   */\n      0x00\n        /* \"#utility.yul\":948:999   */\n      tag_109\n        /* \"#utility.yul\":991:998   */\n      dup5\n        /* \"#utility.yul\":982:988   */\n      dup3\n        /* \"#utility.yul\":971:980   */\n      dup6\n        /* \"#utility.yul\":967:989   */\n      add\n        /* \"#utility.yul\":948:999   */\n      tag_76\n      jump\t// in\n    tag_109:\n        /* \"#utility.yul\":938:999   */\n      swap2\n      pop\n        /* \"#utility.yul\":894:1009   */\n      pop\n        /* \"#utility.yul\":691:1016   */\n      swap3\n      swap2\n      pop\n      pop\n      jump\t// out\n        /* \"#utility.yul\":1022:1134   */\n    tag_77:\n        /* \"#utility.yul\":1105:1127   */\n      tag_111\n        /* \"#utility.yul\":1121:1126   */\n      dup2\n        /* \"#utility.yul\":1105:1127   */\n      tag_74\n      jump\t// in\n    tag_111:\n        /* \"#utility.yul\":1100:1103   */\n      dup3\n        /* \"#utility.yul\":1093:1128   */\n      mstore\n        /* \"#utility.yul\":1022:1134   */\n      pop\n      pop\n      jump\t// out\n        /* \"#utility.yul\":1140:1354   */\n    tag_27:\n        /* \"#utility.yul\":1229:1233   */\n      0x00\n        /* \"#utility.yul\":1267:1269   */\n      0x20\n        /* \"#utility.yul\":1256:1265   */\n      dup3\n        /* \"#utility.yul\":1252:1270   */\n      add\n        /* \"#utility.yul\":1244:1270   */\n      swap1\n      pop\n        /* \"#utility.yul\":1280:1347   */\n      tag_113\n        /* \"#utility.yul\":1344:1345   */\n      0x00\n        /* \"#utility.yul\":1333:1342   */\n      dup4\n        /* \"#utility.yul\":1329:1346   */\n      add\n        /* \"#utility.yul\":1320:1326   */\n      dup5\n        /* \"#utility.yul\":1280:1347   */\n      tag_77\n      jump\t// in\n    tag_113:\n        /* \"#utility.yul\":1140:1354   */\n      swap3\n      swap2\n      pop\n      pop\n      jump\t// out\n        /* \"#utility.yul\":1360:1477   */\n    tag_78:\n        /* \"#utility.yul\":1469:1470   */\n      0x00\n        /* \"#utility.yul\":1466:1467   */\n      dup1\n        /* \"#utility.yul\":1459:1471   */\n      revert\n        /* \"#utility.yul\":1483:1600   */\n    tag_79:\n        /* \"#utility.yul\":1592:1593   */\n      0x00\n        /* \"#utility.yul\":1589:1590   */\n      dup1\n        /* \"#utility.yul\":1582:1594   */\n      revert\n        /* \"#utility.yul\":1606:1708   */\n    tag_80:\n        /* \"#utility.yul\":1647:1653   */\n      0x00\n        /* \"#utility.yul\":1698:1700   */\n      0x1f\n        /* \"#utility.yul\":1694:1701   */\n      not\n        /* \"#utility.yul\":1689:1691   */\n      0x1f\n        /* \"#utility.yul\":1682:1687   */\n      dup4\n        /* \"#utility.yul\":1678:1692   */\n      add\n        /* \"#utility.yul\":1674:1702   */\n      and\n        /* \"#utility.yul\":1664:1702   */\n      swap1\n      pop\n        /* \"#utility.yul\":1606:1708   */\n      swap2\n      swap1\n      pop\n      jump\t// out\n        /* \"#utility.yul\":1714:1894   */\n    tag_81:\n        /* \"#utility.yul\":1762:1839   */\n      0x4e487b7100000000000000000000000000000000000000000000000000000000\n        /* \"#utility.yul\":1759:1760   */\n      0x00\n        /* \"#utility.yul\":1752:1840   */\n      mstore\n        /* \"#utility.yul\":1859:1863   */\n      0x41\n        /* \"#utility.yul\":1856:1857   */\n      0x04\n        /* \"#utility.yul\":1849:1864   */\n      mstore\n        /* \"#utility.yul\":1883:1887   */\n      0x24\n        /* \"#utility.yul\":1880:1881   */\n      0x00\n        /* \"#utility.yul\":1873:1888   */\n      revert\n        /* \"#utility.yul\":1900:2181   */\n    tag_82:\n        /* \"#utility.yul\":1983:2010   */\n      tag_119\n        /* \"#utility.yul\":2005:2009   */\n      dup3\n        /* \"#utility.yul\":1983:2010   */\n      tag_80\n      jump\t// in\n    tag_119:\n        /* \"#utility.yul\":1975:1981   */\n      dup2\n        /* \"#utility.yul\":1971:2011   */\n      add\n        /* \"#utility.yul\":2113:2119   */\n      dup2\n        /* \"#utility.yul\":2101:2111   */\n      dup2\n        /* \"#utility.yul\":2098:2120   */\n      lt\n        /* \"#utility.yul\":2077:2095   */\n      0xffffffffffffffff\n        /* \"#utility.yul\":2065:2075   */\n      dup3\n        /* \"#utility.yul\":2062:2096   */\n      gt\n        /* \"#utility.yul\":2059:2121   */\n      or\n        /* \"#utility.yul\":2056:2144   */\n      iszero\n      tag_120\n      jumpi\n        /* \"#utility.yul\":2124:2142   */\n      tag_121\n      tag_81\n      jump\t// in\n    tag_121:\n        /* \"#utility.yul\":2056:2144   */\n    tag_120:\n        /* \"#utility.yul\":2164:2174   */\n      dup1\n        /* \"#utility.yul\":2160:2162   */\n      0x40\n        /* \"#utility.yul\":2153:2175   */\n      mstore\n        /* \"#utility.yul\":1943:2181   */\n      pop\n        /* \"#utility.yul\":1900:2181   */\n      pop\n      pop\n      jump\t// out\n        /* \"#utility.yul\":2187:2316   */\n    tag_83:\n        /* \"#utility.yul\":2221:2227   */\n      0x00\n        /* \"#utility.yul\":2248:2268   */\n      tag_123\n      tag_71\n      jump\t// in\n    tag_123:\n        /* \"#utility.yul\":2238:2268   */\n      swap1\n      pop\n        /* \"#utility.yul\":2277:2310   */\n      tag_124\n        /* \"#utility.yul\":2305:2309   */\n      dup3\n        /* \"#utility.yul\":2297:2303   */\n      dup3\n        /* \"#utility.yul\":2277:2310   */\n      tag_82\n      jump\t// in\n    tag_124:\n        /* \"#utility.yul\":2187:2316   */\n      swap2\n      swap1\n      pop\n      jump\t// out\n        /* \"#utility.yul\":2322:2630   */\n    tag_84:\n        /* \"#utility.yul\":2384:2388   */\n      0x00\n        /* \"#utility.yul\":2474:2492   */\n      0xffffffffffffffff\n        /* \"#utility.yul\":2466:2472   */\n      dup3\n        /* \"#utility.yul\":2463:2493   */\n      gt\n        /* \"#utility.yul\":2460:2516   */\n      iszero\n      tag_126\n      jumpi\n        /* \"#utility.yul\":2496:2514   */\n      tag_127\n      tag_81\n      jump\t// in\n    tag_127:\n        /* \"#utility.yul\":2460:2516   */\n    tag_126:\n        /* \"#utility.yul\":2534:2563   */\n      tag_128\n        /* \"#utility.yul\":2556:2562   */\n      dup3\n        /* \"#utility.yul\":2534:2563   */\n      tag_80\n      jump\t// in\n    tag_128:\n        /* \"#utility.yul\":2526:2563   */\n      swap1\n      pop\n        /* \"#utility.yul\":2618:2622   */\n      0x20\n        /* \"#utility.yul\":2612:2616   */\n      dup2\n        /* \"#utility.yul\":2608:2623   */\n      add\n        /* \"#utility.yul\":2600:2623   */\n      swap1\n      pop\n        /* \"#utility.yul\":2322:2630   */\n      swap2\n      swap1\n      pop\n      jump\t// out\n        /* \"#utility.yul\":2636:2782   */\n    tag_85:\n        /* \"#utility.yul\":2733:2739   */\n      dup3\n        /* \"#utility.yul\":2728:2731   */\n      dup2\n        /* \"#utility.yul\":2723:2726   */\n      dup4\n        /* \"#utility.yul\":2710:2740   */\n      calldatacopy\n        /* \"#utility.yul\":2774:2775   */\n      0x00\n        /* \"#utility.yul\":2765:2771   */\n      dup4\n        /* \"#utility.yul\":2760:2763   */\n      dup4\n        /* \"#utility.yul\":2756:2772   */\n      add\n        /* \"#utility.yul\":2749:2776   */\n      mstore\n        /* \"#utility.yul\":2636:2782   */\n      pop\n      pop\n      pop\n      jump\t// out\n        /* \"#utility.yul\":2788:3213   */\n    tag_86:\n        /* \"#utility.yul\":2866:2871   */\n      0x00\n        /* \"#utility.yul\":2891:2957   */\n      tag_131\n        /* \"#utility.yul\":2907:2956   */\n      tag_132\n        /* \"#utility.yul\":2949:2955   */\n      dup5\n        /* \"#utility.yul\":2907:2956   */\n      tag_84\n      jump\t// in\n    tag_132:\n        /* \"#utility.yul\":2891:2957   */\n      tag_83\n      jump\t// in\n    tag_131:\n        /* \"#utility.yul\":2882:2957   */\n      swap1\n      pop\n        /* \"#utility.yul\":2980:2986   */\n      dup3\n        /* \"#utility.yul\":2973:2978   */\n      dup2\n        /* \"#utility.yul\":2966:2987   */\n      mstore\n        /* \"#utility.yul\":3018:3022   */\n      0x20\n        /* \"#utility.yul\":3011:3016   */\n      dup2\n        /* \"#utility.yul\":3007:3023   */\n      add\n        /* \"#utility.yul\":3056:3059   */\n      dup5\n        /* \"#utility.yul\":3047:3053   */\n      dup5\n        /* \"#utility.yul\":3042:3045   */\n      dup5\n        /* \"#utility.yul\":3038:3054   */\n      add\n        /* \"#utility.yul\":3035:3060   */\n      gt\n        /* \"#utility.yul\":3032:3144   */\n      iszero\n      tag_133\n      jumpi\n        /* \"#utility.yul\":3063:3142   */\n      tag_134\n      tag_79\n      jump\t// in\n    tag_134:\n        /* \"#utility.yul\":3032:3144   */\n    tag_133:\n        /* \"#utility.yul\":3153:3207   */\n      tag_135\n        /* \"#utility.yul\":3200:3206   */\n      dup5\n        /* \"#utility.yul\":3195:3198   */\n      dup3\n        /* \"#utility.yul\":3190:3193   */\n      dup6\n        /* \"#utility.yul\":3153:3207   */\n      tag_85\n      jump\t// in\n    tag_135:\n        /* \"#utility.yul\":2872:3213   */\n      pop\n        /* \"#utility.yul\":2788:3213   */\n      swap4\n      swap3\n      pop\n      pop\n      pop\n      jump\t// out\n        /* \"#utility.yul\":3233:3573   */\n    tag_87:\n        /* \"#utility.yul\":3289:3294   */\n      0x00\n        /* \"#utility.yul\":3338:3341   */\n      dup3\n        /* \"#utility.yul\":3331:3335   */\n      0x1f\n        /* \"#utility.yul\":3323:3329   */\n      dup4\n        /* \"#utility.yul\":3319:3336   */\n      add\n        /* \"#utility.yul\":3315:3342   */\n      slt\n        /* \"#utility.yul\":3305:3427   */\n      tag_137\n      jumpi\n        /* \"#utility.yul\":3346:3425   */\n      tag_138\n      tag_78\n      jump\t// in\n    tag_138:\n        /* \"#utility.yul\":3305:3427   */\n    tag_137:\n        /* \"#utility.yul\":3463:3469   */\n      dup2\n        /* \"#utility.yul\":3450:3470   */\n      calldataload\n        /* \"#utility.yul\":3488:3567   */\n      tag_139\n        /* \"#utility.yul\":3563:3566   */\n      dup5\n        /* \"#utility.yul\":3555:3561   */\n      dup3\n        /* \"#utility.yul\":3548:3552   */\n      0x20\n        /* \"#utility.yul\":3540:3546   */\n      dup7\n        /* \"#utility.yul\":3536:3553   */\n      add\n        /* \"#utility.yul\":3488:3567   */\n      tag_86\n      jump\t// in\n    tag_139:\n        /* \"#utility.yul\":3479:3567   */\n      swap2\n      pop\n        /* \"#utility.yul\":3295:3573   */\n      pop\n        /* \"#utility.yul\":3233:3573   */\n      swap3\n      swap2\n      pop\n      pop\n      jump\t// out\n        /* \"#utility.yul\":3579:4088   */\n    tag_37:\n        /* \"#utility.yul\":3648:3654   */\n      0x00\n        /* \"#utility.yul\":3697:3699   */\n      0x20\n        /* \"#utility.yul\":3685:3694   */\n      dup3\n        /* \"#utility.yul\":3676:3683   */\n      dup5\n        /* \"#utility.yul\":3672:3695   */\n      sub\n        /* \"#utility.yul\":3668:3700   */\n      slt\n        /* \"#utility.yul\":3665:3784   */\n      iszero\n      tag_141\n      jumpi\n        /* \"#utility.yul\":3703:3782   */\n      tag_142\n      tag_72\n      jump\t// in\n    tag_142:\n        /* \"#utility.yul\":3665:3784   */\n    tag_141:\n        /* \"#utility.yul\":3851:3852   */\n      0x00\n        /* \"#utility.yul\":3840:3849   */\n      dup3\n        /* \"#utility.yul\":3836:3853   */\n      add\n        /* \"#utility.yul\":3823:3854   */\n      calldataload\n        /* \"#utility.yul\":3881:3899   */\n      0xffffffffffffffff\n        /* \"#utility.yul\":3873:3879   */\n      dup2\n        /* \"#utility.yul\":3870:3900   */\n      gt\n        /* \"#utility.yul\":3867:3984   */\n      iszero\n      tag_143\n      jumpi\n        /* \"#utility.yul\":3903:3982   */\n      tag_144\n      tag_73\n      jump\t// in\n    tag_144:\n        /* \"#utility.yul\":3867:3984   */\n    tag_143:\n        /* \"#utility.yul\":4008:4071   */\n      tag_145\n        /* \"#utility.yul\":4063:4070   */\n      dup5\n        /* \"#utility.yul\":4054:4060   */\n      dup3\n        /* \"#utility.yul\":4043:4052   */\n      dup6\n        /* \"#utility.yul\":4039:4061   */\n      add\n        /* \"#utility.yul\":4008:4071   */\n      tag_87\n      jump\t// in\n    tag_145:\n        /* \"#utility.yul\":3998:4071   */\n      swap2\n      pop\n        /* \"#utility.yul\":3794:4081   */\n      pop\n        /* \"#utility.yul\":3579:4088   */\n      swap3\n      swap2\n      pop\n      pop\n      jump\t// out\n        /* \"#utility.yul\":4094:4193   */\n    tag_88:\n        /* \"#utility.yul\":4146:4152   */\n      0x00\n        /* \"#utility.yul\":4180:4185   */\n      dup2\n        /* \"#utility.yul\":4174:4186   */\n      mload\n        /* \"#utility.yul\":4164:4186   */\n      swap1\n      pop\n        /* \"#utility.yul\":4094:4193   */\n      swap2\n      swap1\n      pop\n      jump\t// out\n        /* \"#utility.yul\":4199:4368   */\n    tag_89:\n        /* \"#utility.yul\":4283:4294   */\n      0x00\n        /* \"#utility.yul\":4317:4323   */\n      dup3\n        /* \"#utility.yul\":4312:4315   */\n      dup3\n        /* \"#utility.yul\":4305:4324   */\n      mstore\n        /* \"#utility.yul\":4357:4361   */\n      0x20\n        /* \"#utility.yul\":4352:4355   */\n      dup3\n        /* \"#utility.yul\":4348:4362   */\n      add\n        /* \"#utility.yul\":4333:4362   */\n      swap1\n      pop\n        /* \"#utility.yul\":4199:4368   */\n      swap3\n      swap2\n      pop\n      pop\n      jump\t// out\n        /* \"#utility.yul\":4374:4620   */\n    tag_90:\n        /* \"#utility.yul\":4455:4456   */\n      0x00\n        /* \"#utility.yul\":4465:4578   */\n    tag_149:\n        /* \"#utility.yul\":4479:4485   */\n      dup4\n        /* \"#utility.yul\":4476:4477   */\n      dup2\n        /* \"#utility.yul\":4473:4486   */\n      lt\n        /* \"#utility.yul\":4465:4578   */\n      iszero\n      tag_151\n      jumpi\n        /* \"#utility.yul\":4564:4565   */\n      dup1\n        /* \"#utility.yul\":4559:4562   */\n      dup3\n        /* \"#utility.yul\":4555:4566   */\n      add\n        /* \"#utility.yul\":4549:4567   */\n      mload\n        /* \"#utility.yul\":4545:4546   */\n      dup2\n        /* \"#utility.yul\":4540:4543   */\n      dup5\n        /* \"#utility.yul\":4536:4547   */\n      add\n        /* \"#utility.yul\":4529:4568   */\n      mstore\n        /* \"#utility.yul\":4501:4503   */\n      0x20\n        /* \"#utility.yul\":4498:4499   */\n      dup2\n        /* \"#utility.yul\":4494:4504   */\n      add\n        /* \"#utility.yul\":4489:4504   */\n      swap1\n      pop\n        /* \"#utility.yul\":4465:4578   */\n      jump(tag_149)\n    tag_151:\n        /* \"#utility.yul\":4612:4613   */\n      0x00\n        /* \"#utility.yul\":4603:4609   */\n      dup5\n        /* \"#utility.yul\":4598:4601   */\n      dup5\n        /* \"#utility.yul\":4594:4610   */\n      add\n        /* \"#utility.yul\":4587:4614   */\n      mstore\n        /* \"#utility.yul\":4436:4620   */\n      pop\n        /* \"#utility.yul\":4374:4620   */\n      pop\n      pop\n      pop\n      jump\t// out\n        /* \"#utility.yul\":4626:5003   */\n    tag_91:\n        /* \"#utility.yul\":4714:4717   */\n      0x00\n        /* \"#utility.yul\":4742:4781   */\n      tag_153\n        /* \"#utility.yul\":4775:4780   */\n      dup3\n        /* \"#utility.yul\":4742:4781   */\n      tag_88\n      jump\t// in\n    tag_153:\n        /* \"#utility.yul\":4797:4868   */\n      tag_154\n        /* \"#utility.yul\":4861:4867   */\n      dup2\n        /* \"#utility.yul\":4856:4859   */\n      dup6\n        /* \"#utility.yul\":4797:4868   */\n      tag_89\n      jump\t// in\n    tag_154:\n        /* \"#utility.yul\":4790:4868   */\n      swap4\n      pop\n        /* \"#utility.yul\":4877:4942   */\n      tag_155\n        /* \"#utility.yul\":4935:4941   */\n      dup2\n        /* \"#utility.yul\":4930:4933   */\n      dup6\n        /* \"#utility.yul\":4923:4927   */\n      0x20\n        /* \"#utility.yul\":4916:4921   */\n      dup7\n        /* \"#utility.yul\":4912:4928   */\n      add\n        /* \"#utility.yul\":4877:4942   */\n      tag_90\n      jump\t// in\n    tag_155:\n        /* \"#utility.yul\":4967:4996   */\n      tag_156\n        /* \"#utility.yul\":4989:4995   */\n      dup2\n        /* \"#utility.yul\":4967:4996   */\n      tag_80\n      jump\t// in\n    tag_156:\n        /* \"#utility.yul\":4962:4965   */\n      dup5\n        /* \"#utility.yul\":4958:4997   */\n      add\n        /* \"#utility.yul\":4951:4997   */\n      swap2\n      pop\n        /* \"#utility.yul\":4718:5003   */\n      pop\n        /* \"#utility.yul\":4626:5003   */\n      swap3\n      swap2\n      pop\n      pop\n      jump\t// out\n        /* \"#utility.yul\":5009:5322   */\n    tag_40:\n        /* \"#utility.yul\":5122:5126   */\n      0x00\n        /* \"#utility.yul\":5160:5162   */\n      0x20\n        /* \"#utility.yul\":5149:5158   */\n      dup3\n        /* \"#utility.yul\":5145:5163   */\n      add\n        /* \"#utility.yul\":5137:5163   */\n      swap1\n      pop\n        /* \"#utility.yul\":5209:5218   */\n      dup2\n        /* \"#utility.yul\":5203:5207   */\n      dup2\n        /* \"#utility.yul\":5199:5219   */\n      sub\n        /* \"#utility.yul\":5195:5196   */\n      0x00\n        /* \"#utility.yul\":5184:5193   */\n      dup4\n        /* \"#utility.yul\":5180:5197   */\n      add\n        /* \"#utility.yul\":5173:5220   */\n      mstore\n        /* \"#utility.yul\":5237:5315   */\n      tag_158\n        /* \"#utility.yul\":5310:5314   */\n      dup2\n        /* \"#utility.yul\":5301:5307   */\n      dup5\n        /* \"#utility.yul\":5237:5315   */\n      tag_91\n      jump\t// in\n    tag_158:\n        /* \"#utility.yul\":5229:5315   */\n      swap1\n      pop\n        /* \"#utility.yul\":5009:5322   */\n      swap3\n      swap2\n      pop\n      pop\n      jump\t// out\n        /* \"#utility.yul\":5328:5508   */\n    tag_92:\n        /* \"#utility.yul\":5376:5453   */\n      0x4e487b7100000000000000000000000000000000000000000000000000000000\n        /* \"#utility.yul\":5373:5374   */\n      0x00\n        /* \"#utility.yul\":5366:5454   */\n      mstore\n        /* \"#utility.yul\":5473:5477   */\n      0x11\n        /* \"#utility.yul\":5470:5471   */\n      0x04\n        /* \"#utility.yul\":5463:5478   */\n      mstore\n        /* \"#utility.yul\":5497:5501   */\n      0x24\n        /* \"#utility.yul\":5494:5495   */\n      0x00\n        /* \"#utility.yul\":5487:5502   */\n      revert\n        /* \"#utility.yul\":5514:5702   */\n    tag_54:\n        /* \"#utility.yul\":5552:5555   */\n      0x00\n        /* \"#utility.yul\":5571:5589   */\n      tag_161\n        /* \"#utility.yul\":5587:5588   */\n      dup3\n        /* \"#utility.yul\":5571:5589   */\n      tag_74\n      jump\t// in\n    tag_161:\n        /* \"#utility.yul\":5566:5589   */\n      swap2\n      pop\n        /* \"#utility.yul\":5603:5621   */\n      tag_162\n        /* \"#utility.yul\":5619:5620   */\n      dup4\n        /* \"#utility.yul\":5603:5621   */\n      tag_74\n      jump\t// in\n    tag_162:\n        /* \"#utility.yul\":5598:5621   */\n      swap3\n      pop\n        /* \"#utility.yul\":5644:5645   */\n      dup3\n        /* \"#utility.yul\":5641:5642   */\n      dup3\n        /* \"#utility.yul\":5637:5646   */\n      add\n        /* \"#utility.yul\":5630:5646   */\n      swap1\n      pop\n        /* \"#utility.yul\":5667:5671   */\n      0xff\n        /* \"#utility.yul\":5662:5665   */\n      dup2\n        /* \"#utility.yul\":5659:5672   */\n      gt\n        /* \"#utility.yul\":5656:5695   */\n      iszero\n      tag_163\n      jumpi\n        /* \"#utility.yul\":5675:5693   */\n      tag_164\n      tag_92\n      jump\t// in\n    tag_164:\n        /* \"#utility.yul\":5656:5695   */\n    tag_163:\n        /* \"#utility.yul\":5514:5702   */\n      swap3\n      swap2\n      pop\n      pop\n      jump\t// out\n        /* \"#utility.yul\":5708:5899   */\n    tag_62:\n        /* \"#utility.yul\":5746:5750   */\n      0x00\n        /* \"#utility.yul\":5766:5784   */\n      tag_166\n        /* \"#utility.yul\":5782:5783   */\n      dup3\n        /* \"#utility.yul\":5766:5784   */\n      tag_74\n      jump\t// in\n    tag_166:\n        /* \"#utility.yul\":5761:5784   */\n      swap2\n      pop\n        /* \"#utility.yul\":5798:5816   */\n      tag_167\n        /* \"#utility.yul\":5814:5815   */\n      dup4\n        /* \"#utility.yul\":5798:5816   */\n      tag_74\n      jump\t// in\n    tag_167:\n        /* \"#utility.yul\":5793:5816   */\n      swap3\n      pop\n        /* \"#utility.yul\":5840:5841   */\n      dup3\n        /* \"#utility.yul\":5837:5838   */\n      dup3\n        /* \"#utility.yul\":5833:5842   */\n      sub\n        /* \"#utility.yul\":5825:5842   */\n      swap1\n      pop\n        /* \"#utility.yul\":5864:5868   */\n      0xff\n        /* \"#utility.yul\":5858:5862   */\n      dup2\n        /* \"#utility.yul\":5855:5869   */\n      gt\n        /* \"#utility.yul\":5852:5892   */\n      iszero\n      tag_168\n      jumpi\n        /* \"#utility.yul\":5872:5890   */\n      tag_169\n      tag_92\n      jump\t// in\n    tag_169:\n        /* \"#utility.yul\":5852:5892   */\n    tag_168:\n        /* \"#utility.yul\":5708:5899   */\n      swap3\n      swap2\n      pop\n      pop\n      jump\t// out\n        /* \"#utility.yul\":5905:6088   */\n    tag_93:\n        /* \"#utility.yul\":6073:6081   */\n      0x48656c6c6f200000000000000000000000000000000000000000000000000000\n        /* \"#utility.yul\":6068:6071   */\n      dup2\n        /* \"#utility.yul\":6061:6082   */\n      mstore\n        /* \"#utility.yul\":5905:6088   */\n      pop\n      jump\t// out\n        /* \"#utility.yul\":6094:6242   */\n    tag_94:\n        /* \"#utility.yul\":6196:6207   */\n      0x00\n        /* \"#utility.yul\":6233:6236   */\n      dup2\n        /* \"#utility.yul\":6218:6236   */\n      swap1\n      pop\n        /* \"#utility.yul\":6094:6242   */\n      swap3\n      swap2\n      pop\n      pop\n      jump\t// out\n        /* \"#utility.yul\":6248:6638   */\n    tag_95:\n        /* \"#utility.yul\":6354:6357   */\n      0x00\n        /* \"#utility.yul\":6382:6421   */\n      tag_173\n        /* \"#utility.yul\":6415:6420   */\n      dup3\n        /* \"#utility.yul\":6382:6421   */\n      tag_88\n      jump\t// in\n    tag_173:\n        /* \"#utility.yul\":6437:6526   */\n      tag_174\n        /* \"#utility.yul\":6519:6525   */\n      dup2\n        /* \"#utility.yul\":6514:6517   */\n      dup6\n        /* \"#utility.yul\":6437:6526   */\n      tag_94\n      jump\t// in\n    tag_174:\n        /* \"#utility.yul\":6430:6526   */\n      swap4\n      pop\n        /* \"#utility.yul\":6535:6600   */\n      tag_175\n        /* \"#utility.yul\":6593:6599   */\n      dup2\n        /* \"#utility.yul\":6588:6591   */\n      dup6\n        /* \"#utility.yul\":6581:6585   */\n      0x20\n        /* \"#utility.yul\":6574:6579   */\n      dup7\n        /* \"#utility.yul\":6570:6586   */\n      add\n        /* \"#utility.yul\":6535:6600   */\n      tag_90\n      jump\t// in\n    tag_175:\n        /* \"#utility.yul\":6625:6631   */\n      dup1\n        /* \"#utility.yul\":6620:6623   */\n      dup5\n        /* \"#utility.yul\":6616:6632   */\n      add\n        /* \"#utility.yul\":6609:6632   */\n      swap2\n      pop\n        /* \"#utility.yul\":6358:6638   */\n      pop\n        /* \"#utility.yul\":6248:6638   */\n      swap3\n      swap2\n      pop\n      pop\n      jump\t// out\n        /* \"#utility.yul\":6644:7183   */\n    tag_65:\n        /* \"#utility.yul\":6866:6869   */\n      0x00\n        /* \"#utility.yul\":6881:7018   */\n      tag_177\n        /* \"#utility.yul\":7014:7017   */\n      dup3\n        /* \"#utility.yul\":6881:7018   */\n      tag_93\n      jump\t// in\n    tag_177:\n        /* \"#utility.yul\":7043:7044   */\n      0x06\n        /* \"#utility.yul\":7038:7041   */\n      dup3\n        /* \"#utility.yul\":7034:7045   */\n      add\n        /* \"#utility.yul\":7027:7045   */\n      swap2\n      pop\n        /* \"#utility.yul\":7062:7157   */\n      tag_178\n        /* \"#utility.yul\":7153:7156   */\n      dup3\n        /* \"#utility.yul\":7144:7150   */\n      dup5\n        /* \"#utility.yul\":7062:7157   */\n      tag_95\n      jump\t// in\n    tag_178:\n        /* \"#utility.yul\":7055:7157   */\n      swap2\n      pop\n        /* \"#utility.yul\":7174:7177   */\n      dup2\n        /* \"#utility.yul\":7167:7177   */\n      swap1\n      pop\n        /* \"#utility.yul\":6644:7183   */\n      swap3\n      swap2\n      pop\n      pop\n      jump\t// out\n\n    auxdata: 0xa26469706673582212204f90c1f77f4318f837e3c26a7d428e4db064fffbe3747702d3cbdfd6e66cff7364736f6c63430008160033\n}\n",
				"bytecode": {
					"linkReferences": {},
					"object": "608060405234801561000f575f80fd5b50604051610888380380610888833981810160405281019061003191906100a5565b815f806101000a81548160ff021916908360ff160217905550805f60016101000a81548160ff021916908360ff16021790555050506100e3565b5f80fd5b5f60ff82169050919050565b6100848161006f565b811461008e575f80fd5b50565b5f8151905061009f8161007b565b92915050565b5f80604083850312156100bb576100ba61006b565b5b5f6100c885828601610091565b92505060206100d985828601610091565b9150509250929050565b610798806100f05f395ff3fe608060405234801561000f575f80fd5b50600436106100b2575f3560e01c8063b7eb19ff1161006f578063b7eb19ff1461012a578063c3a9b1c514610134578063ca5c047114610164578063cfae32171461016e578063e6e7a4b01461018c578063f7e32c3414610196576100b2565b806313aa95f8146100b657806332874521146100c05780633387553a146100ca5780636c570bea146100e65780639f0c329514610104578063aa1e9b681461010e575b5f80fd5b6100be6101b4565b005b6100c86101cf565b005b6100e460048036038101906100df91906103d8565b610206565b005b6100ee610222565b6040516100fb9190610412565b60405180910390f35b61010c610236565b005b610128600480360381019061012391906103d8565b61026e565b005b61013261028b565b005b61014e60048036038101906101499190610567565b6102c2565b60405161015b9190610628565b60405180910390f35b61016c6102eb565b005b610176610307565b6040516101839190610628565b60405180910390f35b610194610344565b005b61019e61037c565b6040516101ab9190610412565b60405180910390f35b5f805f6101000a81548160ff021916908360ff160217905550565b60015f808282829054906101000a900460ff166101ec9190610675565b92506101000a81548160ff021916908360ff160217905550565b805f806101000a81548160ff021916908360ff16021790555050565b5f805f9054906101000a900460ff16905090565b60015f60018282829054906101000a900460ff166102549190610675565b92506101000a81548160ff021916908360ff160217905550565b805f60016101000a81548160ff021916908360ff16021790555050565b60015f808282829054906101000a900460ff166102a891906106a9565b92506101000a81548160ff021916908360ff160217905550565b6060816040516020016102d5919061073d565b6040516020818303038152906040529050919050565b5f8060016101000a81548160ff021916908360ff160217905550565b60606040518060400160405280600581526020017f48656c6c6f000000000000000000000000000000000000000000000000000000815250905090565b60015f60018282829054906101000a900460ff1661036291906106a9565b92506101000a81548160ff021916908360ff160217905550565b5f8060019054906101000a900460ff16905090565b5f604051905090565b5f80fd5b5f80fd5b5f60ff82169050919050565b6103b7816103a2565b81146103c1575f80fd5b50565b5f813590506103d2816103ae565b92915050565b5f602082840312156103ed576103ec61039a565b5b5f6103fa848285016103c4565b91505092915050565b61040c816103a2565b82525050565b5f6020820190506104255f830184610403565b92915050565b5f80fd5b5f80fd5b5f601f19601f8301169050919050565b7f4e487b71000000000000000000000000000000000000000000000000000000005f52604160045260245ffd5b61047982610433565b810181811067ffffffffffffffff8211171561049857610497610443565b5b80604052505050565b5f6104aa610391565b90506104b68282610470565b919050565b5f67ffffffffffffffff8211156104d5576104d4610443565b5b6104de82610433565b9050602081019050919050565b828183375f83830152505050565b5f61050b610506846104bb565b6104a1565b9050828152602081018484840111156105275761052661042f565b5b6105328482856104eb565b509392505050565b5f82601f83011261054e5761054d61042b565b5b813561055e8482602086016104f9565b91505092915050565b5f6020828403121561057c5761057b61039a565b5b5f82013567ffffffffffffffff8111156105995761059861039e565b5b6105a58482850161053a565b91505092915050565b5f81519050919050565b5f82825260208201905092915050565b5f5b838110156105e55780820151818401526020810190506105ca565b5f8484015250505050565b5f6105fa826105ae565b61060481856105b8565b93506106148185602086016105c8565b61061d81610433565b840191505092915050565b5f6020820190508181035f83015261064081846105f0565b905092915050565b7f4e487b71000000000000000000000000000000000000000000000000000000005f52601160045260245ffd5b5f61067f826103a2565b915061068a836103a2565b9250828201905060ff8111156106a3576106a2610648565b5b92915050565b5f6106b3826103a2565b91506106be836103a2565b9250828203905060ff8111156106d7576106d6610648565b5b92915050565b7f48656c6c6f200000000000000000000000000000000000000000000000000000815250565b5f81905092915050565b5f610717826105ae565b6107218185610703565b93506107318185602086016105c8565b80840191505092915050565b5f610747826106dd565b600682019150610757828461070d565b91508190509291505056fea26469706673582212204f90c1f77f4318f837e3c26a7d428e4db064fffbe3747702d3cbdfd6e66cff7364736f6c63430008160033",
					"opcodes": "PUSH1 0x80 PUSH1 0x40 MSTORE CALLVALUE DUP1 ISZERO PUSH2 0xF JUMPI PUSH0 DUP1 REVERT JUMPDEST POP PUSH1 0x40 MLOAD PUSH2 0x888 CODESIZE SUB DUP1 PUSH2 0x888 DUP4 CODECOPY DUP2 DUP2 ADD PUSH1 0x40 MSTORE DUP2 ADD SWAP1 PUSH2 0x31 SWAP2 SWAP1 PUSH2 0xA5 JUMP JUMPDEST DUP2 PUSH0 DUP1 PUSH2 0x100 EXP DUP2 SLOAD DUP2 PUSH1 0xFF MUL NOT AND SWAP1 DUP4 PUSH1 0xFF AND MUL OR SWAP1 SSTORE POP DUP1 PUSH0 PUSH1 0x1 PUSH2 0x100 EXP DUP2 SLOAD DUP2 PUSH1 0xFF MUL NOT AND SWAP1 DUP4 PUSH1 0xFF AND MUL OR SWAP1 SSTORE POP POP POP PUSH2 0xE3 JUMP JUMPDEST PUSH0 DUP1 REVERT JUMPDEST PUSH0 PUSH1 0xFF DUP3 AND SWAP1 POP SWAP2 SWAP1 POP JUMP JUMPDEST PUSH2 0x84 DUP2 PUSH2 0x6F JUMP JUMPDEST DUP2 EQ PUSH2 0x8E JUMPI PUSH0 DUP1 REVERT JUMPDEST POP JUMP JUMPDEST PUSH0 DUP2 MLOAD SWAP1 POP PUSH2 0x9F DUP2 PUSH2 0x7B JUMP JUMPDEST SWAP3 SWAP2 POP POP JUMP JUMPDEST PUSH0 DUP1 PUSH1 0x40 DUP4 DUP6 SUB SLT ISZERO PUSH2 0xBB JUMPI PUSH2 0xBA PUSH2 0x6B JUMP JUMPDEST JUMPDEST PUSH0 PUSH2 0xC8 DUP6 DUP3 DUP7 ADD PUSH2 0x91 JUMP JUMPDEST SWAP3 POP POP PUSH1 0x20 PUSH2 0xD9 DUP6 DUP3 DUP7 ADD PUSH2 0x91 JUMP JUMPDEST SWAP2 POP POP SWAP3 POP SWAP3 SWAP1 POP JUMP JUMPDEST PUSH2 0x798 DUP1 PUSH2 0xF0 PUSH0 CODECOPY PUSH0 RETURN INVALID PUSH1 0x80 PUSH1 0x40 MSTORE CALLVALUE DUP1 ISZERO PUSH2 0xF JUMPI PUSH0 DUP1 REVERT JUMPDEST POP PUSH1 0x4 CALLDATASIZE LT PUSH2 0xB2 JUMPI PUSH0 CALLDATALOAD PUSH1 0xE0 SHR DUP1 PUSH4 0xB7EB19FF GT PUSH2 0x6F JUMPI DUP1 PUSH4 0xB7EB19FF EQ PUSH2 0x12A JUMPI DUP1 PUSH4 0xC3A9B1C5 EQ PUSH2 0x134 JUMPI DUP1 PUSH4 0xCA5C0471 EQ PUSH2 0x164 JUMPI DUP1 PUSH4 0xCFAE3217 EQ PUSH2 0x16E JUMPI DUP1 PUSH4 0xE6E7A4B0 EQ PUSH2 0x18C JUMPI DUP1 PUSH4 0xF7E32C34 EQ PUSH2 0x196 JUMPI PUSH2 0xB2 JUMP JUMPDEST DUP1 PUSH4 0x13AA95F8 EQ PUSH2 0xB6 JUMPI DUP1 PUSH4 0x32874521 EQ PUSH2 0xC0 JUMPI DUP1 PUSH4 0x3387553A EQ PUSH2 0xCA JUMPI DUP1 PUSH4 0x6C570BEA EQ PUSH2 0xE6 JUMPI DUP1 PUSH4 0x9F0C3295 EQ PUSH2 0x104 JUMPI DUP1 PUSH4 0xAA1E9B68 EQ PUSH2 0x10E JUMPI JUMPDEST PUSH0 DUP1 REVERT JUMPDEST PUSH2 0xBE PUSH2 0x1B4 JUMP JUMPDEST STOP JUMPDEST PUSH2 0xC8 PUSH2 0x1CF JUMP JUMPDEST STOP JUMPDEST PUSH2 0xE4 PUSH1 0x4 DUP1 CALLDATASIZE SUB DUP2 ADD SWAP1 PUSH2 0xDF SWAP2 SWAP1 PUSH2 0x3D8 JUMP JUMPDEST PUSH2 0x206 JUMP JUMPDEST STOP JUMPDEST PUSH2 0xEE PUSH2 0x222 JUMP JUMPDEST PUSH1 0x40 MLOAD PUSH2 0xFB SWAP2 SWAP1 PUSH2 0x412 JUMP JUMPDEST PUSH1 0x40 MLOAD DUP1 SWAP2 SUB SWAP1 RETURN JUMPDEST PUSH2 0x10C PUSH2 0x236 JUMP JUMPDEST STOP JUMPDEST PUSH2 0x128 PUSH1 0x4 DUP1 CALLDATASIZE SUB DUP2 ADD SWAP1 PUSH2 0x123 SWAP2 SWAP1 PUSH2 0x3D8 JUMP JUMPDEST PUSH2 0x26E JUMP JUMPDEST STOP JUMPDEST PUSH2 0x132 PUSH2 0x28B JUMP JUMPDEST STOP JUMPDEST PUSH2 0x14E PUSH1 0x4 DUP1 CALLDATASIZE SUB DUP2 ADD SWAP1 PUSH2 0x149 SWAP2 SWAP1 PUSH2 0x567 JUMP JUMPDEST PUSH2 0x2C2 JUMP JUMPDEST PUSH1 0x40 MLOAD PUSH2 0x15B SWAP2 SWAP1 PUSH2 0x628 JUMP JUMPDEST PUSH1 0x40 MLOAD DUP1 SWAP2 SUB SWAP1 RETURN JUMPDEST PUSH2 0x16C PUSH2 0x2EB JUMP JUMPDEST STOP JUMPDEST PUSH2 0x176 PUSH2 0x307 JUMP JUMPDEST PUSH1 0x40 MLOAD PUSH2 0x183 SWAP2 SWAP1 PUSH2 0x628 JUMP JUMPDEST PUSH1 0x40 MLOAD DUP1 SWAP2 SUB SWAP1 RETURN JUMPDEST PUSH2 0x194 PUSH2 0x344 JUMP JUMPDEST STOP JUMPDEST PUSH2 0x19E PUSH2 0x37C JUMP JUMPDEST PUSH1 0x40 MLOAD PUSH2 0x1AB SWAP2 SWAP1 PUSH2 0x412 JUMP JUMPDEST PUSH1 0x40 MLOAD DUP1 SWAP2 SUB SWAP1 RETURN JUMPDEST PUSH0 DUP1 PUSH0 PUSH2 0x100 EXP DUP2 SLOAD DUP2 PUSH1 0xFF MUL NOT AND SWAP1 DUP4 PUSH1 0xFF AND MUL OR SWAP1 SSTORE POP JUMP JUMPDEST PUSH1 0x1 PUSH0 DUP1 DUP3 DUP3 DUP3 SWAP1 SLOAD SWAP1 PUSH2 0x100 EXP SWAP1 DIV PUSH1 0xFF AND PUSH2 0x1EC SWAP2 SWAP1 PUSH2 0x675 JUMP JUMPDEST SWAP3 POP PUSH2 0x100 EXP DUP2 SLOAD DUP2 PUSH1 0xFF MUL NOT AND SWAP1 DUP4 PUSH1 0xFF AND MUL OR SWAP1 SSTORE POP JUMP JUMPDEST DUP1 PUSH0 DUP1 PUSH2 0x100 EXP DUP2 SLOAD DUP2 PUSH1 0xFF MUL NOT AND SWAP1 DUP4 PUSH1 0xFF AND MUL OR SWAP1 SSTORE POP POP JUMP JUMPDEST PUSH0 DUP1 PUSH0 SWAP1 SLOAD SWAP1 PUSH2 0x100 EXP SWAP1 DIV PUSH1 0xFF AND SWAP1 POP SWAP1 JUMP JUMPDEST PUSH1 0x1 PUSH0 PUSH1 0x1 DUP3 DUP3 DUP3 SWAP1 SLOAD SWAP1 PUSH2 0x100 EXP SWAP1 DIV PUSH1 0xFF AND PUSH2 0x254 SWAP2 SWAP1 PUSH2 0x675 JUMP JUMPDEST SWAP3 POP PUSH2 0x100 EXP DUP2 SLOAD DUP2 PUSH1 0xFF MUL NOT AND SWAP1 DUP4 PUSH1 0xFF AND MUL OR SWAP1 SSTORE POP JUMP JUMPDEST DUP1 PUSH0 PUSH1 0x1 PUSH2 0x100 EXP DUP2 SLOAD DUP2 PUSH1 0xFF MUL NOT AND SWAP1 DUP4 PUSH1 0xFF AND MUL OR SWAP1 SSTORE POP POP JUMP JUMPDEST PUSH1 0x1 PUSH0 DUP1 DUP3 DUP3 DUP3 SWAP1 SLOAD SWAP1 PUSH2 0x100 EXP SWAP1 DIV PUSH1 0xFF AND PUSH2 0x2A8 SWAP2 SWAP1 PUSH2 0x6A9 JUMP JUMPDEST SWAP3 POP PUSH2 0x100 EXP DUP2 SLOAD DUP2 PUSH1 0xFF MUL NOT AND SWAP1 DUP4 PUSH1 0xFF AND MUL OR SWAP1 SSTORE POP JUMP JUMPDEST PUSH1 0x60 DUP2 PUSH1 0x40 MLOAD PUSH1 0x20 ADD PUSH2 0x2D5 SWAP2 SWAP1 PUSH2 0x73D JUMP JUMPDEST PUSH1 0x40 MLOAD PUSH1 0x20 DUP2 DUP4 SUB SUB DUP2 MSTORE SWAP1 PUSH1 0x40 MSTORE SWAP1 POP SWAP2 SWAP1 POP JUMP JUMPDEST PUSH0 DUP1 PUSH1 0x1 PUSH2 0x100 EXP DUP2 SLOAD DUP2 PUSH1 0xFF MUL NOT AND SWAP1 DUP4 PUSH1 0xFF AND MUL OR SWAP1 SSTORE POP JUMP JUMPDEST PUSH1 0x60 PUSH1 0x40 MLOAD DUP1 PUSH1 0x40 ADD PUSH1 0x40 MSTORE DUP1 PUSH1 0x5 DUP2 MSTORE PUSH1 0x20 ADD PUSH32 0x48656C6C6F000000000000000000000000000000000000000000000000000000 DUP2 MSTORE POP SWAP1 POP SWAP1 JUMP JUMPDEST PUSH1 0x1 PUSH0 PUSH1 0x1 DUP3 DUP3 DUP3 SWAP1 SLOAD SWAP1 PUSH2 0x100 EXP SWAP1 DIV PUSH1 0xFF AND PUSH2 0x362 SWAP2 SWAP1 PUSH2 0x6A9 JUMP JUMPDEST SWAP3 POP PUSH2 0x100 EXP DUP2 SLOAD DUP2 PUSH1 0xFF MUL NOT AND SWAP1 DUP4 PUSH1 0xFF AND MUL OR SWAP1 SSTORE POP JUMP JUMPDEST PUSH0 DUP1 PUSH1 0x1 SWAP1 SLOAD SWAP1 PUSH2 0x100 EXP SWAP1 DIV PUSH1 0xFF AND SWAP1 POP SWAP1 JUMP JUMPDEST PUSH0 PUSH1 0x40 MLOAD SWAP1 POP SWAP1 JUMP JUMPDEST PUSH0 DUP1 REVERT JUMPDEST PUSH0 DUP1 REVERT JUMPDEST PUSH0 PUSH1 0xFF DUP3 AND SWAP1 POP SWAP2 SWAP1 POP JUMP JUMPDEST PUSH2 0x3B7 DUP2 PUSH2 0x3A2 JUMP JUMPDEST DUP2 EQ PUSH2 0x3C1 JUMPI PUSH0 DUP1 REVERT JUMPDEST POP JUMP JUMPDEST PUSH0 DUP2 CALLDATALOAD SWAP1 POP PUSH2 0x3D2 DUP2 PUSH2 0x3AE JUMP JUMPDEST SWAP3 SWAP2 POP POP JUMP JUMPDEST PUSH0 PUSH1 0x20 DUP3 DUP5 SUB SLT ISZERO PUSH2 0x3ED JUMPI PUSH2 0x3EC PUSH2 0x39A JUMP JUMPDEST JUMPDEST PUSH0 PUSH2 0x3FA DUP5 DUP3 DUP6 ADD PUSH2 0x3C4 JUMP JUMPDEST SWAP2 POP POP SWAP3 SWAP2 POP POP JUMP JUMPDEST PUSH2 0x40C DUP2 PUSH2 0x3A2 JUMP JUMPDEST DUP3 MSTORE POP POP JUMP JUMPDEST PUSH0 PUSH1 0x20 DUP3 ADD SWAP1 POP PUSH2 0x425 PUSH0 DUP4 ADD DUP5 PUSH2 0x403 JUMP JUMPDEST SWAP3 SWAP2 POP POP JUMP JUMPDEST PUSH0 DUP1 REVERT JUMPDEST PUSH0 DUP1 REVERT JUMPDEST PUSH0 PUSH1 0x1F NOT PUSH1 0x1F DUP4 ADD AND SWAP1 POP SWAP2 SWAP1 POP JUMP JUMPDEST PUSH32 0x4E487B7100000000000000000000000000000000000000000000000000000000 PUSH0 MSTORE PUSH1 0x41 PUSH1 0x4 MSTORE PUSH1 0x24 PUSH0 REVERT JUMPDEST PUSH2 0x479 DUP3 PUSH2 0x433 JUMP JUMPDEST DUP2 ADD DUP2 DUP2 LT PUSH8 0xFFFFFFFFFFFFFFFF DUP3 GT OR ISZERO PUSH2 0x498 JUMPI PUSH2 0x497 PUSH2 0x443 JUMP JUMPDEST JUMPDEST DUP1 PUSH1 0x40 MSTORE POP POP POP JUMP JUMPDEST PUSH0 PUSH2 0x4AA PUSH2 0x391 JUMP JUMPDEST SWAP1 POP PUSH2 0x4B6 DUP3 DUP3 PUSH2 0x470 JUMP JUMPDEST SWAP2 SWAP1 POP JUMP JUMPDEST PUSH0 PUSH8 0xFFFFFFFFFFFFFFFF DUP3 GT ISZERO PUSH2 0x4D5 JUMPI PUSH2 0x4D4 PUSH2 0x443 JUMP JUMPDEST JUMPDEST PUSH2 0x4DE DUP3 PUSH2 0x433 JUMP JUMPDEST SWAP1 POP PUSH1 0x20 DUP2 ADD SWAP1 POP SWAP2 SWAP1 POP JUMP JUMPDEST DUP3 DUP2 DUP4 CALLDATACOPY PUSH0 DUP4 DUP4 ADD MSTORE POP POP POP JUMP JUMPDEST PUSH0 PUSH2 0x50B PUSH2 0x506 DUP5 PUSH2 0x4BB JUMP JUMPDEST PUSH2 0x4A1 JUMP JUMPDEST SWAP1 POP DUP3 DUP2 MSTORE PUSH1 0x20 DUP2 ADD DUP5 DUP5 DUP5 ADD GT ISZERO PUSH2 0x527 JUMPI PUSH2 0x526 PUSH2 0x42F JUMP JUMPDEST JUMPDEST PUSH2 0x532 DUP5 DUP3 DUP6 PUSH2 0x4EB JUMP JUMPDEST POP SWAP4 SWAP3 POP POP POP JUMP JUMPDEST PUSH0 DUP3 PUSH1 0x1F DUP4 ADD SLT PUSH2 0x54E JUMPI PUSH2 0x54D PUSH2 0x42B JUMP JUMPDEST JUMPDEST DUP2 CALLDATALOAD PUSH2 0x55E DUP5 DUP3 PUSH1 0x20 DUP7 ADD PUSH2 0x4F9 JUMP JUMPDEST SWAP2 POP POP SWAP3 SWAP2 POP POP JUMP JUMPDEST PUSH0 PUSH1 0x20 DUP3 DUP5 SUB SLT ISZERO PUSH2 0x57C JUMPI PUSH2 0x57B PUSH2 0x39A JUMP JUMPDEST JUMPDEST PUSH0 DUP3 ADD CALLDATALOAD PUSH8 0xFFFFFFFFFFFFFFFF DUP2 GT ISZERO PUSH2 0x599 JUMPI PUSH2 0x598 PUSH2 0x39E JUMP JUMPDEST JUMPDEST PUSH2 0x5A5 DUP5 DUP3 DUP6 ADD PUSH2 0x53A JUMP JUMPDEST SWAP2 POP POP SWAP3 SWAP2 POP POP JUMP JUMPDEST PUSH0 DUP2 MLOAD SWAP1 POP SWAP2 SWAP1 POP JUMP JUMPDEST PUSH0 DUP3 DUP3 MSTORE PUSH1 0x20 DUP3 ADD SWAP1 POP SWAP3 SWAP2 POP POP JUMP JUMPDEST PUSH0 JUMPDEST DUP4 DUP2 LT ISZERO PUSH2 0x5E5 JUMPI DUP1 DUP3 ADD MLOAD DUP2 DUP5 ADD MSTORE PUSH1 0x20 DUP2 ADD SWAP1 POP PUSH2 0x5CA JUMP JUMPDEST PUSH0 DUP5 DUP5 ADD MSTORE POP POP POP POP JUMP JUMPDEST PUSH0 PUSH2 0x5FA DUP3 PUSH2 0x5AE JUMP JUMPDEST PUSH2 0x604 DUP2 DUP6 PUSH2 0x5B8 JUMP JUMPDEST SWAP4 POP PUSH2 0x614 DUP2 DUP6 PUSH1 0x20 DUP7 ADD PUSH2 0x5C8 JUMP JUMPDEST PUSH2 0x61D DUP2 PUSH2 0x433 JUMP JUMPDEST DUP5 ADD SWAP2 POP POP SWAP3 SWAP2 POP POP JUMP JUMPDEST PUSH0 PUSH1 0x20 DUP3 ADD SWAP1 POP DUP2 DUP2 SUB PUSH0 DUP4 ADD MSTORE PUSH2 0x640 DUP2 DUP5 PUSH2 0x5F0 JUMP JUMPDEST SWAP1 POP SWAP3 SWAP2 POP POP JUMP JUMPDEST PUSH32 0x4E487B7100000000000000000000000000000000000000000000000000000000 PUSH0 MSTORE PUSH1 0x11 PUSH1 0x4 MSTORE PUSH1 0x24 PUSH0 REVERT JUMPDEST PUSH0 PUSH2 0x67F DUP3 PUSH2 0x3A2 JUMP JUMPDEST SWAP2 POP PUSH2 0x68A DUP4 PUSH2 0x3A2 JUMP JUMPDEST SWAP3 POP DUP3 DUP3 ADD SWAP1 POP PUSH1 0xFF DUP2 GT ISZERO PUSH2 0x6A3 JUMPI PUSH2 0x6A2 PUSH2 0x648 JUMP JUMPDEST JUMPDEST SWAP3 SWAP2 POP POP JUMP JUMPDEST PUSH0 PUSH2 0x6B3 DUP3 PUSH2 0x3A2 JUMP JUMPDEST SWAP2 POP PUSH2 0x6BE DUP4 PUSH2 0x3A2 JUMP JUMPDEST SWAP3 POP DUP3 DUP3 SUB SWAP1 POP PUSH1 0xFF DUP2 GT ISZERO PUSH2 0x6D7 JUMPI PUSH2 0x6D6 PUSH2 0x648 JUMP JUMPDEST JUMPDEST SWAP3 SWAP2 POP POP JUMP JUMPDEST PUSH32 0x48656C6C6F200000000000000000000000000000000000000000000000000000 DUP2 MSTORE POP JUMP JUMPDEST PUSH0 DUP2 SWAP1 POP SWAP3 SWAP2 POP POP JUMP JUMPDEST PUSH0 PUSH2 0x717 DUP3 PUSH2 0x5AE JUMP JUMPDEST PUSH2 0x721 DUP2 DUP6 PUSH2 0x703 JUMP JUMPDEST SWAP4 POP PUSH2 0x731 DUP2 DUP6 PUSH1 0x20 DUP7 ADD PUSH2 0x5C8 JUMP JUMPDEST DUP1 DUP5 ADD SWAP2 POP POP SWAP3 SWAP2 POP POP JUMP JUMPDEST PUSH0 PUSH2 0x747 DUP3 PUSH2 0x6DD JUMP JUMPDEST PUSH1 0x6 DUP3 ADD SWAP2 POP PUSH2 0x757 DUP3 DUP5 PUSH2 0x70D JUMP JUMPDEST SWAP2 POP DUP2 SWAP1 POP SWAP3 SWAP2 POP POP JUMP INVALID LOG2 PUSH5 0x6970667358 0x22 SLT KECCAK256 0x4F SWAP1 0xC1 0xF7 PUSH32 0x4318F837E3C26A7D428E4DB064FFFBE3747702D3CBDFD6E66CFF7364736F6C63 NUMBER STOP ADDMOD AND STOP CALLER "
				},
				"gasEstimates": {
					"creation": {
						"codeDepositCost": "388800",
						"executionCost": "infinite",
						"totalCost": "infinite"
					},
					"external": {
						"adjusNumberOfMonths(uint8)": "24834",
						"adjustNumberOfWeeks(uint8)": "24718",
						"clearDays()": "24409",
						"clearMonths()": "24503",
						"decreaseDaysOfWeek()": "infinite",
						"decreaseMonthOfYear()": "infinite",
						"greet()": "infinite",
						"increaseDaysOfWeek()": "infinite",
						"increaseMonthsOfYear()": "infinite",
						"sayHello(string)": "infinite",
						"viewDays()": "2540",
						"viewMonths()": "2634"
					}
				},
				"methodIdentifiers": {
					"adjusNumberOfMonths(uint8)": "aa1e9b68",
					"adjustNumberOfWeeks(uint8)": "3387553a",
					"clearDays()": "13aa95f8",
					"clearMonths()": "ca5c0471",
					"decreaseDaysOfWeek()": "b7eb19ff",
					"decreaseMonthOfYear()": "e6e7a4b0",
					"greet()": "cfae3217",
					"increaseDaysOfWeek()": "32874521",
					"increaseMonthsOfYear()": "9f0c3295",
					"sayHello(string)": "c3a9b1c5",
					"viewDays()": "6c570bea",
					"viewMonths()": "f7e32c34"
				}
			},
			"storageLayout": {
				"storage": [
					{
						"astId": 52,
						"contract": "main.sol:BusyDay",
						"label": "days_of_week",
						"offset": 0,
						"slot": "0",
						"type": "t_uint8"
					},
					{
						"astId": 54,
						"contract": "main.sol:BusyDay",
						"label": "months_of_year",
						"offset": 1,
						"slot": "0",
						"type": "t_uint8"
					}
				],
				"types": {
					"t_uint8": {
						"encoding": "inplace",
						"label": "uint8",
						"numberOfBytes": "1"
					}
				}
			},
			"userdoc": {
				"kind": "user",
				"methods": {},
				"version": 1
			}
		}
	}
}