{
	"pamilern_test.sol": {
		"AnotherTrest": {
			"abi": [
				{
					"inputs": [
						{
							"internalType": "string",
							"name": "_initial_creator_name",
							"type": "string"
						},
						{
							"internalType": "address",
							"name": "_initial_creator_address",
							"type": "address"
						},
						{
							"internalType": "uint256",
							"name": "_initial_no_days",
							"type": "uint256"
						},
						{
							"internalType": "uint256",
							"name": "_initial_no_weeks",
							"type": "uint256"
						}
					],
					"stateMutability": "nonpayable",
					"type": "constructor"
				},
				{
					"inputs": [],
					"name": "getNoDays",
					"outputs": [
						{
							"internalType": "uint256",
							"name": "",
							"type": "uint256"
						}
					],
					"stateMutability": "view",
					"type": "function"
				},
				{
					"inputs": [],
					"name": "getNoWeeks",
					"outputs": [
						{
							"internalType": "uint256",
							"name": "",
							"type": "uint256"
						}
					],
					"stateMutability": "view",
					"type": "function"
				},
				{
					"inputs": [
						{
							"internalType": "string",
							"name": "_user_word",
							"type": "string"
						}
					],
					"name": "sayHello",
					"outputs": [
						{
							"internalType": "string",
							"name": "",
							"type": "string"
						}
					],
					"stateMutability": "pure",
					"type": "function"
				},
				{
					"inputs": [
						{
							"internalType": "address",
							"name": "_new_creator_address",
							"type": "address"
						}
					],
					"name": "updateCreatoAddress",
					"outputs": [
						{
							"internalType": "address",
							"name": "",
							"type": "address"
						}
					],
					"stateMutability": "nonpayable",
					"type": "function"
				},
				{
					"inputs": [
						{
							"internalType": "string",
							"name": "_new_creator_name",
							"type": "string"
						}
					],
					"name": "updateCreatorName",
					"outputs": [
						{
							"internalType": "string",
							"name": "",
							"type": "string"
						}
					],
					"stateMutability": "nonpayable",
					"type": "function"
				},
				{
					"inputs": [
						{
							"internalType": "uint256",
							"name": "_new_days",
							"type": "uint256"
						}
					],
					"name": "updateNoDays",
					"outputs": [
						{
							"internalType": "uint256",
							"name": "",
							"type": "uint256"
						}
					],
					"stateMutability": "nonpayable",
					"type": "function"
				},
				{
					"inputs": [
						{
							"internalType": "uint256",
							"name": "_new_weeks",
							"type": "uint256"
						}
					],
					"name": "updateNoWeeks",
					"outputs": [
						{
							"internalType": "uint256",
							"name": "",
							"type": "uint256"
						}
					],
					"stateMutability": "nonpayable",
					"type": "function"
				}
			],
			"devdoc": {
				"kind": "dev",
				"methods": {},
				"version": 1
			},
			"evm": {
				"assembly": "    /* \"pamilern_test.sol\":58:1445  contract AnotherTrest {... */\n  mstore(0x40, 0x80)\n    /* \"pamilern_test.sol\":185:501  constructor (string memory _initial_creator_name, address _initial_creator_address, uint256 _initial_no_days, uint256 _initial_no_weeks) {... */\n  callvalue\n  dup1\n  iszero\n  tag_1\n  jumpi\n  0x00\n  dup1\n  revert\ntag_1:\n  pop\n  mload(0x40)\n  sub(codesize, bytecodeSize)\n  dup1\n  bytecodeSize\n  dup4\n  codecopy\n  dup2\n  dup2\n  add\n  0x40\n  mstore\n  dup2\n  add\n  swap1\n  tag_2\n  swap2\n  swap1\n  tag_3\n  jump\t// in\ntag_2:\n    /* \"pamilern_test.sol\":342:358  _initial_no_days */\n  dup2\n    /* \"pamilern_test.sol\":332:339  no_days */\n  0x00\n    /* \"pamilern_test.sol\":332:358  no_days = _initial_no_days */\n  dup2\n  swap1\n  sstore\n  pop\n    /* \"pamilern_test.sol\":379:396  _initial_no_weeks */\n  dup1\n    /* \"pamilern_test.sol\":368:376  no_weeks */\n  0x01\n    /* \"pamilern_test.sol\":368:396  no_weeks = _initial_no_weeks */\n  dup2\n  swap1\n  sstore\n  pop\n    /* \"pamilern_test.sol\":421:442  _initial_creator_name */\n  dup4\n    /* \"pamilern_test.sol\":406:418  creator_name */\n  0x02\n    /* \"pamilern_test.sol\":406:442  creator_name = _initial_creator_name */\n  swap1\n  dup2\n  tag_6\n  swap2\n  swap1\n  tag_7\n  jump\t// in\ntag_6:\n  pop\n    /* \"pamilern_test.sol\":470:494  _initial_creator_address */\n  dup3\n    /* \"pamilern_test.sol\":452:467  creator_address */\n  0x03\n  0x00\n    /* \"pamilern_test.sol\":452:494  creator_address = _initial_creator_address */\n  0x0100\n  exp\n  dup2\n  sload\n  dup2\n  0xffffffffffffffffffffffffffffffffffffffff\n  mul\n  not\n  and\n  swap1\n  dup4\n  0xffffffffffffffffffffffffffffffffffffffff\n  and\n  mul\n  or\n  swap1\n  sstore\n  pop\n    /* \"pamilern_test.sol\":185:501  constructor (string memory _initial_creator_name, address _initial_creator_address, uint256 _initial_no_days, uint256 _initial_no_weeks) {... */\n  pop\n  pop\n  pop\n  pop\n    /* \"pamilern_test.sol\":58:1445  contract AnotherTrest {... */\n  jump(tag_8)\n    /* \"#utility.yul\":7:82   */\ntag_9:\n    /* \"#utility.yul\":40:46   */\n  0x00\n    /* \"#utility.yul\":73:75   */\n  0x40\n    /* \"#utility.yul\":67:76   */\n  mload\n    /* \"#utility.yul\":57:76   */\n  swap1\n  pop\n    /* \"#utility.yul\":7:82   */\n  swap1\n  jump\t// out\n    /* \"#utility.yul\":88:205   */\ntag_10:\n    /* \"#utility.yul\":197:198   */\n  0x00\n    /* \"#utility.yul\":194:195   */\n  dup1\n    /* \"#utility.yul\":187:199   */\n  revert\n    /* \"#utility.yul\":211:328   */\ntag_11:\n    /* \"#utility.yul\":320:321   */\n  0x00\n    /* \"#utility.yul\":317:318   */\n  dup1\n    /* \"#utility.yul\":310:322   */\n  revert\n    /* \"#utility.yul\":334:451   */\ntag_12:\n    /* \"#utility.yul\":443:444   */\n  0x00\n    /* \"#utility.yul\":440:441   */\n  dup1\n    /* \"#utility.yul\":433:445   */\n  revert\n    /* \"#utility.yul\":457:574   */\ntag_13:\n    /* \"#utility.yul\":566:567   */\n  0x00\n    /* \"#utility.yul\":563:564   */\n  dup1\n    /* \"#utility.yul\":556:568   */\n  revert\n    /* \"#utility.yul\":580:682   */\ntag_14:\n    /* \"#utility.yul\":621:627   */\n  0x00\n    /* \"#utility.yul\":672:674   */\n  0x1f\n    /* \"#utility.yul\":668:675   */\n  not\n    /* \"#utility.yul\":663:665   */\n  0x1f\n    /* \"#utility.yul\":656:661   */\n  dup4\n    /* \"#utility.yul\":652:666   */\n  add\n    /* \"#utility.yul\":648:676   */\n  and\n    /* \"#utility.yul\":638:676   */\n  swap1\n  pop\n    /* \"#utility.yul\":580:682   */\n  swap2\n  swap1\n  pop\n  jump\t// out\n    /* \"#utility.yul\":688:868   */\ntag_15:\n    /* \"#utility.yul\":736:813   */\n  0x4e487b7100000000000000000000000000000000000000000000000000000000\n    /* \"#utility.yul\":733:734   */\n  0x00\n    /* \"#utility.yul\":726:814   */\n  mstore\n    /* \"#utility.yul\":833:837   */\n  0x41\n    /* \"#utility.yul\":830:831   */\n  0x04\n    /* \"#utility.yul\":823:838   */\n  mstore\n    /* \"#utility.yul\":857:861   */\n  0x24\n    /* \"#utility.yul\":854:855   */\n  0x00\n    /* \"#utility.yul\":847:862   */\n  revert\n    /* \"#utility.yul\":874:1155   */\ntag_16:\n    /* \"#utility.yul\":957:984   */\n  tag_56\n    /* \"#utility.yul\":979:983   */\n  dup3\n    /* \"#utility.yul\":957:984   */\n  tag_14\n  jump\t// in\ntag_56:\n    /* \"#utility.yul\":949:955   */\n  dup2\n    /* \"#utility.yul\":945:985   */\n  add\n    /* \"#utility.yul\":1087:1093   */\n  dup2\n    /* \"#utility.yul\":1075:1085   */\n  dup2\n    /* \"#utility.yul\":1072:1094   */\n  lt\n    /* \"#utility.yul\":1051:1069   */\n  0xffffffffffffffff\n    /* \"#utility.yul\":1039:1049   */\n  dup3\n    /* \"#utility.yul\":1036:1070   */\n  gt\n    /* \"#utility.yul\":1033:1095   */\n  or\n    /* \"#utility.yul\":1030:1118   */\n  iszero\n  tag_57\n  jumpi\n    /* \"#utility.yul\":1098:1116   */\n  tag_58\n  tag_15\n  jump\t// in\ntag_58:\n    /* \"#utility.yul\":1030:1118   */\ntag_57:\n    /* \"#utility.yul\":1138:1148   */\n  dup1\n    /* \"#utility.yul\":1134:1136   */\n  0x40\n    /* \"#utility.yul\":1127:1149   */\n  mstore\n    /* \"#utility.yul\":917:1155   */\n  pop\n    /* \"#utility.yul\":874:1155   */\n  pop\n  pop\n  jump\t// out\n    /* \"#utility.yul\":1161:1290   */\ntag_17:\n    /* \"#utility.yul\":1195:1201   */\n  0x00\n    /* \"#utility.yul\":1222:1242   */\n  tag_60\n  tag_9\n  jump\t// in\ntag_60:\n    /* \"#utility.yul\":1212:1242   */\n  swap1\n  pop\n    /* \"#utility.yul\":1251:1284   */\n  tag_61\n    /* \"#utility.yul\":1279:1283   */\n  dup3\n    /* \"#utility.yul\":1271:1277   */\n  dup3\n    /* \"#utility.yul\":1251:1284   */\n  tag_16\n  jump\t// in\ntag_61:\n    /* \"#utility.yul\":1161:1290   */\n  swap2\n  swap1\n  pop\n  jump\t// out\n    /* \"#utility.yul\":1296:1604   */\ntag_18:\n    /* \"#utility.yul\":1358:1362   */\n  0x00\n    /* \"#utility.yul\":1448:1466   */\n  0xffffffffffffffff\n    /* \"#utility.yul\":1440:1446   */\n  dup3\n    /* \"#utility.yul\":1437:1467   */\n  gt\n    /* \"#utility.yul\":1434:1490   */\n  iszero\n  tag_63\n  jumpi\n    /* \"#utility.yul\":1470:1488   */\n  tag_64\n  tag_15\n  jump\t// in\ntag_64:\n    /* \"#utility.yul\":1434:1490   */\ntag_63:\n    /* \"#utility.yul\":1508:1537   */\n  tag_65\n    /* \"#utility.yul\":1530:1536   */\n  dup3\n    /* \"#utility.yul\":1508:1537   */\n  tag_14\n  jump\t// in\ntag_65:\n    /* \"#utility.yul\":1500:1537   */\n  swap1\n  pop\n    /* \"#utility.yul\":1592:1596   */\n  0x20\n    /* \"#utility.yul\":1586:1590   */\n  dup2\n    /* \"#utility.yul\":1582:1597   */\n  add\n    /* \"#utility.yul\":1574:1597   */\n  swap1\n  pop\n    /* \"#utility.yul\":1296:1604   */\n  swap2\n  swap1\n  pop\n  jump\t// out\n    /* \"#utility.yul\":1610:1856   */\ntag_19:\n    /* \"#utility.yul\":1691:1692   */\n  0x00\n    /* \"#utility.yul\":1701:1814   */\ntag_67:\n    /* \"#utility.yul\":1715:1721   */\n  dup4\n    /* \"#utility.yul\":1712:1713   */\n  dup2\n    /* \"#utility.yul\":1709:1722   */\n  lt\n    /* \"#utility.yul\":1701:1814   */\n  iszero\n  tag_69\n  jumpi\n    /* \"#utility.yul\":1800:1801   */\n  dup1\n    /* \"#utility.yul\":1795:1798   */\n  dup3\n    /* \"#utility.yul\":1791:1802   */\n  add\n    /* \"#utility.yul\":1785:1803   */\n  mload\n    /* \"#utility.yul\":1781:1782   */\n  dup2\n    /* \"#utility.yul\":1776:1779   */\n  dup5\n    /* \"#utility.yul\":1772:1783   */\n  add\n    /* \"#utility.yul\":1765:1804   */\n  mstore\n    /* \"#utility.yul\":1737:1739   */\n  0x20\n    /* \"#utility.yul\":1734:1735   */\n  dup2\n    /* \"#utility.yul\":1730:1740   */\n  add\n    /* \"#utility.yul\":1725:1740   */\n  swap1\n  pop\n    /* \"#utility.yul\":1701:1814   */\n  jump(tag_67)\ntag_69:\n    /* \"#utility.yul\":1848:1849   */\n  0x00\n    /* \"#utility.yul\":1839:1845   */\n  dup5\n    /* \"#utility.yul\":1834:1837   */\n  dup5\n    /* \"#utility.yul\":1830:1846   */\n  add\n    /* \"#utility.yul\":1823:1850   */\n  mstore\n    /* \"#utility.yul\":1672:1856   */\n  pop\n    /* \"#utility.yul\":1610:1856   */\n  pop\n  pop\n  pop\n  jump\t// out\n    /* \"#utility.yul\":1862:2296   */\ntag_20:\n    /* \"#utility.yul\":1951:1956   */\n  0x00\n    /* \"#utility.yul\":1976:2042   */\n  tag_71\n    /* \"#utility.yul\":1992:2041   */\n  tag_72\n    /* \"#utility.yul\":2034:2040   */\n  dup5\n    /* \"#utility.yul\":1992:2041   */\n  tag_18\n  jump\t// in\ntag_72:\n    /* \"#utility.yul\":1976:2042   */\n  tag_17\n  jump\t// in\ntag_71:\n    /* \"#utility.yul\":1967:2042   */\n  swap1\n  pop\n    /* \"#utility.yul\":2065:2071   */\n  dup3\n    /* \"#utility.yul\":2058:2063   */\n  dup2\n    /* \"#utility.yul\":2051:2072   */\n  mstore\n    /* \"#utility.yul\":2103:2107   */\n  0x20\n    /* \"#utility.yul\":2096:2101   */\n  dup2\n    /* \"#utility.yul\":2092:2108   */\n  add\n    /* \"#utility.yul\":2141:2144   */\n  dup5\n    /* \"#utility.yul\":2132:2138   */\n  dup5\n    /* \"#utility.yul\":2127:2130   */\n  dup5\n    /* \"#utility.yul\":2123:2139   */\n  add\n    /* \"#utility.yul\":2120:2145   */\n  gt\n    /* \"#utility.yul\":2117:2229   */\n  iszero\n  tag_73\n  jumpi\n    /* \"#utility.yul\":2148:2227   */\n  tag_74\n  tag_13\n  jump\t// in\ntag_74:\n    /* \"#utility.yul\":2117:2229   */\ntag_73:\n    /* \"#utility.yul\":2238:2290   */\n  tag_75\n    /* \"#utility.yul\":2283:2289   */\n  dup5\n    /* \"#utility.yul\":2278:2281   */\n  dup3\n    /* \"#utility.yul\":2273:2276   */\n  dup6\n    /* \"#utility.yul\":2238:2290   */\n  tag_19\n  jump\t// in\ntag_75:\n    /* \"#utility.yul\":1957:2296   */\n  pop\n    /* \"#utility.yul\":1862:2296   */\n  swap4\n  swap3\n  pop\n  pop\n  pop\n  jump\t// out\n    /* \"#utility.yul\":2316:2671   */\ntag_21:\n    /* \"#utility.yul\":2383:2388   */\n  0x00\n    /* \"#utility.yul\":2432:2435   */\n  dup3\n    /* \"#utility.yul\":2425:2429   */\n  0x1f\n    /* \"#utility.yul\":2417:2423   */\n  dup4\n    /* \"#utility.yul\":2413:2430   */\n  add\n    /* \"#utility.yul\":2409:2436   */\n  slt\n    /* \"#utility.yul\":2399:2521   */\n  tag_77\n  jumpi\n    /* \"#utility.yul\":2440:2519   */\n  tag_78\n  tag_12\n  jump\t// in\ntag_78:\n    /* \"#utility.yul\":2399:2521   */\ntag_77:\n    /* \"#utility.yul\":2550:2556   */\n  dup2\n    /* \"#utility.yul\":2544:2557   */\n  mload\n    /* \"#utility.yul\":2575:2665   */\n  tag_79\n    /* \"#utility.yul\":2661:2664   */\n  dup5\n    /* \"#utility.yul\":2653:2659   */\n  dup3\n    /* \"#utility.yul\":2646:2650   */\n  0x20\n    /* \"#utility.yul\":2638:2644   */\n  dup7\n    /* \"#utility.yul\":2634:2651   */\n  add\n    /* \"#utility.yul\":2575:2665   */\n  tag_20\n  jump\t// in\ntag_79:\n    /* \"#utility.yul\":2566:2665   */\n  swap2\n  pop\n    /* \"#utility.yul\":2389:2671   */\n  pop\n    /* \"#utility.yul\":2316:2671   */\n  swap3\n  swap2\n  pop\n  pop\n  jump\t// out\n    /* \"#utility.yul\":2677:2803   */\ntag_22:\n    /* \"#utility.yul\":2714:2721   */\n  0x00\n    /* \"#utility.yul\":2754:2796   */\n  0xffffffffffffffffffffffffffffffffffffffff\n    /* \"#utility.yul\":2747:2752   */\n  dup3\n    /* \"#utility.yul\":2743:2797   */\n  and\n    /* \"#utility.yul\":2732:2797   */\n  swap1\n  pop\n    /* \"#utility.yul\":2677:2803   */\n  swap2\n  swap1\n  pop\n  jump\t// out\n    /* \"#utility.yul\":2809:2905   */\ntag_23:\n    /* \"#utility.yul\":2846:2853   */\n  0x00\n    /* \"#utility.yul\":2875:2899   */\n  tag_82\n    /* \"#utility.yul\":2893:2898   */\n  dup3\n    /* \"#utility.yul\":2875:2899   */\n  tag_22\n  jump\t// in\ntag_82:\n    /* \"#utility.yul\":2864:2899   */\n  swap1\n  pop\n    /* \"#utility.yul\":2809:2905   */\n  swap2\n  swap1\n  pop\n  jump\t// out\n    /* \"#utility.yul\":2911:3033   */\ntag_24:\n    /* \"#utility.yul\":2984:3008   */\n  tag_84\n    /* \"#utility.yul\":3002:3007   */\n  dup2\n    /* \"#utility.yul\":2984:3008   */\n  tag_23\n  jump\t// in\ntag_84:\n    /* \"#utility.yul\":2977:2982   */\n  dup2\n    /* \"#utility.yul\":2974:3009   */\n  eq\n    /* \"#utility.yul\":2964:3027   */\n  tag_85\n  jumpi\n    /* \"#utility.yul\":3023:3024   */\n  0x00\n    /* \"#utility.yul\":3020:3021   */\n  dup1\n    /* \"#utility.yul\":3013:3025   */\n  revert\n    /* \"#utility.yul\":2964:3027   */\ntag_85:\n    /* \"#utility.yul\":2911:3033   */\n  pop\n  jump\t// out\n    /* \"#utility.yul\":3039:3182   */\ntag_25:\n    /* \"#utility.yul\":3096:3101   */\n  0x00\n    /* \"#utility.yul\":3127:3133   */\n  dup2\n    /* \"#utility.yul\":3121:3134   */\n  mload\n    /* \"#utility.yul\":3112:3134   */\n  swap1\n  pop\n    /* \"#utility.yul\":3143:3176   */\n  tag_87\n    /* \"#utility.yul\":3170:3175   */\n  dup2\n    /* \"#utility.yul\":3143:3176   */\n  tag_24\n  jump\t// in\ntag_87:\n    /* \"#utility.yul\":3039:3182   */\n  swap3\n  swap2\n  pop\n  pop\n  jump\t// out\n    /* \"#utility.yul\":3188:3265   */\ntag_26:\n    /* \"#utility.yul\":3225:3232   */\n  0x00\n    /* \"#utility.yul\":3254:3259   */\n  dup2\n    /* \"#utility.yul\":3243:3259   */\n  swap1\n  pop\n    /* \"#utility.yul\":3188:3265   */\n  swap2\n  swap1\n  pop\n  jump\t// out\n    /* \"#utility.yul\":3271:3393   */\ntag_27:\n    /* \"#utility.yul\":3344:3368   */\n  tag_90\n    /* \"#utility.yul\":3362:3367   */\n  dup2\n    /* \"#utility.yul\":3344:3368   */\n  tag_26\n  jump\t// in\ntag_90:\n    /* \"#utility.yul\":3337:3342   */\n  dup2\n    /* \"#utility.yul\":3334:3369   */\n  eq\n    /* \"#utility.yul\":3324:3387   */\n  tag_91\n  jumpi\n    /* \"#utility.yul\":3383:3384   */\n  0x00\n    /* \"#utility.yul\":3380:3381   */\n  dup1\n    /* \"#utility.yul\":3373:3385   */\n  revert\n    /* \"#utility.yul\":3324:3387   */\ntag_91:\n    /* \"#utility.yul\":3271:3393   */\n  pop\n  jump\t// out\n    /* \"#utility.yul\":3399:3542   */\ntag_28:\n    /* \"#utility.yul\":3456:3461   */\n  0x00\n    /* \"#utility.yul\":3487:3493   */\n  dup2\n    /* \"#utility.yul\":3481:3494   */\n  mload\n    /* \"#utility.yul\":3472:3494   */\n  swap1\n  pop\n    /* \"#utility.yul\":3503:3536   */\n  tag_93\n    /* \"#utility.yul\":3530:3535   */\n  dup2\n    /* \"#utility.yul\":3503:3536   */\n  tag_27\n  jump\t// in\ntag_93:\n    /* \"#utility.yul\":3399:3542   */\n  swap3\n  swap2\n  pop\n  pop\n  jump\t// out\n    /* \"#utility.yul\":3548:4541   */\ntag_3:\n    /* \"#utility.yul\":3655:3661   */\n  0x00\n    /* \"#utility.yul\":3663:3669   */\n  dup1\n    /* \"#utility.yul\":3671:3677   */\n  0x00\n    /* \"#utility.yul\":3679:3685   */\n  dup1\n    /* \"#utility.yul\":3728:3731   */\n  0x80\n    /* \"#utility.yul\":3716:3725   */\n  dup6\n    /* \"#utility.yul\":3707:3714   */\n  dup8\n    /* \"#utility.yul\":3703:3726   */\n  sub\n    /* \"#utility.yul\":3699:3732   */\n  slt\n    /* \"#utility.yul\":3696:3816   */\n  iszero\n  tag_95\n  jumpi\n    /* \"#utility.yul\":3735:3814   */\n  tag_96\n  tag_10\n  jump\t// in\ntag_96:\n    /* \"#utility.yul\":3696:3816   */\ntag_95:\n    /* \"#utility.yul\":3876:3877   */\n  0x00\n    /* \"#utility.yul\":3865:3874   */\n  dup6\n    /* \"#utility.yul\":3861:3878   */\n  add\n    /* \"#utility.yul\":3855:3879   */\n  mload\n    /* \"#utility.yul\":3906:3924   */\n  0xffffffffffffffff\n    /* \"#utility.yul\":3898:3904   */\n  dup2\n    /* \"#utility.yul\":3895:3925   */\n  gt\n    /* \"#utility.yul\":3892:4009   */\n  iszero\n  tag_97\n  jumpi\n    /* \"#utility.yul\":3928:4007   */\n  tag_98\n  tag_11\n  jump\t// in\ntag_98:\n    /* \"#utility.yul\":3892:4009   */\ntag_97:\n    /* \"#utility.yul\":4033:4107   */\n  tag_99\n    /* \"#utility.yul\":4099:4106   */\n  dup8\n    /* \"#utility.yul\":4090:4096   */\n  dup3\n    /* \"#utility.yul\":4079:4088   */\n  dup9\n    /* \"#utility.yul\":4075:4097   */\n  add\n    /* \"#utility.yul\":4033:4107   */\n  tag_21\n  jump\t// in\ntag_99:\n    /* \"#utility.yul\":4023:4107   */\n  swap5\n  pop\n    /* \"#utility.yul\":3826:4117   */\n  pop\n    /* \"#utility.yul\":4156:4158   */\n  0x20\n    /* \"#utility.yul\":4182:4246   */\n  tag_100\n    /* \"#utility.yul\":4238:4245   */\n  dup8\n    /* \"#utility.yul\":4229:4235   */\n  dup3\n    /* \"#utility.yul\":4218:4227   */\n  dup9\n    /* \"#utility.yul\":4214:4236   */\n  add\n    /* \"#utility.yul\":4182:4246   */\n  tag_25\n  jump\t// in\ntag_100:\n    /* \"#utility.yul\":4172:4246   */\n  swap4\n  pop\n    /* \"#utility.yul\":4127:4256   */\n  pop\n    /* \"#utility.yul\":4295:4297   */\n  0x40\n    /* \"#utility.yul\":4321:4385   */\n  tag_101\n    /* \"#utility.yul\":4377:4384   */\n  dup8\n    /* \"#utility.yul\":4368:4374   */\n  dup3\n    /* \"#utility.yul\":4357:4366   */\n  dup9\n    /* \"#utility.yul\":4353:4375   */\n  add\n    /* \"#utility.yul\":4321:4385   */\n  tag_28\n  jump\t// in\ntag_101:\n    /* \"#utility.yul\":4311:4385   */\n  swap3\n  pop\n    /* \"#utility.yul\":4266:4395   */\n  pop\n    /* \"#utility.yul\":4434:4436   */\n  0x60\n    /* \"#utility.yul\":4460:4524   */\n  tag_102\n    /* \"#utility.yul\":4516:4523   */\n  dup8\n    /* \"#utility.yul\":4507:4513   */\n  dup3\n    /* \"#utility.yul\":4496:4505   */\n  dup9\n    /* \"#utility.yul\":4492:4514   */\n  add\n    /* \"#utility.yul\":4460:4524   */\n  tag_28\n  jump\t// in\ntag_102:\n    /* \"#utility.yul\":4450:4524   */\n  swap2\n  pop\n    /* \"#utility.yul\":4405:4534   */\n  pop\n    /* \"#utility.yul\":3548:4541   */\n  swap3\n  swap6\n  swap2\n  swap5\n  pop\n  swap3\n  pop\n  jump\t// out\n    /* \"#utility.yul\":4547:4646   */\ntag_29:\n    /* \"#utility.yul\":4599:4605   */\n  0x00\n    /* \"#utility.yul\":4633:4638   */\n  dup2\n    /* \"#utility.yul\":4627:4639   */\n  mload\n    /* \"#utility.yul\":4617:4639   */\n  swap1\n  pop\n    /* \"#utility.yul\":4547:4646   */\n  swap2\n  swap1\n  pop\n  jump\t// out\n    /* \"#utility.yul\":4652:4832   */\ntag_30:\n    /* \"#utility.yul\":4700:4777   */\n  0x4e487b7100000000000000000000000000000000000000000000000000000000\n    /* \"#utility.yul\":4697:4698   */\n  0x00\n    /* \"#utility.yul\":4690:4778   */\n  mstore\n    /* \"#utility.yul\":4797:4801   */\n  0x22\n    /* \"#utility.yul\":4794:4795   */\n  0x04\n    /* \"#utility.yul\":4787:4802   */\n  mstore\n    /* \"#utility.yul\":4821:4825   */\n  0x24\n    /* \"#utility.yul\":4818:4819   */\n  0x00\n    /* \"#utility.yul\":4811:4826   */\n  revert\n    /* \"#utility.yul\":4838:5158   */\ntag_31:\n    /* \"#utility.yul\":4882:4888   */\n  0x00\n    /* \"#utility.yul\":4919:4920   */\n  0x02\n    /* \"#utility.yul\":4913:4917   */\n  dup3\n    /* \"#utility.yul\":4909:4921   */\n  div\n    /* \"#utility.yul\":4899:4921   */\n  swap1\n  pop\n    /* \"#utility.yul\":4966:4967   */\n  0x01\n    /* \"#utility.yul\":4960:4964   */\n  dup3\n    /* \"#utility.yul\":4956:4968   */\n  and\n    /* \"#utility.yul\":4987:5005   */\n  dup1\n    /* \"#utility.yul\":4977:5058   */\n  tag_106\n  jumpi\n    /* \"#utility.yul\":5043:5047   */\n  0x7f\n    /* \"#utility.yul\":5035:5041   */\n  dup3\n    /* \"#utility.yul\":5031:5048   */\n  and\n    /* \"#utility.yul\":5021:5048   */\n  swap2\n  pop\n    /* \"#utility.yul\":4977:5058   */\ntag_106:\n    /* \"#utility.yul\":5105:5107   */\n  0x20\n    /* \"#utility.yul\":5097:5103   */\n  dup3\n    /* \"#utility.yul\":5094:5108   */\n  lt\n    /* \"#utility.yul\":5074:5092   */\n  dup2\n    /* \"#utility.yul\":5071:5109   */\n  sub\n    /* \"#utility.yul\":5068:5152   */\n  tag_107\n  jumpi\n    /* \"#utility.yul\":5124:5142   */\n  tag_108\n  tag_30\n  jump\t// in\ntag_108:\n    /* \"#utility.yul\":5068:5152   */\ntag_107:\n    /* \"#utility.yul\":4889:5158   */\n  pop\n    /* \"#utility.yul\":4838:5158   */\n  swap2\n  swap1\n  pop\n  jump\t// out\n    /* \"#utility.yul\":5164:5305   */\ntag_32:\n    /* \"#utility.yul\":5213:5217   */\n  0x00\n    /* \"#utility.yul\":5236:5239   */\n  dup2\n    /* \"#utility.yul\":5228:5239   */\n  swap1\n  pop\n    /* \"#utility.yul\":5259:5262   */\n  dup2\n    /* \"#utility.yul\":5256:5257   */\n  0x00\n    /* \"#utility.yul\":5249:5263   */\n  mstore\n    /* \"#utility.yul\":5293:5297   */\n  0x20\n    /* \"#utility.yul\":5290:5291   */\n  0x00\n    /* \"#utility.yul\":5280:5298   */\n  keccak256\n    /* \"#utility.yul\":5272:5298   */\n  swap1\n  pop\n    /* \"#utility.yul\":5164:5305   */\n  swap2\n  swap1\n  pop\n  jump\t// out\n    /* \"#utility.yul\":5311:5404   */\ntag_33:\n    /* \"#utility.yul\":5348:5354   */\n  0x00\n    /* \"#utility.yul\":5395:5397   */\n  0x20\n    /* \"#utility.yul\":5390:5392   */\n  0x1f\n    /* \"#utility.yul\":5383:5388   */\n  dup4\n    /* \"#utility.yul\":5379:5393   */\n  add\n    /* \"#utility.yul\":5375:5398   */\n  div\n    /* \"#utility.yul\":5365:5398   */\n  swap1\n  pop\n    /* \"#utility.yul\":5311:5404   */\n  swap2\n  swap1\n  pop\n  jump\t// out\n    /* \"#utility.yul\":5410:5517   */\ntag_34:\n    /* \"#utility.yul\":5454:5462   */\n  0x00\n    /* \"#utility.yul\":5504:5509   */\n  dup3\n    /* \"#utility.yul\":5498:5502   */\n  dup3\n    /* \"#utility.yul\":5494:5510   */\n  shl\n    /* \"#utility.yul\":5473:5510   */\n  swap1\n  pop\n    /* \"#utility.yul\":5410:5517   */\n  swap3\n  swap2\n  pop\n  pop\n  jump\t// out\n    /* \"#utility.yul\":5523:5916   */\ntag_35:\n    /* \"#utility.yul\":5592:5598   */\n  0x00\n    /* \"#utility.yul\":5642:5643   */\n  0x08\n    /* \"#utility.yul\":5630:5640   */\n  dup4\n    /* \"#utility.yul\":5626:5644   */\n  mul\n    /* \"#utility.yul\":5665:5762   */\n  tag_113\n    /* \"#utility.yul\":5695:5761   */\n  0xffffffffffffffffffffffffffffffffffffffffffffffffffffffffffffffff\n    /* \"#utility.yul\":5684:5693   */\n  dup3\n    /* \"#utility.yul\":5665:5762   */\n  tag_34\n  jump\t// in\ntag_113:\n    /* \"#utility.yul\":5783:5822   */\n  tag_114\n    /* \"#utility.yul\":5813:5821   */\n  dup7\n    /* \"#utility.yul\":5802:5811   */\n  dup4\n    /* \"#utility.yul\":5783:5822   */\n  tag_34\n  jump\t// in\ntag_114:\n    /* \"#utility.yul\":5771:5822   */\n  swap6\n  pop\n    /* \"#utility.yul\":5855:5859   */\n  dup1\n    /* \"#utility.yul\":5851:5860   */\n  not\n    /* \"#utility.yul\":5844:5849   */\n  dup5\n    /* \"#utility.yul\":5840:5861   */\n  and\n    /* \"#utility.yul\":5831:5861   */\n  swap4\n  pop\n    /* \"#utility.yul\":5904:5908   */\n  dup1\n    /* \"#utility.yul\":5894:5902   */\n  dup7\n    /* \"#utility.yul\":5890:5909   */\n  and\n    /* \"#utility.yul\":5883:5888   */\n  dup5\n    /* \"#utility.yul\":5880:5910   */\n  or\n    /* \"#utility.yul\":5870:5910   */\n  swap3\n  pop\n    /* \"#utility.yul\":5599:5916   */\n  pop\n  pop\n    /* \"#utility.yul\":5523:5916   */\n  swap4\n  swap3\n  pop\n  pop\n  pop\n  jump\t// out\n    /* \"#utility.yul\":5922:5982   */\ntag_36:\n    /* \"#utility.yul\":5950:5953   */\n  0x00\n    /* \"#utility.yul\":5971:5976   */\n  dup2\n    /* \"#utility.yul\":5964:5976   */\n  swap1\n  pop\n    /* \"#utility.yul\":5922:5982   */\n  swap2\n  swap1\n  pop\n  jump\t// out\n    /* \"#utility.yul\":5988:6130   */\ntag_37:\n    /* \"#utility.yul\":6038:6047   */\n  0x00\n    /* \"#utility.yul\":6071:6124   */\n  tag_117\n    /* \"#utility.yul\":6089:6123   */\n  tag_118\n    /* \"#utility.yul\":6098:6122   */\n  tag_119\n    /* \"#utility.yul\":6116:6121   */\n  dup5\n    /* \"#utility.yul\":6098:6122   */\n  tag_26\n  jump\t// in\ntag_119:\n    /* \"#utility.yul\":6089:6123   */\n  tag_36\n  jump\t// in\ntag_118:\n    /* \"#utility.yul\":6071:6124   */\n  tag_26\n  jump\t// in\ntag_117:\n    /* \"#utility.yul\":6058:6124   */\n  swap1\n  pop\n    /* \"#utility.yul\":5988:6130   */\n  swap2\n  swap1\n  pop\n  jump\t// out\n    /* \"#utility.yul\":6136:6211   */\ntag_38:\n    /* \"#utility.yul\":6179:6182   */\n  0x00\n    /* \"#utility.yul\":6200:6205   */\n  dup2\n    /* \"#utility.yul\":6193:6205   */\n  swap1\n  pop\n    /* \"#utility.yul\":6136:6211   */\n  swap2\n  swap1\n  pop\n  jump\t// out\n    /* \"#utility.yul\":6217:6486   */\ntag_39:\n    /* \"#utility.yul\":6327:6366   */\n  tag_122\n    /* \"#utility.yul\":6358:6365   */\n  dup4\n    /* \"#utility.yul\":6327:6366   */\n  tag_37\n  jump\t// in\ntag_122:\n    /* \"#utility.yul\":6388:6479   */\n  tag_123\n    /* \"#utility.yul\":6437:6478   */\n  tag_124\n    /* \"#utility.yul\":6461:6477   */\n  dup3\n    /* \"#utility.yul\":6437:6478   */\n  tag_38\n  jump\t// in\ntag_124:\n    /* \"#utility.yul\":6429:6435   */\n  dup5\n    /* \"#utility.yul\":6422:6426   */\n  dup5\n    /* \"#utility.yul\":6416:6427   */\n  sload\n    /* \"#utility.yul\":6388:6479   */\n  tag_35\n  jump\t// in\ntag_123:\n    /* \"#utility.yul\":6382:6386   */\n  dup3\n    /* \"#utility.yul\":6375:6480   */\n  sstore\n    /* \"#utility.yul\":6293:6486   */\n  pop\n    /* \"#utility.yul\":6217:6486   */\n  pop\n  pop\n  pop\n  jump\t// out\n    /* \"#utility.yul\":6492:6565   */\ntag_40:\n    /* \"#utility.yul\":6537:6540   */\n  0x00\n    /* \"#utility.yul\":6492:6565   */\n  swap1\n  jump\t// out\n    /* \"#utility.yul\":6571:6760   */\ntag_41:\n    /* \"#utility.yul\":6648:6680   */\n  tag_127\n  tag_40\n  jump\t// in\ntag_127:\n    /* \"#utility.yul\":6689:6754   */\n  tag_128\n    /* \"#utility.yul\":6747:6753   */\n  dup2\n    /* \"#utility.yul\":6739:6745   */\n  dup5\n    /* \"#utility.yul\":6733:6737   */\n  dup5\n    /* \"#utility.yul\":6689:6754   */\n  tag_39\n  jump\t// in\ntag_128:\n    /* \"#utility.yul\":6624:6760   */\n  pop\n    /* \"#utility.yul\":6571:6760   */\n  pop\n  pop\n  jump\t// out\n    /* \"#utility.yul\":6766:6952   */\ntag_42:\n    /* \"#utility.yul\":6826:6946   */\ntag_130:\n    /* \"#utility.yul\":6843:6846   */\n  dup2\n    /* \"#utility.yul\":6836:6841   */\n  dup2\n    /* \"#utility.yul\":6833:6847   */\n  lt\n    /* \"#utility.yul\":6826:6946   */\n  iszero\n  tag_132\n  jumpi\n    /* \"#utility.yul\":6897:6936   */\n  tag_133\n    /* \"#utility.yul\":6934:6935   */\n  0x00\n    /* \"#utility.yul\":6927:6932   */\n  dup3\n    /* \"#utility.yul\":6897:6936   */\n  tag_41\n  jump\t// in\ntag_133:\n    /* \"#utility.yul\":6870:6871   */\n  0x01\n    /* \"#utility.yul\":6863:6868   */\n  dup2\n    /* \"#utility.yul\":6859:6872   */\n  add\n    /* \"#utility.yul\":6850:6872   */\n  swap1\n  pop\n    /* \"#utility.yul\":6826:6946   */\n  jump(tag_130)\ntag_132:\n    /* \"#utility.yul\":6766:6952   */\n  pop\n  pop\n  jump\t// out\n    /* \"#utility.yul\":6958:7501   */\ntag_43:\n    /* \"#utility.yul\":7059:7061   */\n  0x1f\n    /* \"#utility.yul\":7054:7057   */\n  dup3\n    /* \"#utility.yul\":7051:7062   */\n  gt\n    /* \"#utility.yul\":7048:7494   */\n  iszero\n  tag_135\n  jumpi\n    /* \"#utility.yul\":7093:7131   */\n  tag_136\n    /* \"#utility.yul\":7125:7130   */\n  dup2\n    /* \"#utility.yul\":7093:7131   */\n  tag_32\n  jump\t// in\ntag_136:\n    /* \"#utility.yul\":7177:7206   */\n  tag_137\n    /* \"#utility.yul\":7195:7205   */\n  dup5\n    /* \"#utility.yul\":7177:7206   */\n  tag_33\n  jump\t// in\ntag_137:\n    /* \"#utility.yul\":7167:7175   */\n  dup2\n    /* \"#utility.yul\":7163:7207   */\n  add\n    /* \"#utility.yul\":7360:7362   */\n  0x20\n    /* \"#utility.yul\":7348:7358   */\n  dup6\n    /* \"#utility.yul\":7345:7363   */\n  lt\n    /* \"#utility.yul\":7342:7391   */\n  iszero\n  tag_138\n  jumpi\n    /* \"#utility.yul\":7381:7389   */\n  dup2\n    /* \"#utility.yul\":7366:7389   */\n  swap1\n  pop\n    /* \"#utility.yul\":7342:7391   */\ntag_138:\n    /* \"#utility.yul\":7404:7484   */\n  tag_139\n    /* \"#utility.yul\":7460:7482   */\n  tag_140\n    /* \"#utility.yul\":7478:7481   */\n  dup6\n    /* \"#utility.yul\":7460:7482   */\n  tag_33\n  jump\t// in\ntag_140:\n    /* \"#utility.yul\":7450:7458   */\n  dup4\n    /* \"#utility.yul\":7446:7483   */\n  add\n    /* \"#utility.yul\":7433:7444   */\n  dup3\n    /* \"#utility.yul\":7404:7484   */\n  tag_42\n  jump\t// in\ntag_139:\n    /* \"#utility.yul\":7063:7494   */\n  pop\n  pop\n    /* \"#utility.yul\":7048:7494   */\ntag_135:\n    /* \"#utility.yul\":6958:7501   */\n  pop\n  pop\n  pop\n  jump\t// out\n    /* \"#utility.yul\":7507:7624   */\ntag_44:\n    /* \"#utility.yul\":7561:7569   */\n  0x00\n    /* \"#utility.yul\":7611:7616   */\n  dup3\n    /* \"#utility.yul\":7605:7609   */\n  dup3\n    /* \"#utility.yul\":7601:7617   */\n  shr\n    /* \"#utility.yul\":7580:7617   */\n  swap1\n  pop\n    /* \"#utility.yul\":7507:7624   */\n  swap3\n  swap2\n  pop\n  pop\n  jump\t// out\n    /* \"#utility.yul\":7630:7799   */\ntag_45:\n    /* \"#utility.yul\":7674:7680   */\n  0x00\n    /* \"#utility.yul\":7707:7758   */\n  tag_143\n    /* \"#utility.yul\":7755:7756   */\n  0x00\n    /* \"#utility.yul\":7751:7757   */\n  not\n    /* \"#utility.yul\":7743:7748   */\n  dup5\n    /* \"#utility.yul\":7740:7741   */\n  0x08\n    /* \"#utility.yul\":7736:7749   */\n  mul\n    /* \"#utility.yul\":7707:7758   */\n  tag_44\n  jump\t// in\ntag_143:\n    /* \"#utility.yul\":7703:7759   */\n  not\n    /* \"#utility.yul\":7788:7792   */\n  dup1\n    /* \"#utility.yul\":7782:7786   */\n  dup4\n    /* \"#utility.yul\":7778:7793   */\n  and\n    /* \"#utility.yul\":7768:7793   */\n  swap2\n  pop\n    /* \"#utility.yul\":7681:7799   */\n  pop\n    /* \"#utility.yul\":7630:7799   */\n  swap3\n  swap2\n  pop\n  pop\n  jump\t// out\n    /* \"#utility.yul\":7804:8099   */\ntag_46:\n    /* \"#utility.yul\":7880:7884   */\n  0x00\n    /* \"#utility.yul\":8026:8055   */\n  tag_145\n    /* \"#utility.yul\":8051:8054   */\n  dup4\n    /* \"#utility.yul\":8045:8049   */\n  dup4\n    /* \"#utility.yul\":8026:8055   */\n  tag_45\n  jump\t// in\ntag_145:\n    /* \"#utility.yul\":8018:8055   */\n  swap2\n  pop\n    /* \"#utility.yul\":8088:8091   */\n  dup3\n    /* \"#utility.yul\":8085:8086   */\n  0x02\n    /* \"#utility.yul\":8081:8092   */\n  mul\n    /* \"#utility.yul\":8075:8079   */\n  dup3\n    /* \"#utility.yul\":8072:8093   */\n  or\n    /* \"#utility.yul\":8064:8093   */\n  swap1\n  pop\n    /* \"#utility.yul\":7804:8099   */\n  swap3\n  swap2\n  pop\n  pop\n  jump\t// out\n    /* \"#utility.yul\":8104:9499   */\ntag_7:\n    /* \"#utility.yul\":8221:8258   */\n  tag_147\n    /* \"#utility.yul\":8254:8257   */\n  dup3\n    /* \"#utility.yul\":8221:8258   */\n  tag_29\n  jump\t// in\ntag_147:\n    /* \"#utility.yul\":8323:8341   */\n  0xffffffffffffffff\n    /* \"#utility.yul\":8315:8321   */\n  dup2\n    /* \"#utility.yul\":8312:8342   */\n  gt\n    /* \"#utility.yul\":8309:8365   */\n  iszero\n  tag_148\n  jumpi\n    /* \"#utility.yul\":8345:8363   */\n  tag_149\n  tag_15\n  jump\t// in\ntag_149:\n    /* \"#utility.yul\":8309:8365   */\ntag_148:\n    /* \"#utility.yul\":8389:8427   */\n  tag_150\n    /* \"#utility.yul\":8421:8425   */\n  dup3\n    /* \"#utility.yul\":8415:8426   */\n  sload\n    /* \"#utility.yul\":8389:8427   */\n  tag_31\n  jump\t// in\ntag_150:\n    /* \"#utility.yul\":8474:8541   */\n  tag_151\n    /* \"#utility.yul\":8534:8540   */\n  dup3\n    /* \"#utility.yul\":8526:8532   */\n  dup3\n    /* \"#utility.yul\":8520:8524   */\n  dup6\n    /* \"#utility.yul\":8474:8541   */\n  tag_43\n  jump\t// in\ntag_151:\n    /* \"#utility.yul\":8568:8569   */\n  0x00\n    /* \"#utility.yul\":8592:8596   */\n  0x20\n    /* \"#utility.yul\":8579:8596   */\n  swap1\n  pop\n    /* \"#utility.yul\":8624:8626   */\n  0x1f\n    /* \"#utility.yul\":8616:8622   */\n  dup4\n    /* \"#utility.yul\":8613:8627   */\n  gt\n    /* \"#utility.yul\":8641:8642   */\n  0x01\n    /* \"#utility.yul\":8636:9254   */\n  dup2\n  eq\n  tag_153\n  jumpi\n    /* \"#utility.yul\":9298:9299   */\n  0x00\n    /* \"#utility.yul\":9315:9321   */\n  dup5\n    /* \"#utility.yul\":9312:9389   */\n  iszero\n  tag_154\n  jumpi\n    /* \"#utility.yul\":9364:9373   */\n  dup3\n    /* \"#utility.yul\":9359:9362   */\n  dup8\n    /* \"#utility.yul\":9355:9374   */\n  add\n    /* \"#utility.yul\":9349:9375   */\n  mload\n    /* \"#utility.yul\":9340:9375   */\n  swap1\n  pop\n    /* \"#utility.yul\":9312:9389   */\ntag_154:\n    /* \"#utility.yul\":9415:9482   */\n  tag_155\n    /* \"#utility.yul\":9475:9481   */\n  dup6\n    /* \"#utility.yul\":9468:9473   */\n  dup3\n    /* \"#utility.yul\":9415:9482   */\n  tag_46\n  jump\t// in\ntag_155:\n    /* \"#utility.yul\":9409:9413   */\n  dup7\n    /* \"#utility.yul\":9402:9483   */\n  sstore\n    /* \"#utility.yul\":9271:9493   */\n  pop\n    /* \"#utility.yul\":8606:9493   */\n  jump(tag_152)\n    /* \"#utility.yul\":8636:9254   */\ntag_153:\n    /* \"#utility.yul\":8688:8692   */\n  0x1f\n    /* \"#utility.yul\":8684:8693   */\n  not\n    /* \"#utility.yul\":8676:8682   */\n  dup5\n    /* \"#utility.yul\":8672:8694   */\n  and\n    /* \"#utility.yul\":8722:8759   */\n  tag_156\n    /* \"#utility.yul\":8754:8758   */\n  dup7\n    /* \"#utility.yul\":8722:8759   */\n  tag_32\n  jump\t// in\ntag_156:\n    /* \"#utility.yul\":8781:8782   */\n  0x00\n    /* \"#utility.yul\":8795:9003   */\ntag_157:\n    /* \"#utility.yul\":8809:8816   */\n  dup3\n    /* \"#utility.yul\":8806:8807   */\n  dup2\n    /* \"#utility.yul\":8803:8817   */\n  lt\n    /* \"#utility.yul\":8795:9003   */\n  iszero\n  tag_159\n  jumpi\n    /* \"#utility.yul\":8888:8897   */\n  dup5\n    /* \"#utility.yul\":8883:8886   */\n  dup10\n    /* \"#utility.yul\":8879:8898   */\n  add\n    /* \"#utility.yul\":8873:8899   */\n  mload\n    /* \"#utility.yul\":8865:8871   */\n  dup3\n    /* \"#utility.yul\":8858:8900   */\n  sstore\n    /* \"#utility.yul\":8939:8940   */\n  0x01\n    /* \"#utility.yul\":8931:8937   */\n  dup3\n    /* \"#utility.yul\":8927:8941   */\n  add\n    /* \"#utility.yul\":8917:8941   */\n  swap2\n  pop\n    /* \"#utility.yul\":8986:8988   */\n  0x20\n    /* \"#utility.yul\":8975:8984   */\n  dup6\n    /* \"#utility.yul\":8971:8989   */\n  add\n    /* \"#utility.yul\":8958:8989   */\n  swap5\n  pop\n    /* \"#utility.yul\":8832:8836   */\n  0x20\n    /* \"#utility.yul\":8829:8830   */\n  dup2\n    /* \"#utility.yul\":8825:8837   */\n  add\n    /* \"#utility.yul\":8820:8837   */\n  swap1\n  pop\n    /* \"#utility.yul\":8795:9003   */\n  jump(tag_157)\ntag_159:\n    /* \"#utility.yul\":9031:9037   */\n  dup7\n    /* \"#utility.yul\":9022:9029   */\n  dup4\n    /* \"#utility.yul\":9019:9038   */\n  lt\n    /* \"#utility.yul\":9016:9195   */\n  iszero\n  tag_160\n  jumpi\n    /* \"#utility.yul\":9089:9098   */\n  dup5\n    /* \"#utility.yul\":9084:9087   */\n  dup10\n    /* \"#utility.yul\":9080:9099   */\n  add\n    /* \"#utility.yul\":9074:9100   */\n  mload\n    /* \"#utility.yul\":9132:9180   */\n  tag_161\n    /* \"#utility.yul\":9174:9178   */\n  0x1f\n    /* \"#utility.yul\":9166:9172   */\n  dup10\n    /* \"#utility.yul\":9162:9179   */\n  and\n    /* \"#utility.yul\":9151:9160   */\n  dup3\n    /* \"#utility.yul\":9132:9180   */\n  tag_45\n  jump\t// in\ntag_161:\n    /* \"#utility.yul\":9124:9130   */\n  dup4\n    /* \"#utility.yul\":9117:9181   */\n  sstore\n    /* \"#utility.yul\":9039:9195   */\n  pop\n    /* \"#utility.yul\":9016:9195   */\ntag_160:\n    /* \"#utility.yul\":9241:9242   */\n  0x01\n    /* \"#utility.yul\":9237:9238   */\n  0x02\n    /* \"#utility.yul\":9229:9235   */\n  dup9\n    /* \"#utility.yul\":9225:9239   */\n  mul\n    /* \"#utility.yul\":9221:9243   */\n  add\n    /* \"#utility.yul\":9215:9219   */\n  dup9\n    /* \"#utility.yul\":9208:9244   */\n  sstore\n    /* \"#utility.yul\":8643:9254   */\n  pop\n  pop\n  pop\n    /* \"#utility.yul\":8606:9493   */\ntag_152:\n  pop\n    /* \"#utility.yul\":8196:9499   */\n  pop\n  pop\n  pop\n    /* \"#utility.yul\":8104:9499   */\n  pop\n  pop\n  jump\t// out\n    /* \"pamilern_test.sol\":58:1445  contract AnotherTrest {... */\ntag_8:\n  dataSize(sub_0)\n  dup1\n  dataOffset(sub_0)\n  0x00\n  codecopy\n  0x00\n  return\nstop\n\nsub_0: assembly {\n        /* \"pamilern_test.sol\":58:1445  contract AnotherTrest {... */\n      mstore(0x40, 0x80)\n      callvalue\n      dup1\n      iszero\n      tag_1\n      jumpi\n      0x00\n      dup1\n      revert\n    tag_1:\n      pop\n      jumpi(tag_2, lt(calldatasize, 0x04))\n      shr(0xe0, calldataload(0x00))\n      dup1\n      0x89667fe6\n      gt\n      tag_10\n      jumpi\n      dup1\n      0x89667fe6\n      eq\n      tag_6\n      jumpi\n      dup1\n      0xa16ed288\n      eq\n      tag_7\n      jumpi\n      dup1\n      0xb96fe62f\n      eq\n      tag_8\n      jumpi\n      dup1\n      0xc3a9b1c5\n      eq\n      tag_9\n      jumpi\n      jump(tag_2)\n    tag_10:\n      dup1\n      0x0643b16b\n      eq\n      tag_3\n      jumpi\n      dup1\n      0x20ea1356\n      eq\n      tag_4\n      jumpi\n      dup1\n      0x7a24a180\n      eq\n      tag_5\n      jumpi\n    tag_2:\n      0x00\n      dup1\n      revert\n        /* \"pamilern_test.sol\":594:676  function getNoWeeks() public view returns(uint256){... */\n    tag_3:\n      tag_11\n      tag_12\n      jump\t// in\n    tag_11:\n      mload(0x40)\n      tag_13\n      swap2\n      swap1\n      tag_14\n      jump\t// in\n    tag_13:\n      mload(0x40)\n      dup1\n      swap2\n      sub\n      swap1\n      return\n        /* \"pamilern_test.sol\":682:813  function updateNoWeeks(uint256 _new_weeks) public  returns(uint256) {... */\n    tag_4:\n      tag_15\n      0x04\n      dup1\n      calldatasize\n      sub\n      dup2\n      add\n      swap1\n      tag_16\n      swap2\n      swap1\n      tag_17\n      jump\t// in\n    tag_16:\n      tag_18\n      jump\t// in\n    tag_15:\n      mload(0x40)\n      tag_19\n      swap2\n      swap1\n      tag_14\n      jump\t// in\n    tag_19:\n      mload(0x40)\n      dup1\n      swap2\n      sub\n      swap1\n      return\n        /* \"pamilern_test.sol\":950:1119  function updateCreatorName(string memory _new_creator_name) public  returns(string memory) {... */\n    tag_5:\n      tag_20\n      0x04\n      dup1\n      calldatasize\n      sub\n      dup2\n      add\n      swap1\n      tag_21\n      swap2\n      swap1\n      tag_22\n      jump\t// in\n    tag_21:\n      tag_23\n      jump\t// in\n    tag_20:\n      mload(0x40)\n      tag_24\n      swap2\n      swap1\n      tag_25\n      jump\t// in\n    tag_24:\n      mload(0x40)\n      dup1\n      swap2\n      sub\n      swap1\n      return\n        /* \"pamilern_test.sol\":507:588  function getNoDays() public view returns(uint256) {... */\n    tag_6:\n      tag_26\n      tag_27\n      jump\t// in\n    tag_26:\n      mload(0x40)\n      tag_28\n      swap2\n      swap1\n      tag_14\n      jump\t// in\n    tag_28:\n      mload(0x40)\n      dup1\n      swap2\n      sub\n      swap1\n      return\n        /* \"pamilern_test.sol\":1125:1295  function updateCreatoAddress(address _new_creator_address) public returns(address) {... */\n    tag_7:\n      tag_29\n      0x04\n      dup1\n      calldatasize\n      sub\n      dup2\n      add\n      swap1\n      tag_30\n      swap2\n      swap1\n      tag_31\n      jump\t// in\n    tag_30:\n      tag_32\n      jump\t// in\n    tag_29:\n      mload(0x40)\n      tag_33\n      swap2\n      swap1\n      tag_34\n      jump\t// in\n    tag_33:\n      mload(0x40)\n      dup1\n      swap2\n      sub\n      swap1\n      return\n        /* \"pamilern_test.sol\":819:944  function updateNoDays(uint256 _new_days) public returns(uint256) {... */\n    tag_8:\n      tag_35\n      0x04\n      dup1\n      calldatasize\n      sub\n      dup2\n      add\n      swap1\n      tag_36\n      swap2\n      swap1\n      tag_17\n      jump\t// in\n    tag_36:\n      tag_37\n      jump\t// in\n    tag_35:\n      mload(0x40)\n      tag_38\n      swap2\n      swap1\n      tag_14\n      jump\t// in\n    tag_38:\n      mload(0x40)\n      dup1\n      swap2\n      sub\n      swap1\n      return\n        /* \"pamilern_test.sol\":1301:1440  function sayHello(string memory _user_word)  public pure returns(string memory) {... */\n    tag_9:\n      tag_39\n      0x04\n      dup1\n      calldatasize\n      sub\n      dup2\n      add\n      swap1\n      tag_40\n      swap2\n      swap1\n      tag_22\n      jump\t// in\n    tag_40:\n      tag_41\n      jump\t// in\n    tag_39:\n      mload(0x40)\n      tag_42\n      swap2\n      swap1\n      tag_25\n      jump\t// in\n    tag_42:\n      mload(0x40)\n      dup1\n      swap2\n      sub\n      swap1\n      return\n        /* \"pamilern_test.sol\":594:676  function getNoWeeks() public view returns(uint256){... */\n    tag_12:\n        /* \"pamilern_test.sol\":636:643  uint256 */\n      0x00\n        /* \"pamilern_test.sol\":661:669  no_weeks */\n      sload(0x01)\n        /* \"pamilern_test.sol\":654:669  return no_weeks */\n      swap1\n      pop\n        /* \"pamilern_test.sol\":594:676  function getNoWeeks() public view returns(uint256){... */\n      swap1\n      jump\t// out\n        /* \"pamilern_test.sol\":682:813  function updateNoWeeks(uint256 _new_weeks) public  returns(uint256) {... */\n    tag_18:\n        /* \"pamilern_test.sol\":741:748  uint256 */\n      0x00\n        /* \"pamilern_test.sol\":771:781  _new_weeks */\n      dup2\n        /* \"pamilern_test.sol\":760:768  no_weeks */\n      0x01\n        /* \"pamilern_test.sol\":760:781  no_weeks = _new_weeks */\n      dup2\n      swap1\n      sstore\n      pop\n        /* \"pamilern_test.sol\":798:806  no_weeks */\n      sload(0x01)\n        /* \"pamilern_test.sol\":791:806  return no_weeks */\n      swap1\n      pop\n        /* \"pamilern_test.sol\":682:813  function updateNoWeeks(uint256 _new_weeks) public  returns(uint256) {... */\n      swap2\n      swap1\n      pop\n      jump\t// out\n        /* \"pamilern_test.sol\":950:1119  function updateCreatorName(string memory _new_creator_name) public  returns(string memory) {... */\n    tag_23:\n        /* \"pamilern_test.sol\":1026:1039  string memory */\n      0x60\n        /* \"pamilern_test.sol\":1066:1083  _new_creator_name */\n      dup2\n        /* \"pamilern_test.sol\":1051:1063  creator_name */\n      0x02\n        /* \"pamilern_test.sol\":1051:1083  creator_name = _new_creator_name */\n      swap1\n      dup2\n      tag_46\n      swap2\n      swap1\n      tag_47\n      jump\t// in\n    tag_46:\n      pop\n        /* \"pamilern_test.sol\":1100:1112  creator_name */\n      0x02\n        /* \"pamilern_test.sol\":1093:1112  return creator_name */\n      dup1\n      sload\n      tag_48\n      swap1\n      tag_49\n      jump\t// in\n    tag_48:\n      dup1\n      0x1f\n      add\n      0x20\n      dup1\n      swap2\n      div\n      mul\n      0x20\n      add\n      mload(0x40)\n      swap1\n      dup2\n      add\n      0x40\n      mstore\n      dup1\n      swap3\n      swap2\n      swap1\n      dup2\n      dup2\n      mstore\n      0x20\n      add\n      dup3\n      dup1\n      sload\n      tag_50\n      swap1\n      tag_49\n      jump\t// in\n    tag_50:\n      dup1\n      iszero\n      tag_51\n      jumpi\n      dup1\n      0x1f\n      lt\n      tag_52\n      jumpi\n      0x0100\n      dup1\n      dup4\n      sload\n      div\n      mul\n      dup4\n      mstore\n      swap2\n      0x20\n      add\n      swap2\n      jump(tag_51)\n    tag_52:\n      dup3\n      add\n      swap2\n      swap1\n      0x00\n      mstore\n      keccak256(0x00, 0x20)\n      swap1\n    tag_53:\n      dup2\n      sload\n      dup2\n      mstore\n      swap1\n      0x01\n      add\n      swap1\n      0x20\n      add\n      dup1\n      dup4\n      gt\n      tag_53\n      jumpi\n      dup3\n      swap1\n      sub\n      0x1f\n      and\n      dup3\n      add\n      swap2\n    tag_51:\n      pop\n      pop\n      pop\n      pop\n      pop\n      swap1\n      pop\n        /* \"pamilern_test.sol\":950:1119  function updateCreatorName(string memory _new_creator_name) public  returns(string memory) {... */\n      swap2\n      swap1\n      pop\n      jump\t// out\n        /* \"pamilern_test.sol\":507:588  function getNoDays() public view returns(uint256) {... */\n    tag_27:\n        /* \"pamilern_test.sol\":548:555  uint256 */\n      0x00\n        /* \"pamilern_test.sol\":574:581  no_days */\n      dup1\n      sload\n        /* \"pamilern_test.sol\":567:581  return no_days */\n      swap1\n      pop\n        /* \"pamilern_test.sol\":507:588  function getNoDays() public view returns(uint256) {... */\n      swap1\n      jump\t// out\n        /* \"pamilern_test.sol\":1125:1295  function updateCreatoAddress(address _new_creator_address) public returns(address) {... */\n    tag_32:\n        /* \"pamilern_test.sol\":1199:1206  address */\n      0x00\n        /* \"pamilern_test.sol\":1236:1256  _new_creator_address */\n      dup2\n        /* \"pamilern_test.sol\":1218:1233  creator_address */\n      0x03\n      0x00\n        /* \"pamilern_test.sol\":1218:1256  creator_address = _new_creator_address */\n      0x0100\n      exp\n      dup2\n      sload\n      dup2\n      0xffffffffffffffffffffffffffffffffffffffff\n      mul\n      not\n      and\n      swap1\n      dup4\n      0xffffffffffffffffffffffffffffffffffffffff\n      and\n      mul\n      or\n      swap1\n      sstore\n      pop\n        /* \"pamilern_test.sol\":1273:1288  creator_address */\n      0x03\n      0x00\n      swap1\n      sload\n      swap1\n      0x0100\n      exp\n      swap1\n      div\n      0xffffffffffffffffffffffffffffffffffffffff\n      and\n        /* \"pamilern_test.sol\":1266:1288  return creator_address */\n      swap1\n      pop\n        /* \"pamilern_test.sol\":1125:1295  function updateCreatoAddress(address _new_creator_address) public returns(address) {... */\n      swap2\n      swap1\n      pop\n      jump\t// out\n        /* \"pamilern_test.sol\":819:944  function updateNoDays(uint256 _new_days) public returns(uint256) {... */\n    tag_37:\n        /* \"pamilern_test.sol\":875:882  uint256 */\n      0x00\n        /* \"pamilern_test.sol\":904:913  _new_days */\n      dup2\n        /* \"pamilern_test.sol\":894:901  no_days */\n      0x00\n        /* \"pamilern_test.sol\":894:913  no_days = _new_days */\n      dup2\n      swap1\n      sstore\n      pop\n        /* \"pamilern_test.sol\":930:937  no_days */\n      sload(0x00)\n        /* \"pamilern_test.sol\":923:937  return no_days */\n      swap1\n      pop\n        /* \"pamilern_test.sol\":819:944  function updateNoDays(uint256 _new_days) public returns(uint256) {... */\n      swap2\n      swap1\n      pop\n      jump\t// out\n        /* \"pamilern_test.sol\":1301:1440  function sayHello(string memory _user_word)  public pure returns(string memory) {... */\n    tag_41:\n        /* \"pamilern_test.sol\":1366:1379  string memory */\n      0x60\n        /* \"pamilern_test.sol\":1422:1432  _user_word */\n      dup2\n        /* \"pamilern_test.sol\":1398:1433  string.concat(\"Hello \", _user_word) */\n      add(0x20, mload(0x40))\n      tag_58\n      swap2\n      swap1\n      tag_59\n      jump\t// in\n    tag_58:\n      mload(0x40)\n      0x20\n      dup2\n      dup4\n      sub\n      sub\n      dup2\n      mstore\n      swap1\n      0x40\n      mstore\n        /* \"pamilern_test.sol\":1391:1433  return string.concat(\"Hello \", _user_word) */\n      swap1\n      pop\n        /* \"pamilern_test.sol\":1301:1440  function sayHello(string memory _user_word)  public pure returns(string memory) {... */\n      swap2\n      swap1\n      pop\n      jump\t// out\n        /* \"#utility.yul\":7:84   */\n    tag_60:\n        /* \"#utility.yul\":44:51   */\n      0x00\n        /* \"#utility.yul\":73:78   */\n      dup2\n        /* \"#utility.yul\":62:78   */\n      swap1\n      pop\n        /* \"#utility.yul\":7:84   */\n      swap2\n      swap1\n      pop\n      jump\t// out\n        /* \"#utility.yul\":90:208   */\n    tag_61:\n        /* \"#utility.yul\":177:201   */\n      tag_108\n        /* \"#utility.yul\":195:200   */\n      dup2\n        /* \"#utility.yul\":177:201   */\n      tag_60\n      jump\t// in\n    tag_108:\n        /* \"#utility.yul\":172:175   */\n      dup3\n        /* \"#utility.yul\":165:202   */\n      mstore\n        /* \"#utility.yul\":90:208   */\n      pop\n      pop\n      jump\t// out\n        /* \"#utility.yul\":214:436   */\n    tag_14:\n        /* \"#utility.yul\":307:311   */\n      0x00\n        /* \"#utility.yul\":345:347   */\n      0x20\n        /* \"#utility.yul\":334:343   */\n      dup3\n        /* \"#utility.yul\":330:348   */\n      add\n        /* \"#utility.yul\":322:348   */\n      swap1\n      pop\n        /* \"#utility.yul\":358:429   */\n      tag_110\n        /* \"#utility.yul\":426:427   */\n      0x00\n        /* \"#utility.yul\":415:424   */\n      dup4\n        /* \"#utility.yul\":411:428   */\n      add\n        /* \"#utility.yul\":402:408   */\n      dup5\n        /* \"#utility.yul\":358:429   */\n      tag_61\n      jump\t// in\n    tag_110:\n        /* \"#utility.yul\":214:436   */\n      swap3\n      swap2\n      pop\n      pop\n      jump\t// out\n        /* \"#utility.yul\":442:517   */\n    tag_62:\n        /* \"#utility.yul\":475:481   */\n      0x00\n        /* \"#utility.yul\":508:510   */\n      0x40\n        /* \"#utility.yul\":502:511   */\n      mload\n        /* \"#utility.yul\":492:511   */\n      swap1\n      pop\n        /* \"#utility.yul\":442:517   */\n      swap1\n      jump\t// out\n        /* \"#utility.yul\":523:640   */\n    tag_63:\n        /* \"#utility.yul\":632:633   */\n      0x00\n        /* \"#utility.yul\":629:630   */\n      dup1\n        /* \"#utility.yul\":622:634   */\n      revert\n        /* \"#utility.yul\":646:763   */\n    tag_64:\n        /* \"#utility.yul\":755:756   */\n      0x00\n        /* \"#utility.yul\":752:753   */\n      dup1\n        /* \"#utility.yul\":745:757   */\n      revert\n        /* \"#utility.yul\":769:891   */\n    tag_65:\n        /* \"#utility.yul\":842:866   */\n      tag_115\n        /* \"#utility.yul\":860:865   */\n      dup2\n        /* \"#utility.yul\":842:866   */\n      tag_60\n      jump\t// in\n    tag_115:\n        /* \"#utility.yul\":835:840   */\n      dup2\n        /* \"#utility.yul\":832:867   */\n      eq\n        /* \"#utility.yul\":822:885   */\n      tag_116\n      jumpi\n        /* \"#utility.yul\":881:882   */\n      0x00\n        /* \"#utility.yul\":878:879   */\n      dup1\n        /* \"#utility.yul\":871:883   */\n      revert\n        /* \"#utility.yul\":822:885   */\n    tag_116:\n        /* \"#utility.yul\":769:891   */\n      pop\n      jump\t// out\n        /* \"#utility.yul\":897:1036   */\n    tag_66:\n        /* \"#utility.yul\":943:948   */\n      0x00\n        /* \"#utility.yul\":981:987   */\n      dup2\n        /* \"#utility.yul\":968:988   */\n      calldataload\n        /* \"#utility.yul\":959:988   */\n      swap1\n      pop\n        /* \"#utility.yul\":997:1030   */\n      tag_118\n        /* \"#utility.yul\":1024:1029   */\n      dup2\n        /* \"#utility.yul\":997:1030   */\n      tag_65\n      jump\t// in\n    tag_118:\n        /* \"#utility.yul\":897:1036   */\n      swap3\n      swap2\n      pop\n      pop\n      jump\t// out\n        /* \"#utility.yul\":1042:1371   */\n    tag_17:\n        /* \"#utility.yul\":1101:1107   */\n      0x00\n        /* \"#utility.yul\":1150:1152   */\n      0x20\n        /* \"#utility.yul\":1138:1147   */\n      dup3\n        /* \"#utility.yul\":1129:1136   */\n      dup5\n        /* \"#utility.yul\":1125:1148   */\n      sub\n        /* \"#utility.yul\":1121:1153   */\n      slt\n        /* \"#utility.yul\":1118:1237   */\n      iszero\n      tag_120\n      jumpi\n        /* \"#utility.yul\":1156:1235   */\n      tag_121\n      tag_63\n      jump\t// in\n    tag_121:\n        /* \"#utility.yul\":1118:1237   */\n    tag_120:\n        /* \"#utility.yul\":1276:1277   */\n      0x00\n        /* \"#utility.yul\":1301:1354   */\n      tag_122\n        /* \"#utility.yul\":1346:1353   */\n      dup5\n        /* \"#utility.yul\":1337:1343   */\n      dup3\n        /* \"#utility.yul\":1326:1335   */\n      dup6\n        /* \"#utility.yul\":1322:1344   */\n      add\n        /* \"#utility.yul\":1301:1354   */\n      tag_66\n      jump\t// in\n    tag_122:\n        /* \"#utility.yul\":1291:1354   */\n      swap2\n      pop\n        /* \"#utility.yul\":1247:1364   */\n      pop\n        /* \"#utility.yul\":1042:1371   */\n      swap3\n      swap2\n      pop\n      pop\n      jump\t// out\n        /* \"#utility.yul\":1377:1494   */\n    tag_67:\n        /* \"#utility.yul\":1486:1487   */\n      0x00\n        /* \"#utility.yul\":1483:1484   */\n      dup1\n        /* \"#utility.yul\":1476:1488   */\n      revert\n        /* \"#utility.yul\":1500:1617   */\n    tag_68:\n        /* \"#utility.yul\":1609:1610   */\n      0x00\n        /* \"#utility.yul\":1606:1607   */\n      dup1\n        /* \"#utility.yul\":1599:1611   */\n      revert\n        /* \"#utility.yul\":1623:1725   */\n    tag_69:\n        /* \"#utility.yul\":1664:1670   */\n      0x00\n        /* \"#utility.yul\":1715:1717   */\n      0x1f\n        /* \"#utility.yul\":1711:1718   */\n      not\n        /* \"#utility.yul\":1706:1708   */\n      0x1f\n        /* \"#utility.yul\":1699:1704   */\n      dup4\n        /* \"#utility.yul\":1695:1709   */\n      add\n        /* \"#utility.yul\":1691:1719   */\n      and\n        /* \"#utility.yul\":1681:1719   */\n      swap1\n      pop\n        /* \"#utility.yul\":1623:1725   */\n      swap2\n      swap1\n      pop\n      jump\t// out\n        /* \"#utility.yul\":1731:1911   */\n    tag_70:\n        /* \"#utility.yul\":1779:1856   */\n      0x4e487b7100000000000000000000000000000000000000000000000000000000\n        /* \"#utility.yul\":1776:1777   */\n      0x00\n        /* \"#utility.yul\":1769:1857   */\n      mstore\n        /* \"#utility.yul\":1876:1880   */\n      0x41\n        /* \"#utility.yul\":1873:1874   */\n      0x04\n        /* \"#utility.yul\":1866:1881   */\n      mstore\n        /* \"#utility.yul\":1900:1904   */\n      0x24\n        /* \"#utility.yul\":1897:1898   */\n      0x00\n        /* \"#utility.yul\":1890:1905   */\n      revert\n        /* \"#utility.yul\":1917:2198   */\n    tag_71:\n        /* \"#utility.yul\":2000:2027   */\n      tag_128\n        /* \"#utility.yul\":2022:2026   */\n      dup3\n        /* \"#utility.yul\":2000:2027   */\n      tag_69\n      jump\t// in\n    tag_128:\n        /* \"#utility.yul\":1992:1998   */\n      dup2\n        /* \"#utility.yul\":1988:2028   */\n      add\n        /* \"#utility.yul\":2130:2136   */\n      dup2\n        /* \"#utility.yul\":2118:2128   */\n      dup2\n        /* \"#utility.yul\":2115:2137   */\n      lt\n        /* \"#utility.yul\":2094:2112   */\n      0xffffffffffffffff\n        /* \"#utility.yul\":2082:2092   */\n      dup3\n        /* \"#utility.yul\":2079:2113   */\n      gt\n        /* \"#utility.yul\":2076:2138   */\n      or\n        /* \"#utility.yul\":2073:2161   */\n      iszero\n      tag_129\n      jumpi\n        /* \"#utility.yul\":2141:2159   */\n      tag_130\n      tag_70\n      jump\t// in\n    tag_130:\n        /* \"#utility.yul\":2073:2161   */\n    tag_129:\n        /* \"#utility.yul\":2181:2191   */\n      dup1\n        /* \"#utility.yul\":2177:2179   */\n      0x40\n        /* \"#utility.yul\":2170:2192   */\n      mstore\n        /* \"#utility.yul\":1960:2198   */\n      pop\n        /* \"#utility.yul\":1917:2198   */\n      pop\n      pop\n      jump\t// out\n        /* \"#utility.yul\":2204:2333   */\n    tag_72:\n        /* \"#utility.yul\":2238:2244   */\n      0x00\n        /* \"#utility.yul\":2265:2285   */\n      tag_132\n      tag_62\n      jump\t// in\n    tag_132:\n        /* \"#utility.yul\":2255:2285   */\n      swap1\n      pop\n        /* \"#utility.yul\":2294:2327   */\n      tag_133\n        /* \"#utility.yul\":2322:2326   */\n      dup3\n        /* \"#utility.yul\":2314:2320   */\n      dup3\n        /* \"#utility.yul\":2294:2327   */\n      tag_71\n      jump\t// in\n    tag_133:\n        /* \"#utility.yul\":2204:2333   */\n      swap2\n      swap1\n      pop\n      jump\t// out\n        /* \"#utility.yul\":2339:2647   */\n    tag_73:\n        /* \"#utility.yul\":2401:2405   */\n      0x00\n        /* \"#utility.yul\":2491:2509   */\n      0xffffffffffffffff\n        /* \"#utility.yul\":2483:2489   */\n      dup3\n        /* \"#utility.yul\":2480:2510   */\n      gt\n        /* \"#utility.yul\":2477:2533   */\n      iszero\n      tag_135\n      jumpi\n        /* \"#utility.yul\":2513:2531   */\n      tag_136\n      tag_70\n      jump\t// in\n    tag_136:\n        /* \"#utility.yul\":2477:2533   */\n    tag_135:\n        /* \"#utility.yul\":2551:2580   */\n      tag_137\n        /* \"#utility.yul\":2573:2579   */\n      dup3\n        /* \"#utility.yul\":2551:2580   */\n      tag_69\n      jump\t// in\n    tag_137:\n        /* \"#utility.yul\":2543:2580   */\n      swap1\n      pop\n        /* \"#utility.yul\":2635:2639   */\n      0x20\n        /* \"#utility.yul\":2629:2633   */\n      dup2\n        /* \"#utility.yul\":2625:2640   */\n      add\n        /* \"#utility.yul\":2617:2640   */\n      swap1\n      pop\n        /* \"#utility.yul\":2339:2647   */\n      swap2\n      swap1\n      pop\n      jump\t// out\n        /* \"#utility.yul\":2653:2799   */\n    tag_74:\n        /* \"#utility.yul\":2750:2756   */\n      dup3\n        /* \"#utility.yul\":2745:2748   */\n      dup2\n        /* \"#utility.yul\":2740:2743   */\n      dup4\n        /* \"#utility.yul\":2727:2757   */\n      calldatacopy\n        /* \"#utility.yul\":2791:2792   */\n      0x00\n        /* \"#utility.yul\":2782:2788   */\n      dup4\n        /* \"#utility.yul\":2777:2780   */\n      dup4\n        /* \"#utility.yul\":2773:2789   */\n      add\n        /* \"#utility.yul\":2766:2793   */\n      mstore\n        /* \"#utility.yul\":2653:2799   */\n      pop\n      pop\n      pop\n      jump\t// out\n        /* \"#utility.yul\":2805:3230   */\n    tag_75:\n        /* \"#utility.yul\":2883:2888   */\n      0x00\n        /* \"#utility.yul\":2908:2974   */\n      tag_140\n        /* \"#utility.yul\":2924:2973   */\n      tag_141\n        /* \"#utility.yul\":2966:2972   */\n      dup5\n        /* \"#utility.yul\":2924:2973   */\n      tag_73\n      jump\t// in\n    tag_141:\n        /* \"#utility.yul\":2908:2974   */\n      tag_72\n      jump\t// in\n    tag_140:\n        /* \"#utility.yul\":2899:2974   */\n      swap1\n      pop\n        /* \"#utility.yul\":2997:3003   */\n      dup3\n        /* \"#utility.yul\":2990:2995   */\n      dup2\n        /* \"#utility.yul\":2983:3004   */\n      mstore\n        /* \"#utility.yul\":3035:3039   */\n      0x20\n        /* \"#utility.yul\":3028:3033   */\n      dup2\n        /* \"#utility.yul\":3024:3040   */\n      add\n        /* \"#utility.yul\":3073:3076   */\n      dup5\n        /* \"#utility.yul\":3064:3070   */\n      dup5\n        /* \"#utility.yul\":3059:3062   */\n      dup5\n        /* \"#utility.yul\":3055:3071   */\n      add\n        /* \"#utility.yul\":3052:3077   */\n      gt\n        /* \"#utility.yul\":3049:3161   */\n      iszero\n      tag_142\n      jumpi\n        /* \"#utility.yul\":3080:3159   */\n      tag_143\n      tag_68\n      jump\t// in\n    tag_143:\n        /* \"#utility.yul\":3049:3161   */\n    tag_142:\n        /* \"#utility.yul\":3170:3224   */\n      tag_144\n        /* \"#utility.yul\":3217:3223   */\n      dup5\n        /* \"#utility.yul\":3212:3215   */\n      dup3\n        /* \"#utility.yul\":3207:3210   */\n      dup6\n        /* \"#utility.yul\":3170:3224   */\n      tag_74\n      jump\t// in\n    tag_144:\n        /* \"#utility.yul\":2889:3230   */\n      pop\n        /* \"#utility.yul\":2805:3230   */\n      swap4\n      swap3\n      pop\n      pop\n      pop\n      jump\t// out\n        /* \"#utility.yul\":3250:3590   */\n    tag_76:\n        /* \"#utility.yul\":3306:3311   */\n      0x00\n        /* \"#utility.yul\":3355:3358   */\n      dup3\n        /* \"#utility.yul\":3348:3352   */\n      0x1f\n        /* \"#utility.yul\":3340:3346   */\n      dup4\n        /* \"#utility.yul\":3336:3353   */\n      add\n        /* \"#utility.yul\":3332:3359   */\n      slt\n        /* \"#utility.yul\":3322:3444   */\n      tag_146\n      jumpi\n        /* \"#utility.yul\":3363:3442   */\n      tag_147\n      tag_67\n      jump\t// in\n    tag_147:\n        /* \"#utility.yul\":3322:3444   */\n    tag_146:\n        /* \"#utility.yul\":3480:3486   */\n      dup2\n        /* \"#utility.yul\":3467:3487   */\n      calldataload\n        /* \"#utility.yul\":3505:3584   */\n      tag_148\n        /* \"#utility.yul\":3580:3583   */\n      dup5\n        /* \"#utility.yul\":3572:3578   */\n      dup3\n        /* \"#utility.yul\":3565:3569   */\n      0x20\n        /* \"#utility.yul\":3557:3563   */\n      dup7\n        /* \"#utility.yul\":3553:3570   */\n      add\n        /* \"#utility.yul\":3505:3584   */\n      tag_75\n      jump\t// in\n    tag_148:\n        /* \"#utility.yul\":3496:3584   */\n      swap2\n      pop\n        /* \"#utility.yul\":3312:3590   */\n      pop\n        /* \"#utility.yul\":3250:3590   */\n      swap3\n      swap2\n      pop\n      pop\n      jump\t// out\n        /* \"#utility.yul\":3596:4105   */\n    tag_22:\n        /* \"#utility.yul\":3665:3671   */\n      0x00\n        /* \"#utility.yul\":3714:3716   */\n      0x20\n        /* \"#utility.yul\":3702:3711   */\n      dup3\n        /* \"#utility.yul\":3693:3700   */\n      dup5\n        /* \"#utility.yul\":3689:3712   */\n      sub\n        /* \"#utility.yul\":3685:3717   */\n      slt\n        /* \"#utility.yul\":3682:3801   */\n      iszero\n      tag_150\n      jumpi\n        /* \"#utility.yul\":3720:3799   */\n      tag_151\n      tag_63\n      jump\t// in\n    tag_151:\n        /* \"#utility.yul\":3682:3801   */\n    tag_150:\n        /* \"#utility.yul\":3868:3869   */\n      0x00\n        /* \"#utility.yul\":3857:3866   */\n      dup3\n        /* \"#utility.yul\":3853:3870   */\n      add\n        /* \"#utility.yul\":3840:3871   */\n      calldataload\n        /* \"#utility.yul\":3898:3916   */\n      0xffffffffffffffff\n        /* \"#utility.yul\":3890:3896   */\n      dup2\n        /* \"#utility.yul\":3887:3917   */\n      gt\n        /* \"#utility.yul\":3884:4001   */\n      iszero\n      tag_152\n      jumpi\n        /* \"#utility.yul\":3920:3999   */\n      tag_153\n      tag_64\n      jump\t// in\n    tag_153:\n        /* \"#utility.yul\":3884:4001   */\n    tag_152:\n        /* \"#utility.yul\":4025:4088   */\n      tag_154\n        /* \"#utility.yul\":4080:4087   */\n      dup5\n        /* \"#utility.yul\":4071:4077   */\n      dup3\n        /* \"#utility.yul\":4060:4069   */\n      dup6\n        /* \"#utility.yul\":4056:4078   */\n      add\n        /* \"#utility.yul\":4025:4088   */\n      tag_76\n      jump\t// in\n    tag_154:\n        /* \"#utility.yul\":4015:4088   */\n      swap2\n      pop\n        /* \"#utility.yul\":3811:4098   */\n      pop\n        /* \"#utility.yul\":3596:4105   */\n      swap3\n      swap2\n      pop\n      pop\n      jump\t// out\n        /* \"#utility.yul\":4111:4210   */\n    tag_77:\n        /* \"#utility.yul\":4163:4169   */\n      0x00\n        /* \"#utility.yul\":4197:4202   */\n      dup2\n        /* \"#utility.yul\":4191:4203   */\n      mload\n        /* \"#utility.yul\":4181:4203   */\n      swap1\n      pop\n        /* \"#utility.yul\":4111:4210   */\n      swap2\n      swap1\n      pop\n      jump\t// out\n        /* \"#utility.yul\":4216:4385   */\n    tag_78:\n        /* \"#utility.yul\":4300:4311   */\n      0x00\n        /* \"#utility.yul\":4334:4340   */\n      dup3\n        /* \"#utility.yul\":4329:4332   */\n      dup3\n        /* \"#utility.yul\":4322:4341   */\n      mstore\n        /* \"#utility.yul\":4374:4378   */\n      0x20\n        /* \"#utility.yul\":4369:4372   */\n      dup3\n        /* \"#utility.yul\":4365:4379   */\n      add\n        /* \"#utility.yul\":4350:4379   */\n      swap1\n      pop\n        /* \"#utility.yul\":4216:4385   */\n      swap3\n      swap2\n      pop\n      pop\n      jump\t// out\n        /* \"#utility.yul\":4391:4637   */\n    tag_79:\n        /* \"#utility.yul\":4472:4473   */\n      0x00\n        /* \"#utility.yul\":4482:4595   */\n    tag_158:\n        /* \"#utility.yul\":4496:4502   */\n      dup4\n        /* \"#utility.yul\":4493:4494   */\n      dup2\n        /* \"#utility.yul\":4490:4503   */\n      lt\n        /* \"#utility.yul\":4482:4595   */\n      iszero\n      tag_160\n      jumpi\n        /* \"#utility.yul\":4581:4582   */\n      dup1\n        /* \"#utility.yul\":4576:4579   */\n      dup3\n        /* \"#utility.yul\":4572:4583   */\n      add\n        /* \"#utility.yul\":4566:4584   */\n      mload\n        /* \"#utility.yul\":4562:4563   */\n      dup2\n        /* \"#utility.yul\":4557:4560   */\n      dup5\n        /* \"#utility.yul\":4553:4564   */\n      add\n        /* \"#utility.yul\":4546:4585   */\n      mstore\n        /* \"#utility.yul\":4518:4520   */\n      0x20\n        /* \"#utility.yul\":4515:4516   */\n      dup2\n        /* \"#utility.yul\":4511:4521   */\n      add\n        /* \"#utility.yul\":4506:4521   */\n      swap1\n      pop\n        /* \"#utility.yul\":4482:4595   */\n      jump(tag_158)\n    tag_160:\n        /* \"#utility.yul\":4629:4630   */\n      0x00\n        /* \"#utility.yul\":4620:4626   */\n      dup5\n        /* \"#utility.yul\":4615:4618   */\n      dup5\n        /* \"#utility.yul\":4611:4627   */\n      add\n        /* \"#utility.yul\":4604:4631   */\n      mstore\n        /* \"#utility.yul\":4453:4637   */\n      pop\n        /* \"#utility.yul\":4391:4637   */\n      pop\n      pop\n      pop\n      jump\t// out\n        /* \"#utility.yul\":4643:5020   */\n    tag_80:\n        /* \"#utility.yul\":4731:4734   */\n      0x00\n        /* \"#utility.yul\":4759:4798   */\n      tag_162\n        /* \"#utility.yul\":4792:4797   */\n      dup3\n        /* \"#utility.yul\":4759:4798   */\n      tag_77\n      jump\t// in\n    tag_162:\n        /* \"#utility.yul\":4814:4885   */\n      tag_163\n        /* \"#utility.yul\":4878:4884   */\n      dup2\n        /* \"#utility.yul\":4873:4876   */\n      dup6\n        /* \"#utility.yul\":4814:4885   */\n      tag_78\n      jump\t// in\n    tag_163:\n        /* \"#utility.yul\":4807:4885   */\n      swap4\n      pop\n        /* \"#utility.yul\":4894:4959   */\n      tag_164\n        /* \"#utility.yul\":4952:4958   */\n      dup2\n        /* \"#utility.yul\":4947:4950   */\n      dup6\n        /* \"#utility.yul\":4940:4944   */\n      0x20\n        /* \"#utility.yul\":4933:4938   */\n      dup7\n        /* \"#utility.yul\":4929:4945   */\n      add\n        /* \"#utility.yul\":4894:4959   */\n      tag_79\n      jump\t// in\n    tag_164:\n        /* \"#utility.yul\":4984:5013   */\n      tag_165\n        /* \"#utility.yul\":5006:5012   */\n      dup2\n        /* \"#utility.yul\":4984:5013   */\n      tag_69\n      jump\t// in\n    tag_165:\n        /* \"#utility.yul\":4979:4982   */\n      dup5\n        /* \"#utility.yul\":4975:5014   */\n      add\n        /* \"#utility.yul\":4968:5014   */\n      swap2\n      pop\n        /* \"#utility.yul\":4735:5020   */\n      pop\n        /* \"#utility.yul\":4643:5020   */\n      swap3\n      swap2\n      pop\n      pop\n      jump\t// out\n        /* \"#utility.yul\":5026:5339   */\n    tag_25:\n        /* \"#utility.yul\":5139:5143   */\n      0x00\n        /* \"#utility.yul\":5177:5179   */\n      0x20\n        /* \"#utility.yul\":5166:5175   */\n      dup3\n        /* \"#utility.yul\":5162:5180   */\n      add\n        /* \"#utility.yul\":5154:5180   */\n      swap1\n      pop\n        /* \"#utility.yul\":5226:5235   */\n      dup2\n        /* \"#utility.yul\":5220:5224   */\n      dup2\n        /* \"#utility.yul\":5216:5236   */\n      sub\n        /* \"#utility.yul\":5212:5213   */\n      0x00\n        /* \"#utility.yul\":5201:5210   */\n      dup4\n        /* \"#utility.yul\":5197:5214   */\n      add\n        /* \"#utility.yul\":5190:5237   */\n      mstore\n        /* \"#utility.yul\":5254:5332   */\n      tag_167\n        /* \"#utility.yul\":5327:5331   */\n      dup2\n        /* \"#utility.yul\":5318:5324   */\n      dup5\n        /* \"#utility.yul\":5254:5332   */\n      tag_80\n      jump\t// in\n    tag_167:\n        /* \"#utility.yul\":5246:5332   */\n      swap1\n      pop\n        /* \"#utility.yul\":5026:5339   */\n      swap3\n      swap2\n      pop\n      pop\n      jump\t// out\n        /* \"#utility.yul\":5345:5471   */\n    tag_81:\n        /* \"#utility.yul\":5382:5389   */\n      0x00\n        /* \"#utility.yul\":5422:5464   */\n      0xffffffffffffffffffffffffffffffffffffffff\n        /* \"#utility.yul\":5415:5420   */\n      dup3\n        /* \"#utility.yul\":5411:5465   */\n      and\n        /* \"#utility.yul\":5400:5465   */\n      swap1\n      pop\n        /* \"#utility.yul\":5345:5471   */\n      swap2\n      swap1\n      pop\n      jump\t// out\n        /* \"#utility.yul\":5477:5573   */\n    tag_82:\n        /* \"#utility.yul\":5514:5521   */\n      0x00\n        /* \"#utility.yul\":5543:5567   */\n      tag_170\n        /* \"#utility.yul\":5561:5566   */\n      dup3\n        /* \"#utility.yul\":5543:5567   */\n      tag_81\n      jump\t// in\n    tag_170:\n        /* \"#utility.yul\":5532:5567   */\n      swap1\n      pop\n        /* \"#utility.yul\":5477:5573   */\n      swap2\n      swap1\n      pop\n      jump\t// out\n        /* \"#utility.yul\":5579:5701   */\n    tag_83:\n        /* \"#utility.yul\":5652:5676   */\n      tag_172\n        /* \"#utility.yul\":5670:5675   */\n      dup2\n        /* \"#utility.yul\":5652:5676   */\n      tag_82\n      jump\t// in\n    tag_172:\n        /* \"#utility.yul\":5645:5650   */\n      dup2\n        /* \"#utility.yul\":5642:5677   */\n      eq\n        /* \"#utility.yul\":5632:5695   */\n      tag_173\n      jumpi\n        /* \"#utility.yul\":5691:5692   */\n      0x00\n        /* \"#utility.yul\":5688:5689   */\n      dup1\n        /* \"#utility.yul\":5681:5693   */\n      revert\n        /* \"#utility.yul\":5632:5695   */\n    tag_173:\n        /* \"#utility.yul\":5579:5701   */\n      pop\n      jump\t// out\n        /* \"#utility.yul\":5707:5846   */\n    tag_84:\n        /* \"#utility.yul\":5753:5758   */\n      0x00\n        /* \"#utility.yul\":5791:5797   */\n      dup2\n        /* \"#utility.yul\":5778:5798   */\n      calldataload\n        /* \"#utility.yul\":5769:5798   */\n      swap1\n      pop\n        /* \"#utility.yul\":5807:5840   */\n      tag_175\n        /* \"#utility.yul\":5834:5839   */\n      dup2\n        /* \"#utility.yul\":5807:5840   */\n      tag_83\n      jump\t// in\n    tag_175:\n        /* \"#utility.yul\":5707:5846   */\n      swap3\n      swap2\n      pop\n      pop\n      jump\t// out\n        /* \"#utility.yul\":5852:6181   */\n    tag_31:\n        /* \"#utility.yul\":5911:5917   */\n      0x00\n        /* \"#utility.yul\":5960:5962   */\n      0x20\n        /* \"#utility.yul\":5948:5957   */\n      dup3\n        /* \"#utility.yul\":5939:5946   */\n      dup5\n        /* \"#utility.yul\":5935:5958   */\n      sub\n        /* \"#utility.yul\":5931:5963   */\n      slt\n        /* \"#utility.yul\":5928:6047   */\n      iszero\n      tag_177\n      jumpi\n        /* \"#utility.yul\":5966:6045   */\n      tag_178\n      tag_63\n      jump\t// in\n    tag_178:\n        /* \"#utility.yul\":5928:6047   */\n    tag_177:\n        /* \"#utility.yul\":6086:6087   */\n      0x00\n        /* \"#utility.yul\":6111:6164   */\n      tag_179\n        /* \"#utility.yul\":6156:6163   */\n      dup5\n        /* \"#utility.yul\":6147:6153   */\n      dup3\n        /* \"#utility.yul\":6136:6145   */\n      dup6\n        /* \"#utility.yul\":6132:6154   */\n      add\n        /* \"#utility.yul\":6111:6164   */\n      tag_84\n      jump\t// in\n    tag_179:\n        /* \"#utility.yul\":6101:6164   */\n      swap2\n      pop\n        /* \"#utility.yul\":6057:6174   */\n      pop\n        /* \"#utility.yul\":5852:6181   */\n      swap3\n      swap2\n      pop\n      pop\n      jump\t// out\n        /* \"#utility.yul\":6187:6305   */\n    tag_85:\n        /* \"#utility.yul\":6274:6298   */\n      tag_181\n        /* \"#utility.yul\":6292:6297   */\n      dup2\n        /* \"#utility.yul\":6274:6298   */\n      tag_82\n      jump\t// in\n    tag_181:\n        /* \"#utility.yul\":6269:6272   */\n      dup3\n        /* \"#utility.yul\":6262:6299   */\n      mstore\n        /* \"#utility.yul\":6187:6305   */\n      pop\n      pop\n      jump\t// out\n        /* \"#utility.yul\":6311:6533   */\n    tag_34:\n        /* \"#utility.yul\":6404:6408   */\n      0x00\n        /* \"#utility.yul\":6442:6444   */\n      0x20\n        /* \"#utility.yul\":6431:6440   */\n      dup3\n        /* \"#utility.yul\":6427:6445   */\n      add\n        /* \"#utility.yul\":6419:6445   */\n      swap1\n      pop\n        /* \"#utility.yul\":6455:6526   */\n      tag_183\n        /* \"#utility.yul\":6523:6524   */\n      0x00\n        /* \"#utility.yul\":6512:6521   */\n      dup4\n        /* \"#utility.yul\":6508:6525   */\n      add\n        /* \"#utility.yul\":6499:6505   */\n      dup5\n        /* \"#utility.yul\":6455:6526   */\n      tag_85\n      jump\t// in\n    tag_183:\n        /* \"#utility.yul\":6311:6533   */\n      swap3\n      swap2\n      pop\n      pop\n      jump\t// out\n        /* \"#utility.yul\":6539:6719   */\n    tag_86:\n        /* \"#utility.yul\":6587:6664   */\n      0x4e487b7100000000000000000000000000000000000000000000000000000000\n        /* \"#utility.yul\":6584:6585   */\n      0x00\n        /* \"#utility.yul\":6577:6665   */\n      mstore\n        /* \"#utility.yul\":6684:6688   */\n      0x22\n        /* \"#utility.yul\":6681:6682   */\n      0x04\n        /* \"#utility.yul\":6674:6689   */\n      mstore\n        /* \"#utility.yul\":6708:6712   */\n      0x24\n        /* \"#utility.yul\":6705:6706   */\n      0x00\n        /* \"#utility.yul\":6698:6713   */\n      revert\n        /* \"#utility.yul\":6725:7045   */\n    tag_49:\n        /* \"#utility.yul\":6769:6775   */\n      0x00\n        /* \"#utility.yul\":6806:6807   */\n      0x02\n        /* \"#utility.yul\":6800:6804   */\n      dup3\n        /* \"#utility.yul\":6796:6808   */\n      div\n        /* \"#utility.yul\":6786:6808   */\n      swap1\n      pop\n        /* \"#utility.yul\":6853:6854   */\n      0x01\n        /* \"#utility.yul\":6847:6851   */\n      dup3\n        /* \"#utility.yul\":6843:6855   */\n      and\n        /* \"#utility.yul\":6874:6892   */\n      dup1\n        /* \"#utility.yul\":6864:6945   */\n      tag_186\n      jumpi\n        /* \"#utility.yul\":6930:6934   */\n      0x7f\n        /* \"#utility.yul\":6922:6928   */\n      dup3\n        /* \"#utility.yul\":6918:6935   */\n      and\n        /* \"#utility.yul\":6908:6935   */\n      swap2\n      pop\n        /* \"#utility.yul\":6864:6945   */\n    tag_186:\n        /* \"#utility.yul\":6992:6994   */\n      0x20\n        /* \"#utility.yul\":6984:6990   */\n      dup3\n        /* \"#utility.yul\":6981:6995   */\n      lt\n        /* \"#utility.yul\":6961:6979   */\n      dup2\n        /* \"#utility.yul\":6958:6996   */\n      sub\n        /* \"#utility.yul\":6955:7039   */\n      tag_187\n      jumpi\n        /* \"#utility.yul\":7011:7029   */\n      tag_188\n      tag_86\n      jump\t// in\n    tag_188:\n        /* \"#utility.yul\":6955:7039   */\n    tag_187:\n        /* \"#utility.yul\":6776:7045   */\n      pop\n        /* \"#utility.yul\":6725:7045   */\n      swap2\n      swap1\n      pop\n      jump\t// out\n        /* \"#utility.yul\":7051:7192   */\n    tag_87:\n        /* \"#utility.yul\":7100:7104   */\n      0x00\n        /* \"#utility.yul\":7123:7126   */\n      dup2\n        /* \"#utility.yul\":7115:7126   */\n      swap1\n      pop\n        /* \"#utility.yul\":7146:7149   */\n      dup2\n        /* \"#utility.yul\":7143:7144   */\n      0x00\n        /* \"#utility.yul\":7136:7150   */\n      mstore\n        /* \"#utility.yul\":7180:7184   */\n      0x20\n        /* \"#utility.yul\":7177:7178   */\n      0x00\n        /* \"#utility.yul\":7167:7185   */\n      keccak256\n        /* \"#utility.yul\":7159:7185   */\n      swap1\n      pop\n        /* \"#utility.yul\":7051:7192   */\n      swap2\n      swap1\n      pop\n      jump\t// out\n        /* \"#utility.yul\":7198:7291   */\n    tag_88:\n        /* \"#utility.yul\":7235:7241   */\n      0x00\n        /* \"#utility.yul\":7282:7284   */\n      0x20\n        /* \"#utility.yul\":7277:7279   */\n      0x1f\n        /* \"#utility.yul\":7270:7275   */\n      dup4\n        /* \"#utility.yul\":7266:7280   */\n      add\n        /* \"#utility.yul\":7262:7285   */\n      div\n        /* \"#utility.yul\":7252:7285   */\n      swap1\n      pop\n        /* \"#utility.yul\":7198:7291   */\n      swap2\n      swap1\n      pop\n      jump\t// out\n        /* \"#utility.yul\":7297:7404   */\n    tag_89:\n        /* \"#utility.yul\":7341:7349   */\n      0x00\n        /* \"#utility.yul\":7391:7396   */\n      dup3\n        /* \"#utility.yul\":7385:7389   */\n      dup3\n        /* \"#utility.yul\":7381:7397   */\n      shl\n        /* \"#utility.yul\":7360:7397   */\n      swap1\n      pop\n        /* \"#utility.yul\":7297:7404   */\n      swap3\n      swap2\n      pop\n      pop\n      jump\t// out\n        /* \"#utility.yul\":7410:7803   */\n    tag_90:\n        /* \"#utility.yul\":7479:7485   */\n      0x00\n        /* \"#utility.yul\":7529:7530   */\n      0x08\n        /* \"#utility.yul\":7517:7527   */\n      dup4\n        /* \"#utility.yul\":7513:7531   */\n      mul\n        /* \"#utility.yul\":7552:7649   */\n      tag_193\n        /* \"#utility.yul\":7582:7648   */\n      0xffffffffffffffffffffffffffffffffffffffffffffffffffffffffffffffff\n        /* \"#utility.yul\":7571:7580   */\n      dup3\n        /* \"#utility.yul\":7552:7649   */\n      tag_89\n      jump\t// in\n    tag_193:\n        /* \"#utility.yul\":7670:7709   */\n      tag_194\n        /* \"#utility.yul\":7700:7708   */\n      dup7\n        /* \"#utility.yul\":7689:7698   */\n      dup4\n        /* \"#utility.yul\":7670:7709   */\n      tag_89\n      jump\t// in\n    tag_194:\n        /* \"#utility.yul\":7658:7709   */\n      swap6\n      pop\n        /* \"#utility.yul\":7742:7746   */\n      dup1\n        /* \"#utility.yul\":7738:7747   */\n      not\n        /* \"#utility.yul\":7731:7736   */\n      dup5\n        /* \"#utility.yul\":7727:7748   */\n      and\n        /* \"#utility.yul\":7718:7748   */\n      swap4\n      pop\n        /* \"#utility.yul\":7791:7795   */\n      dup1\n        /* \"#utility.yul\":7781:7789   */\n      dup7\n        /* \"#utility.yul\":7777:7796   */\n      and\n        /* \"#utility.yul\":7770:7775   */\n      dup5\n        /* \"#utility.yul\":7767:7797   */\n      or\n        /* \"#utility.yul\":7757:7797   */\n      swap3\n      pop\n        /* \"#utility.yul\":7486:7803   */\n      pop\n      pop\n        /* \"#utility.yul\":7410:7803   */\n      swap4\n      swap3\n      pop\n      pop\n      pop\n      jump\t// out\n        /* \"#utility.yul\":7809:7869   */\n    tag_91:\n        /* \"#utility.yul\":7837:7840   */\n      0x00\n        /* \"#utility.yul\":7858:7863   */\n      dup2\n        /* \"#utility.yul\":7851:7863   */\n      swap1\n      pop\n        /* \"#utility.yul\":7809:7869   */\n      swap2\n      swap1\n      pop\n      jump\t// out\n        /* \"#utility.yul\":7875:8017   */\n    tag_92:\n        /* \"#utility.yul\":7925:7934   */\n      0x00\n        /* \"#utility.yul\":7958:8011   */\n      tag_197\n        /* \"#utility.yul\":7976:8010   */\n      tag_198\n        /* \"#utility.yul\":7985:8009   */\n      tag_199\n        /* \"#utility.yul\":8003:8008   */\n      dup5\n        /* \"#utility.yul\":7985:8009   */\n      tag_60\n      jump\t// in\n    tag_199:\n        /* \"#utility.yul\":7976:8010   */\n      tag_91\n      jump\t// in\n    tag_198:\n        /* \"#utility.yul\":7958:8011   */\n      tag_60\n      jump\t// in\n    tag_197:\n        /* \"#utility.yul\":7945:8011   */\n      swap1\n      pop\n        /* \"#utility.yul\":7875:8017   */\n      swap2\n      swap1\n      pop\n      jump\t// out\n        /* \"#utility.yul\":8023:8098   */\n    tag_93:\n        /* \"#utility.yul\":8066:8069   */\n      0x00\n        /* \"#utility.yul\":8087:8092   */\n      dup2\n        /* \"#utility.yul\":8080:8092   */\n      swap1\n      pop\n        /* \"#utility.yul\":8023:8098   */\n      swap2\n      swap1\n      pop\n      jump\t// out\n        /* \"#utility.yul\":8104:8373   */\n    tag_94:\n        /* \"#utility.yul\":8214:8253   */\n      tag_202\n        /* \"#utility.yul\":8245:8252   */\n      dup4\n        /* \"#utility.yul\":8214:8253   */\n      tag_92\n      jump\t// in\n    tag_202:\n        /* \"#utility.yul\":8275:8366   */\n      tag_203\n        /* \"#utility.yul\":8324:8365   */\n      tag_204\n        /* \"#utility.yul\":8348:8364   */\n      dup3\n        /* \"#utility.yul\":8324:8365   */\n      tag_93\n      jump\t// in\n    tag_204:\n        /* \"#utility.yul\":8316:8322   */\n      dup5\n        /* \"#utility.yul\":8309:8313   */\n      dup5\n        /* \"#utility.yul\":8303:8314   */\n      sload\n        /* \"#utility.yul\":8275:8366   */\n      tag_90\n      jump\t// in\n    tag_203:\n        /* \"#utility.yul\":8269:8273   */\n      dup3\n        /* \"#utility.yul\":8262:8367   */\n      sstore\n        /* \"#utility.yul\":8180:8373   */\n      pop\n        /* \"#utility.yul\":8104:8373   */\n      pop\n      pop\n      pop\n      jump\t// out\n        /* \"#utility.yul\":8379:8452   */\n    tag_95:\n        /* \"#utility.yul\":8424:8427   */\n      0x00\n        /* \"#utility.yul\":8379:8452   */\n      swap1\n      jump\t// out\n        /* \"#utility.yul\":8458:8647   */\n    tag_96:\n        /* \"#utility.yul\":8535:8567   */\n      tag_207\n      tag_95\n      jump\t// in\n    tag_207:\n        /* \"#utility.yul\":8576:8641   */\n      tag_208\n        /* \"#utility.yul\":8634:8640   */\n      dup2\n        /* \"#utility.yul\":8626:8632   */\n      dup5\n        /* \"#utility.yul\":8620:8624   */\n      dup5\n        /* \"#utility.yul\":8576:8641   */\n      tag_94\n      jump\t// in\n    tag_208:\n        /* \"#utility.yul\":8511:8647   */\n      pop\n        /* \"#utility.yul\":8458:8647   */\n      pop\n      pop\n      jump\t// out\n        /* \"#utility.yul\":8653:8839   */\n    tag_97:\n        /* \"#utility.yul\":8713:8833   */\n    tag_210:\n        /* \"#utility.yul\":8730:8733   */\n      dup2\n        /* \"#utility.yul\":8723:8728   */\n      dup2\n        /* \"#utility.yul\":8720:8734   */\n      lt\n        /* \"#utility.yul\":8713:8833   */\n      iszero\n      tag_212\n      jumpi\n        /* \"#utility.yul\":8784:8823   */\n      tag_213\n        /* \"#utility.yul\":8821:8822   */\n      0x00\n        /* \"#utility.yul\":8814:8819   */\n      dup3\n        /* \"#utility.yul\":8784:8823   */\n      tag_96\n      jump\t// in\n    tag_213:\n        /* \"#utility.yul\":8757:8758   */\n      0x01\n        /* \"#utility.yul\":8750:8755   */\n      dup2\n        /* \"#utility.yul\":8746:8759   */\n      add\n        /* \"#utility.yul\":8737:8759   */\n      swap1\n      pop\n        /* \"#utility.yul\":8713:8833   */\n      jump(tag_210)\n    tag_212:\n        /* \"#utility.yul\":8653:8839   */\n      pop\n      pop\n      jump\t// out\n        /* \"#utility.yul\":8845:9388   */\n    tag_98:\n        /* \"#utility.yul\":8946:8948   */\n      0x1f\n        /* \"#utility.yul\":8941:8944   */\n      dup3\n        /* \"#utility.yul\":8938:8949   */\n      gt\n        /* \"#utility.yul\":8935:9381   */\n      iszero\n      tag_215\n      jumpi\n        /* \"#utility.yul\":8980:9018   */\n      tag_216\n        /* \"#utility.yul\":9012:9017   */\n      dup2\n        /* \"#utility.yul\":8980:9018   */\n      tag_87\n      jump\t// in\n    tag_216:\n        /* \"#utility.yul\":9064:9093   */\n      tag_217\n        /* \"#utility.yul\":9082:9092   */\n      dup5\n        /* \"#utility.yul\":9064:9093   */\n      tag_88\n      jump\t// in\n    tag_217:\n        /* \"#utility.yul\":9054:9062   */\n      dup2\n        /* \"#utility.yul\":9050:9094   */\n      add\n        /* \"#utility.yul\":9247:9249   */\n      0x20\n        /* \"#utility.yul\":9235:9245   */\n      dup6\n        /* \"#utility.yul\":9232:9250   */\n      lt\n        /* \"#utility.yul\":9229:9278   */\n      iszero\n      tag_218\n      jumpi\n        /* \"#utility.yul\":9268:9276   */\n      dup2\n        /* \"#utility.yul\":9253:9276   */\n      swap1\n      pop\n        /* \"#utility.yul\":9229:9278   */\n    tag_218:\n        /* \"#utility.yul\":9291:9371   */\n      tag_219\n        /* \"#utility.yul\":9347:9369   */\n      tag_220\n        /* \"#utility.yul\":9365:9368   */\n      dup6\n        /* \"#utility.yul\":9347:9369   */\n      tag_88\n      jump\t// in\n    tag_220:\n        /* \"#utility.yul\":9337:9345   */\n      dup4\n        /* \"#utility.yul\":9333:9370   */\n      add\n        /* \"#utility.yul\":9320:9331   */\n      dup3\n        /* \"#utility.yul\":9291:9371   */\n      tag_97\n      jump\t// in\n    tag_219:\n        /* \"#utility.yul\":8950:9381   */\n      pop\n      pop\n        /* \"#utility.yul\":8935:9381   */\n    tag_215:\n        /* \"#utility.yul\":8845:9388   */\n      pop\n      pop\n      pop\n      jump\t// out\n        /* \"#utility.yul\":9394:9511   */\n    tag_99:\n        /* \"#utility.yul\":9448:9456   */\n      0x00\n        /* \"#utility.yul\":9498:9503   */\n      dup3\n        /* \"#utility.yul\":9492:9496   */\n      dup3\n        /* \"#utility.yul\":9488:9504   */\n      shr\n        /* \"#utility.yul\":9467:9504   */\n      swap1\n      pop\n        /* \"#utility.yul\":9394:9511   */\n      swap3\n      swap2\n      pop\n      pop\n      jump\t// out\n        /* \"#utility.yul\":9517:9686   */\n    tag_100:\n        /* \"#utility.yul\":9561:9567   */\n      0x00\n        /* \"#utility.yul\":9594:9645   */\n      tag_223\n        /* \"#utility.yul\":9642:9643   */\n      0x00\n        /* \"#utility.yul\":9638:9644   */\n      not\n        /* \"#utility.yul\":9630:9635   */\n      dup5\n        /* \"#utility.yul\":9627:9628   */\n      0x08\n        /* \"#utility.yul\":9623:9636   */\n      mul\n        /* \"#utility.yul\":9594:9645   */\n      tag_99\n      jump\t// in\n    tag_223:\n        /* \"#utility.yul\":9590:9646   */\n      not\n        /* \"#utility.yul\":9675:9679   */\n      dup1\n        /* \"#utility.yul\":9669:9673   */\n      dup4\n        /* \"#utility.yul\":9665:9680   */\n      and\n        /* \"#utility.yul\":9655:9680   */\n      swap2\n      pop\n        /* \"#utility.yul\":9568:9686   */\n      pop\n        /* \"#utility.yul\":9517:9686   */\n      swap3\n      swap2\n      pop\n      pop\n      jump\t// out\n        /* \"#utility.yul\":9691:9986   */\n    tag_101:\n        /* \"#utility.yul\":9767:9771   */\n      0x00\n        /* \"#utility.yul\":9913:9942   */\n      tag_225\n        /* \"#utility.yul\":9938:9941   */\n      dup4\n        /* \"#utility.yul\":9932:9936   */\n      dup4\n        /* \"#utility.yul\":9913:9942   */\n      tag_100\n      jump\t// in\n    tag_225:\n        /* \"#utility.yul\":9905:9942   */\n      swap2\n      pop\n        /* \"#utility.yul\":9975:9978   */\n      dup3\n        /* \"#utility.yul\":9972:9973   */\n      0x02\n        /* \"#utility.yul\":9968:9979   */\n      mul\n        /* \"#utility.yul\":9962:9966   */\n      dup3\n        /* \"#utility.yul\":9959:9980   */\n      or\n        /* \"#utility.yul\":9951:9980   */\n      swap1\n      pop\n        /* \"#utility.yul\":9691:9986   */\n      swap3\n      swap2\n      pop\n      pop\n      jump\t// out\n        /* \"#utility.yul\":9991:11386   */\n    tag_47:\n        /* \"#utility.yul\":10108:10145   */\n      tag_227\n        /* \"#utility.yul\":10141:10144   */\n      dup3\n        /* \"#utility.yul\":10108:10145   */\n      tag_77\n      jump\t// in\n    tag_227:\n        /* \"#utility.yul\":10210:10228   */\n      0xffffffffffffffff\n        /* \"#utility.yul\":10202:10208   */\n      dup2\n        /* \"#utility.yul\":10199:10229   */\n      gt\n        /* \"#utility.yul\":10196:10252   */\n      iszero\n      tag_228\n      jumpi\n        /* \"#utility.yul\":10232:10250   */\n      tag_229\n      tag_70\n      jump\t// in\n    tag_229:\n        /* \"#utility.yul\":10196:10252   */\n    tag_228:\n        /* \"#utility.yul\":10276:10314   */\n      tag_230\n        /* \"#utility.yul\":10308:10312   */\n      dup3\n        /* \"#utility.yul\":10302:10313   */\n      sload\n        /* \"#utility.yul\":10276:10314   */\n      tag_49\n      jump\t// in\n    tag_230:\n        /* \"#utility.yul\":10361:10428   */\n      tag_231\n        /* \"#utility.yul\":10421:10427   */\n      dup3\n        /* \"#utility.yul\":10413:10419   */\n      dup3\n        /* \"#utility.yul\":10407:10411   */\n      dup6\n        /* \"#utility.yul\":10361:10428   */\n      tag_98\n      jump\t// in\n    tag_231:\n        /* \"#utility.yul\":10455:10456   */\n      0x00\n        /* \"#utility.yul\":10479:10483   */\n      0x20\n        /* \"#utility.yul\":10466:10483   */\n      swap1\n      pop\n        /* \"#utility.yul\":10511:10513   */\n      0x1f\n        /* \"#utility.yul\":10503:10509   */\n      dup4\n        /* \"#utility.yul\":10500:10514   */\n      gt\n        /* \"#utility.yul\":10528:10529   */\n      0x01\n        /* \"#utility.yul\":10523:11141   */\n      dup2\n      eq\n      tag_233\n      jumpi\n        /* \"#utility.yul\":11185:11186   */\n      0x00\n        /* \"#utility.yul\":11202:11208   */\n      dup5\n        /* \"#utility.yul\":11199:11276   */\n      iszero\n      tag_234\n      jumpi\n        /* \"#utility.yul\":11251:11260   */\n      dup3\n        /* \"#utility.yul\":11246:11249   */\n      dup8\n        /* \"#utility.yul\":11242:11261   */\n      add\n        /* \"#utility.yul\":11236:11262   */\n      mload\n        /* \"#utility.yul\":11227:11262   */\n      swap1\n      pop\n        /* \"#utility.yul\":11199:11276   */\n    tag_234:\n        /* \"#utility.yul\":11302:11369   */\n      tag_235\n        /* \"#utility.yul\":11362:11368   */\n      dup6\n        /* \"#utility.yul\":11355:11360   */\n      dup3\n        /* \"#utility.yul\":11302:11369   */\n      tag_101\n      jump\t// in\n    tag_235:\n        /* \"#utility.yul\":11296:11300   */\n      dup7\n        /* \"#utility.yul\":11289:11370   */\n      sstore\n        /* \"#utility.yul\":11158:11380   */\n      pop\n        /* \"#utility.yul\":10493:11380   */\n      jump(tag_232)\n        /* \"#utility.yul\":10523:11141   */\n    tag_233:\n        /* \"#utility.yul\":10575:10579   */\n      0x1f\n        /* \"#utility.yul\":10571:10580   */\n      not\n        /* \"#utility.yul\":10563:10569   */\n      dup5\n        /* \"#utility.yul\":10559:10581   */\n      and\n        /* \"#utility.yul\":10609:10646   */\n      tag_236\n        /* \"#utility.yul\":10641:10645   */\n      dup7\n        /* \"#utility.yul\":10609:10646   */\n      tag_87\n      jump\t// in\n    tag_236:\n        /* \"#utility.yul\":10668:10669   */\n      0x00\n        /* \"#utility.yul\":10682:10890   */\n    tag_237:\n        /* \"#utility.yul\":10696:10703   */\n      dup3\n        /* \"#utility.yul\":10693:10694   */\n      dup2\n        /* \"#utility.yul\":10690:10704   */\n      lt\n        /* \"#utility.yul\":10682:10890   */\n      iszero\n      tag_239\n      jumpi\n        /* \"#utility.yul\":10775:10784   */\n      dup5\n        /* \"#utility.yul\":10770:10773   */\n      dup10\n        /* \"#utility.yul\":10766:10785   */\n      add\n        /* \"#utility.yul\":10760:10786   */\n      mload\n        /* \"#utility.yul\":10752:10758   */\n      dup3\n        /* \"#utility.yul\":10745:10787   */\n      sstore\n        /* \"#utility.yul\":10826:10827   */\n      0x01\n        /* \"#utility.yul\":10818:10824   */\n      dup3\n        /* \"#utility.yul\":10814:10828   */\n      add\n        /* \"#utility.yul\":10804:10828   */\n      swap2\n      pop\n        /* \"#utility.yul\":10873:10875   */\n      0x20\n        /* \"#utility.yul\":10862:10871   */\n      dup6\n        /* \"#utility.yul\":10858:10876   */\n      add\n        /* \"#utility.yul\":10845:10876   */\n      swap5\n      pop\n        /* \"#utility.yul\":10719:10723   */\n      0x20\n        /* \"#utility.yul\":10716:10717   */\n      dup2\n        /* \"#utility.yul\":10712:10724   */\n      add\n        /* \"#utility.yul\":10707:10724   */\n      swap1\n      pop\n        /* \"#utility.yul\":10682:10890   */\n      jump(tag_237)\n    tag_239:\n        /* \"#utility.yul\":10918:10924   */\n      dup7\n        /* \"#utility.yul\":10909:10916   */\n      dup4\n        /* \"#utility.yul\":10906:10925   */\n      lt\n        /* \"#utility.yul\":10903:11082   */\n      iszero\n      tag_240\n      jumpi\n        /* \"#utility.yul\":10976:10985   */\n      dup5\n        /* \"#utility.yul\":10971:10974   */\n      dup10\n        /* \"#utility.yul\":10967:10986   */\n      add\n        /* \"#utility.yul\":10961:10987   */\n      mload\n        /* \"#utility.yul\":11019:11067   */\n      tag_241\n        /* \"#utility.yul\":11061:11065   */\n      0x1f\n        /* \"#utility.yul\":11053:11059   */\n      dup10\n        /* \"#utility.yul\":11049:11066   */\n      and\n        /* \"#utility.yul\":11038:11047   */\n      dup3\n        /* \"#utility.yul\":11019:11067   */\n      tag_100\n      jump\t// in\n    tag_241:\n        /* \"#utility.yul\":11011:11017   */\n      dup4\n        /* \"#utility.yul\":11004:11068   */\n      sstore\n        /* \"#utility.yul\":10926:11082   */\n      pop\n        /* \"#utility.yul\":10903:11082   */\n    tag_240:\n        /* \"#utility.yul\":11128:11129   */\n      0x01\n        /* \"#utility.yul\":11124:11125   */\n      0x02\n        /* \"#utility.yul\":11116:11122   */\n      dup9\n        /* \"#utility.yul\":11112:11126   */\n      mul\n        /* \"#utility.yul\":11108:11130   */\n      add\n        /* \"#utility.yul\":11102:11106   */\n      dup9\n        /* \"#utility.yul\":11095:11131   */\n      sstore\n        /* \"#utility.yul\":10530:11141   */\n      pop\n      pop\n      pop\n        /* \"#utility.yul\":10493:11380   */\n    tag_232:\n      pop\n        /* \"#utility.yul\":10083:11386   */\n      pop\n      pop\n      pop\n        /* \"#utility.yul\":9991:11386   */\n      pop\n      pop\n      jump\t// out\n        /* \"#utility.yul\":11392:11575   */\n    tag_102:\n        /* \"#utility.yul\":11560:11568   */\n      0x48656c6c6f200000000000000000000000000000000000000000000000000000\n        /* \"#utility.yul\":11555:11558   */\n      dup2\n        /* \"#utility.yul\":11548:11569   */\n      mstore\n        /* \"#utility.yul\":11392:11575   */\n      pop\n      jump\t// out\n        /* \"#utility.yul\":11581:11729   */\n    tag_103:\n        /* \"#utility.yul\":11683:11694   */\n      0x00\n        /* \"#utility.yul\":11720:11723   */\n      dup2\n        /* \"#utility.yul\":11705:11723   */\n      swap1\n      pop\n        /* \"#utility.yul\":11581:11729   */\n      swap3\n      swap2\n      pop\n      pop\n      jump\t// out\n        /* \"#utility.yul\":11735:12125   */\n    tag_104:\n        /* \"#utility.yul\":11841:11844   */\n      0x00\n        /* \"#utility.yul\":11869:11908   */\n      tag_245\n        /* \"#utility.yul\":11902:11907   */\n      dup3\n        /* \"#utility.yul\":11869:11908   */\n      tag_77\n      jump\t// in\n    tag_245:\n        /* \"#utility.yul\":11924:12013   */\n      tag_246\n        /* \"#utility.yul\":12006:12012   */\n      dup2\n        /* \"#utility.yul\":12001:12004   */\n      dup6\n        /* \"#utility.yul\":11924:12013   */\n      tag_103\n      jump\t// in\n    tag_246:\n        /* \"#utility.yul\":11917:12013   */\n      swap4\n      pop\n        /* \"#utility.yul\":12022:12087   */\n      tag_247\n        /* \"#utility.yul\":12080:12086   */\n      dup2\n        /* \"#utility.yul\":12075:12078   */\n      dup6\n        /* \"#utility.yul\":12068:12072   */\n      0x20\n        /* \"#utility.yul\":12061:12066   */\n      dup7\n        /* \"#utility.yul\":12057:12073   */\n      add\n        /* \"#utility.yul\":12022:12087   */\n      tag_79\n      jump\t// in\n    tag_247:\n        /* \"#utility.yul\":12112:12118   */\n      dup1\n        /* \"#utility.yul\":12107:12110   */\n      dup5\n        /* \"#utility.yul\":12103:12119   */\n      add\n        /* \"#utility.yul\":12096:12119   */\n      swap2\n      pop\n        /* \"#utility.yul\":11845:12125   */\n      pop\n        /* \"#utility.yul\":11735:12125   */\n      swap3\n      swap2\n      pop\n      pop\n      jump\t// out\n        /* \"#utility.yul\":12131:12670   */\n    tag_59:\n        /* \"#utility.yul\":12353:12356   */\n      0x00\n        /* \"#utility.yul\":12368:12505   */\n      tag_249\n        /* \"#utility.yul\":12501:12504   */\n      dup3\n        /* \"#utility.yul\":12368:12505   */\n      tag_102\n      jump\t// in\n    tag_249:\n        /* \"#utility.yul\":12530:12531   */\n      0x06\n        /* \"#utility.yul\":12525:12528   */\n      dup3\n        /* \"#utility.yul\":12521:12532   */\n      add\n        /* \"#utility.yul\":12514:12532   */\n      swap2\n      pop\n        /* \"#utility.yul\":12549:12644   */\n      tag_250\n        /* \"#utility.yul\":12640:12643   */\n      dup3\n        /* \"#utility.yul\":12631:12637   */\n      dup5\n        /* \"#utility.yul\":12549:12644   */\n      tag_104\n      jump\t// in\n    tag_250:\n        /* \"#utility.yul\":12542:12644   */\n      swap2\n      pop\n        /* \"#utility.yul\":12661:12664   */\n      dup2\n        /* \"#utility.yul\":12654:12664   */\n      swap1\n      pop\n        /* \"#utility.yul\":12131:12670   */\n      swap3\n      swap2\n      pop\n      pop\n      jump\t// out\n\n    auxdata: 0xa2646970667358221220aa06338a2b83289d6e772427bc14d1e9e054727039bba2aa8a83ede0f86ad1f664736f6c63430008170033\n}\n",
				"bytecode": {
					"linkReferences": {},
					"object": "60806040523480156200001157600080fd5b50604051620010e1380380620010e18339818101604052810190620000379190620002d5565b81600081905550806001819055508360029081620000569190620005a7565b5082600360006101000a81548173ffffffffffffffffffffffffffffffffffffffff021916908373ffffffffffffffffffffffffffffffffffffffff160217905550505050506200068e565b6000604051905090565b600080fd5b600080fd5b600080fd5b600080fd5b6000601f19601f8301169050919050565b7f4e487b7100000000000000000000000000000000000000000000000000000000600052604160045260246000fd5b6200010b82620000c0565b810181811067ffffffffffffffff821117156200012d576200012c620000d1565b5b80604052505050565b600062000142620000a2565b905062000150828262000100565b919050565b600067ffffffffffffffff821115620001735762000172620000d1565b5b6200017e82620000c0565b9050602081019050919050565b60005b83811015620001ab5780820151818401526020810190506200018e565b60008484015250505050565b6000620001ce620001c88462000155565b62000136565b905082815260208101848484011115620001ed57620001ec620000bb565b5b620001fa8482856200018b565b509392505050565b600082601f8301126200021a5762000219620000b6565b5b81516200022c848260208601620001b7565b91505092915050565b600073ffffffffffffffffffffffffffffffffffffffff82169050919050565b6000620002628262000235565b9050919050565b620002748162000255565b81146200028057600080fd5b50565b600081519050620002948162000269565b92915050565b6000819050919050565b620002af816200029a565b8114620002bb57600080fd5b50565b600081519050620002cf81620002a4565b92915050565b60008060008060808587031215620002f257620002f1620000ac565b5b600085015167ffffffffffffffff811115620003135762000312620000b1565b5b620003218782880162000202565b9450506020620003348782880162000283565b93505060406200034787828801620002be565b92505060606200035a87828801620002be565b91505092959194509250565b600081519050919050565b7f4e487b7100000000000000000000000000000000000000000000000000000000600052602260045260246000fd5b60006002820490506001821680620003b957607f821691505b602082108103620003cf57620003ce62000371565b5b50919050565b60008190508160005260206000209050919050565b60006020601f8301049050919050565b600082821b905092915050565b600060088302620004397fffffffffffffffffffffffffffffffffffffffffffffffffffffffffffffffff82620003fa565b620004458683620003fa565b95508019841693508086168417925050509392505050565b6000819050919050565b600062000488620004826200047c846200029a565b6200045d565b6200029a565b9050919050565b6000819050919050565b620004a48362000467565b620004bc620004b3826200048f565b84845462000407565b825550505050565b600090565b620004d3620004c4565b620004e081848462000499565b505050565b5b818110156200050857620004fc600082620004c9565b600181019050620004e6565b5050565b601f82111562000557576200052181620003d5565b6200052c84620003ea565b810160208510156200053c578190505b620005546200054b85620003ea565b830182620004e5565b50505b505050565b600082821c905092915050565b60006200057c600019846008026200055c565b1980831691505092915050565b600062000597838362000569565b9150826002028217905092915050565b620005b28262000366565b67ffffffffffffffff811115620005ce57620005cd620000d1565b5b620005da8254620003a0565b620005e78282856200050c565b600060209050601f8311600181146200061f57600084156200060a578287015190505b62000616858262000589565b86555062000686565b601f1984166200062f86620003d5565b60005b82811015620006595784890151825560018201915060208501945060208101905062000632565b8683101562000679578489015162000675601f89168262000569565b8355505b6001600288020188555050505b505050505050565b610a43806200069e6000396000f3fe608060405234801561001057600080fd5b506004361061007d5760003560e01c806389667fe61161005b57806389667fe614610100578063a16ed2881461011e578063b96fe62f1461014e578063c3a9b1c51461017e5761007d565b80630643b16b1461008257806320ea1356146100a05780637a24a180146100d0575b600080fd5b61008a6101ae565b604051610097919061033a565b60405180910390f35b6100ba60048036038101906100b59190610395565b6101b8565b6040516100c7919061033a565b60405180910390f35b6100ea60048036038101906100e59190610508565b6101cb565b6040516100f791906105d0565b60405180910390f35b61010861026f565b604051610115919061033a565b60405180910390f35b61013860048036038101906101339190610650565b610278565b604051610145919061068c565b60405180910390f35b61016860048036038101906101639190610395565b6102e5565b604051610175919061033a565b60405180910390f35b61019860048036038101906101939190610508565b6102f8565b6040516101a591906105d0565b60405180910390f35b6000600154905090565b6000816001819055506001549050919050565b606081600290816101dc91906108b3565b50600280546101ea906106d6565b80601f0160208091040260200160405190810160405280929190818152602001828054610216906106d6565b80156102635780601f1061023857610100808354040283529160200191610263565b820191906000526020600020905b81548152906001019060200180831161024657829003601f168201915b50505050509050919050565b60008054905090565b600081600360006101000a81548173ffffffffffffffffffffffffffffffffffffffff021916908373ffffffffffffffffffffffffffffffffffffffff160217905550600360009054906101000a900473ffffffffffffffffffffffffffffffffffffffff169050919050565b6000816000819055506000549050919050565b60608160405160200161030b91906109e7565b6040516020818303038152906040529050919050565b6000819050919050565b61033481610321565b82525050565b600060208201905061034f600083018461032b565b92915050565b6000604051905090565b600080fd5b600080fd5b61037281610321565b811461037d57600080fd5b50565b60008135905061038f81610369565b92915050565b6000602082840312156103ab576103aa61035f565b5b60006103b984828501610380565b91505092915050565b600080fd5b600080fd5b6000601f19601f8301169050919050565b7f4e487b7100000000000000000000000000000000000000000000000000000000600052604160045260246000fd5b610415826103cc565b810181811067ffffffffffffffff82111715610434576104336103dd565b5b80604052505050565b6000610447610355565b9050610453828261040c565b919050565b600067ffffffffffffffff821115610473576104726103dd565b5b61047c826103cc565b9050602081019050919050565b82818337600083830152505050565b60006104ab6104a684610458565b61043d565b9050828152602081018484840111156104c7576104c66103c7565b5b6104d2848285610489565b509392505050565b600082601f8301126104ef576104ee6103c2565b5b81356104ff848260208601610498565b91505092915050565b60006020828403121561051e5761051d61035f565b5b600082013567ffffffffffffffff81111561053c5761053b610364565b5b610548848285016104da565b91505092915050565b600081519050919050565b600082825260208201905092915050565b60005b8381101561058b578082015181840152602081019050610570565b60008484015250505050565b60006105a282610551565b6105ac818561055c565b93506105bc81856020860161056d565b6105c5816103cc565b840191505092915050565b600060208201905081810360008301526105ea8184610597565b905092915050565b600073ffffffffffffffffffffffffffffffffffffffff82169050919050565b600061061d826105f2565b9050919050565b61062d81610612565b811461063857600080fd5b50565b60008135905061064a81610624565b92915050565b6000602082840312156106665761066561035f565b5b60006106748482850161063b565b91505092915050565b61068681610612565b82525050565b60006020820190506106a1600083018461067d565b92915050565b7f4e487b7100000000000000000000000000000000000000000000000000000000600052602260045260246000fd5b600060028204905060018216806106ee57607f821691505b602082108103610701576107006106a7565b5b50919050565b60008190508160005260206000209050919050565b60006020601f8301049050919050565b600082821b905092915050565b6000600883026107697fffffffffffffffffffffffffffffffffffffffffffffffffffffffffffffffff8261072c565b610773868361072c565b95508019841693508086168417925050509392505050565b6000819050919050565b60006107b06107ab6107a684610321565b61078b565b610321565b9050919050565b6000819050919050565b6107ca83610795565b6107de6107d6826107b7565b848454610739565b825550505050565b600090565b6107f36107e6565b6107fe8184846107c1565b505050565b5b81811015610822576108176000826107eb565b600181019050610804565b5050565b601f8211156108675761083881610707565b6108418461071c565b81016020851015610850578190505b61086461085c8561071c565b830182610803565b50505b505050565b600082821c905092915050565b600061088a6000198460080261086c565b1980831691505092915050565b60006108a38383610879565b9150826002028217905092915050565b6108bc82610551565b67ffffffffffffffff8111156108d5576108d46103dd565b5b6108df82546106d6565b6108ea828285610826565b600060209050601f83116001811461091d576000841561090b578287015190505b6109158582610897565b86555061097d565b601f19841661092b86610707565b60005b828110156109535784890151825560018201915060208501945060208101905061092e565b86831015610970578489015161096c601f891682610879565b8355505b6001600288020188555050505b505050505050565b7f48656c6c6f200000000000000000000000000000000000000000000000000000815250565b600081905092915050565b60006109c182610551565b6109cb81856109ab565b93506109db81856020860161056d565b80840191505092915050565b60006109f282610985565b600682019150610a0282846109b6565b91508190509291505056fea2646970667358221220aa06338a2b83289d6e772427bc14d1e9e054727039bba2aa8a83ede0f86ad1f664736f6c63430008170033",
					"opcodes": "PUSH1 0x80 PUSH1 0x40 MSTORE CALLVALUE DUP1 ISZERO PUSH3 0x11 JUMPI PUSH1 0x0 DUP1 REVERT JUMPDEST POP PUSH1 0x40 MLOAD PUSH3 0x10E1 CODESIZE SUB DUP1 PUSH3 0x10E1 DUP4 CODECOPY DUP2 DUP2 ADD PUSH1 0x40 MSTORE DUP2 ADD SWAP1 PUSH3 0x37 SWAP2 SWAP1 PUSH3 0x2D5 JUMP JUMPDEST DUP2 PUSH1 0x0 DUP2 SWAP1 SSTORE POP DUP1 PUSH1 0x1 DUP2 SWAP1 SSTORE POP DUP4 PUSH1 0x2 SWAP1 DUP2 PUSH3 0x56 SWAP2 SWAP1 PUSH3 0x5A7 JUMP JUMPDEST POP DUP3 PUSH1 0x3 PUSH1 0x0 PUSH2 0x100 EXP DUP2 SLOAD DUP2 PUSH20 0xFFFFFFFFFFFFFFFFFFFFFFFFFFFFFFFFFFFFFFFF MUL NOT AND SWAP1 DUP4 PUSH20 0xFFFFFFFFFFFFFFFFFFFFFFFFFFFFFFFFFFFFFFFF AND MUL OR SWAP1 SSTORE POP POP POP POP POP PUSH3 0x68E JUMP JUMPDEST PUSH1 0x0 PUSH1 0x40 MLOAD SWAP1 POP SWAP1 JUMP JUMPDEST PUSH1 0x0 DUP1 REVERT JUMPDEST PUSH1 0x0 DUP1 REVERT JUMPDEST PUSH1 0x0 DUP1 REVERT JUMPDEST PUSH1 0x0 DUP1 REVERT JUMPDEST PUSH1 0x0 PUSH1 0x1F NOT PUSH1 0x1F DUP4 ADD AND SWAP1 POP SWAP2 SWAP1 POP JUMP JUMPDEST PUSH32 0x4E487B7100000000000000000000000000000000000000000000000000000000 PUSH1 0x0 MSTORE PUSH1 0x41 PUSH1 0x4 MSTORE PUSH1 0x24 PUSH1 0x0 REVERT JUMPDEST PUSH3 0x10B DUP3 PUSH3 0xC0 JUMP JUMPDEST DUP2 ADD DUP2 DUP2 LT PUSH8 0xFFFFFFFFFFFFFFFF DUP3 GT OR ISZERO PUSH3 0x12D JUMPI PUSH3 0x12C PUSH3 0xD1 JUMP JUMPDEST JUMPDEST DUP1 PUSH1 0x40 MSTORE POP POP POP JUMP JUMPDEST PUSH1 0x0 PUSH3 0x142 PUSH3 0xA2 JUMP JUMPDEST SWAP1 POP PUSH3 0x150 DUP3 DUP3 PUSH3 0x100 JUMP JUMPDEST SWAP2 SWAP1 POP JUMP JUMPDEST PUSH1 0x0 PUSH8 0xFFFFFFFFFFFFFFFF DUP3 GT ISZERO PUSH3 0x173 JUMPI PUSH3 0x172 PUSH3 0xD1 JUMP JUMPDEST JUMPDEST PUSH3 0x17E DUP3 PUSH3 0xC0 JUMP JUMPDEST SWAP1 POP PUSH1 0x20 DUP2 ADD SWAP1 POP SWAP2 SWAP1 POP JUMP JUMPDEST PUSH1 0x0 JUMPDEST DUP4 DUP2 LT ISZERO PUSH3 0x1AB JUMPI DUP1 DUP3 ADD MLOAD DUP2 DUP5 ADD MSTORE PUSH1 0x20 DUP2 ADD SWAP1 POP PUSH3 0x18E JUMP JUMPDEST PUSH1 0x0 DUP5 DUP5 ADD MSTORE POP POP POP POP JUMP JUMPDEST PUSH1 0x0 PUSH3 0x1CE PUSH3 0x1C8 DUP5 PUSH3 0x155 JUMP JUMPDEST PUSH3 0x136 JUMP JUMPDEST SWAP1 POP DUP3 DUP2 MSTORE PUSH1 0x20 DUP2 ADD DUP5 DUP5 DUP5 ADD GT ISZERO PUSH3 0x1ED JUMPI PUSH3 0x1EC PUSH3 0xBB JUMP JUMPDEST JUMPDEST PUSH3 0x1FA DUP5 DUP3 DUP6 PUSH3 0x18B JUMP JUMPDEST POP SWAP4 SWAP3 POP POP POP JUMP JUMPDEST PUSH1 0x0 DUP3 PUSH1 0x1F DUP4 ADD SLT PUSH3 0x21A JUMPI PUSH3 0x219 PUSH3 0xB6 JUMP JUMPDEST JUMPDEST DUP2 MLOAD PUSH3 0x22C DUP5 DUP3 PUSH1 0x20 DUP7 ADD PUSH3 0x1B7 JUMP JUMPDEST SWAP2 POP POP SWAP3 SWAP2 POP POP JUMP JUMPDEST PUSH1 0x0 PUSH20 0xFFFFFFFFFFFFFFFFFFFFFFFFFFFFFFFFFFFFFFFF DUP3 AND SWAP1 POP SWAP2 SWAP1 POP JUMP JUMPDEST PUSH1 0x0 PUSH3 0x262 DUP3 PUSH3 0x235 JUMP JUMPDEST SWAP1 POP SWAP2 SWAP1 POP JUMP JUMPDEST PUSH3 0x274 DUP2 PUSH3 0x255 JUMP JUMPDEST DUP2 EQ PUSH3 0x280 JUMPI PUSH1 0x0 DUP1 REVERT JUMPDEST POP JUMP JUMPDEST PUSH1 0x0 DUP2 MLOAD SWAP1 POP PUSH3 0x294 DUP2 PUSH3 0x269 JUMP JUMPDEST SWAP3 SWAP2 POP POP JUMP JUMPDEST PUSH1 0x0 DUP2 SWAP1 POP SWAP2 SWAP1 POP JUMP JUMPDEST PUSH3 0x2AF DUP2 PUSH3 0x29A JUMP JUMPDEST DUP2 EQ PUSH3 0x2BB JUMPI PUSH1 0x0 DUP1 REVERT JUMPDEST POP JUMP JUMPDEST PUSH1 0x0 DUP2 MLOAD SWAP1 POP PUSH3 0x2CF DUP2 PUSH3 0x2A4 JUMP JUMPDEST SWAP3 SWAP2 POP POP JUMP JUMPDEST PUSH1 0x0 DUP1 PUSH1 0x0 DUP1 PUSH1 0x80 DUP6 DUP8 SUB SLT ISZERO PUSH3 0x2F2 JUMPI PUSH3 0x2F1 PUSH3 0xAC JUMP JUMPDEST JUMPDEST PUSH1 0x0 DUP6 ADD MLOAD PUSH8 0xFFFFFFFFFFFFFFFF DUP2 GT ISZERO PUSH3 0x313 JUMPI PUSH3 0x312 PUSH3 0xB1 JUMP JUMPDEST JUMPDEST PUSH3 0x321 DUP8 DUP3 DUP9 ADD PUSH3 0x202 JUMP JUMPDEST SWAP5 POP POP PUSH1 0x20 PUSH3 0x334 DUP8 DUP3 DUP9 ADD PUSH3 0x283 JUMP JUMPDEST SWAP4 POP POP PUSH1 0x40 PUSH3 0x347 DUP8 DUP3 DUP9 ADD PUSH3 0x2BE JUMP JUMPDEST SWAP3 POP POP PUSH1 0x60 PUSH3 0x35A DUP8 DUP3 DUP9 ADD PUSH3 0x2BE JUMP JUMPDEST SWAP2 POP POP SWAP3 SWAP6 SWAP2 SWAP5 POP SWAP3 POP JUMP JUMPDEST PUSH1 0x0 DUP2 MLOAD SWAP1 POP SWAP2 SWAP1 POP JUMP JUMPDEST PUSH32 0x4E487B7100000000000000000000000000000000000000000000000000000000 PUSH1 0x0 MSTORE PUSH1 0x22 PUSH1 0x4 MSTORE PUSH1 0x24 PUSH1 0x0 REVERT JUMPDEST PUSH1 0x0 PUSH1 0x2 DUP3 DIV SWAP1 POP PUSH1 0x1 DUP3 AND DUP1 PUSH3 0x3B9 JUMPI PUSH1 0x7F DUP3 AND SWAP2 POP JUMPDEST PUSH1 0x20 DUP3 LT DUP2 SUB PUSH3 0x3CF JUMPI PUSH3 0x3CE PUSH3 0x371 JUMP JUMPDEST JUMPDEST POP SWAP2 SWAP1 POP JUMP JUMPDEST PUSH1 0x0 DUP2 SWAP1 POP DUP2 PUSH1 0x0 MSTORE PUSH1 0x20 PUSH1 0x0 KECCAK256 SWAP1 POP SWAP2 SWAP1 POP JUMP JUMPDEST PUSH1 0x0 PUSH1 0x20 PUSH1 0x1F DUP4 ADD DIV SWAP1 POP SWAP2 SWAP1 POP JUMP JUMPDEST PUSH1 0x0 DUP3 DUP3 SHL SWAP1 POP SWAP3 SWAP2 POP POP JUMP JUMPDEST PUSH1 0x0 PUSH1 0x8 DUP4 MUL PUSH3 0x439 PUSH32 0xFFFFFFFFFFFFFFFFFFFFFFFFFFFFFFFFFFFFFFFFFFFFFFFFFFFFFFFFFFFFFFFF DUP3 PUSH3 0x3FA JUMP JUMPDEST PUSH3 0x445 DUP7 DUP4 PUSH3 0x3FA JUMP JUMPDEST SWAP6 POP DUP1 NOT DUP5 AND SWAP4 POP DUP1 DUP7 AND DUP5 OR SWAP3 POP POP POP SWAP4 SWAP3 POP POP POP JUMP JUMPDEST PUSH1 0x0 DUP2 SWAP1 POP SWAP2 SWAP1 POP JUMP JUMPDEST PUSH1 0x0 PUSH3 0x488 PUSH3 0x482 PUSH3 0x47C DUP5 PUSH3 0x29A JUMP JUMPDEST PUSH3 0x45D JUMP JUMPDEST PUSH3 0x29A JUMP JUMPDEST SWAP1 POP SWAP2 SWAP1 POP JUMP JUMPDEST PUSH1 0x0 DUP2 SWAP1 POP SWAP2 SWAP1 POP JUMP JUMPDEST PUSH3 0x4A4 DUP4 PUSH3 0x467 JUMP JUMPDEST PUSH3 0x4BC PUSH3 0x4B3 DUP3 PUSH3 0x48F JUMP JUMPDEST DUP5 DUP5 SLOAD PUSH3 0x407 JUMP JUMPDEST DUP3 SSTORE POP POP POP POP JUMP JUMPDEST PUSH1 0x0 SWAP1 JUMP JUMPDEST PUSH3 0x4D3 PUSH3 0x4C4 JUMP JUMPDEST PUSH3 0x4E0 DUP2 DUP5 DUP5 PUSH3 0x499 JUMP JUMPDEST POP POP POP JUMP JUMPDEST JUMPDEST DUP2 DUP2 LT ISZERO PUSH3 0x508 JUMPI PUSH3 0x4FC PUSH1 0x0 DUP3 PUSH3 0x4C9 JUMP JUMPDEST PUSH1 0x1 DUP2 ADD SWAP1 POP PUSH3 0x4E6 JUMP JUMPDEST POP POP JUMP JUMPDEST PUSH1 0x1F DUP3 GT ISZERO PUSH3 0x557 JUMPI PUSH3 0x521 DUP2 PUSH3 0x3D5 JUMP JUMPDEST PUSH3 0x52C DUP5 PUSH3 0x3EA JUMP JUMPDEST DUP2 ADD PUSH1 0x20 DUP6 LT ISZERO PUSH3 0x53C JUMPI DUP2 SWAP1 POP JUMPDEST PUSH3 0x554 PUSH3 0x54B DUP6 PUSH3 0x3EA JUMP JUMPDEST DUP4 ADD DUP3 PUSH3 0x4E5 JUMP JUMPDEST POP POP JUMPDEST POP POP POP JUMP JUMPDEST PUSH1 0x0 DUP3 DUP3 SHR SWAP1 POP SWAP3 SWAP2 POP POP JUMP JUMPDEST PUSH1 0x0 PUSH3 0x57C PUSH1 0x0 NOT DUP5 PUSH1 0x8 MUL PUSH3 0x55C JUMP JUMPDEST NOT DUP1 DUP4 AND SWAP2 POP POP SWAP3 SWAP2 POP POP JUMP JUMPDEST PUSH1 0x0 PUSH3 0x597 DUP4 DUP4 PUSH3 0x569 JUMP JUMPDEST SWAP2 POP DUP3 PUSH1 0x2 MUL DUP3 OR SWAP1 POP SWAP3 SWAP2 POP POP JUMP JUMPDEST PUSH3 0x5B2 DUP3 PUSH3 0x366 JUMP JUMPDEST PUSH8 0xFFFFFFFFFFFFFFFF DUP2 GT ISZERO PUSH3 0x5CE JUMPI PUSH3 0x5CD PUSH3 0xD1 JUMP JUMPDEST JUMPDEST PUSH3 0x5DA DUP3 SLOAD PUSH3 0x3A0 JUMP JUMPDEST PUSH3 0x5E7 DUP3 DUP3 DUP6 PUSH3 0x50C JUMP JUMPDEST PUSH1 0x0 PUSH1 0x20 SWAP1 POP PUSH1 0x1F DUP4 GT PUSH1 0x1 DUP2 EQ PUSH3 0x61F JUMPI PUSH1 0x0 DUP5 ISZERO PUSH3 0x60A JUMPI DUP3 DUP8 ADD MLOAD SWAP1 POP JUMPDEST PUSH3 0x616 DUP6 DUP3 PUSH3 0x589 JUMP JUMPDEST DUP7 SSTORE POP PUSH3 0x686 JUMP JUMPDEST PUSH1 0x1F NOT DUP5 AND PUSH3 0x62F DUP7 PUSH3 0x3D5 JUMP JUMPDEST PUSH1 0x0 JUMPDEST DUP3 DUP2 LT ISZERO PUSH3 0x659 JUMPI DUP5 DUP10 ADD MLOAD DUP3 SSTORE PUSH1 0x1 DUP3 ADD SWAP2 POP PUSH1 0x20 DUP6 ADD SWAP5 POP PUSH1 0x20 DUP2 ADD SWAP1 POP PUSH3 0x632 JUMP JUMPDEST DUP7 DUP4 LT ISZERO PUSH3 0x679 JUMPI DUP5 DUP10 ADD MLOAD PUSH3 0x675 PUSH1 0x1F DUP10 AND DUP3 PUSH3 0x569 JUMP JUMPDEST DUP4 SSTORE POP JUMPDEST PUSH1 0x1 PUSH1 0x2 DUP9 MUL ADD DUP9 SSTORE POP POP POP JUMPDEST POP POP POP POP POP POP JUMP JUMPDEST PUSH2 0xA43 DUP1 PUSH3 0x69E PUSH1 0x0 CODECOPY PUSH1 0x0 RETURN INVALID PUSH1 0x80 PUSH1 0x40 MSTORE CALLVALUE DUP1 ISZERO PUSH2 0x10 JUMPI PUSH1 0x0 DUP1 REVERT JUMPDEST POP PUSH1 0x4 CALLDATASIZE LT PUSH2 0x7D JUMPI PUSH1 0x0 CALLDATALOAD PUSH1 0xE0 SHR DUP1 PUSH4 0x89667FE6 GT PUSH2 0x5B JUMPI DUP1 PUSH4 0x89667FE6 EQ PUSH2 0x100 JUMPI DUP1 PUSH4 0xA16ED288 EQ PUSH2 0x11E JUMPI DUP1 PUSH4 0xB96FE62F EQ PUSH2 0x14E JUMPI DUP1 PUSH4 0xC3A9B1C5 EQ PUSH2 0x17E JUMPI PUSH2 0x7D JUMP JUMPDEST DUP1 PUSH4 0x643B16B EQ PUSH2 0x82 JUMPI DUP1 PUSH4 0x20EA1356 EQ PUSH2 0xA0 JUMPI DUP1 PUSH4 0x7A24A180 EQ PUSH2 0xD0 JUMPI JUMPDEST PUSH1 0x0 DUP1 REVERT JUMPDEST PUSH2 0x8A PUSH2 0x1AE JUMP JUMPDEST PUSH1 0x40 MLOAD PUSH2 0x97 SWAP2 SWAP1 PUSH2 0x33A JUMP JUMPDEST PUSH1 0x40 MLOAD DUP1 SWAP2 SUB SWAP1 RETURN JUMPDEST PUSH2 0xBA PUSH1 0x4 DUP1 CALLDATASIZE SUB DUP2 ADD SWAP1 PUSH2 0xB5 SWAP2 SWAP1 PUSH2 0x395 JUMP JUMPDEST PUSH2 0x1B8 JUMP JUMPDEST PUSH1 0x40 MLOAD PUSH2 0xC7 SWAP2 SWAP1 PUSH2 0x33A JUMP JUMPDEST PUSH1 0x40 MLOAD DUP1 SWAP2 SUB SWAP1 RETURN JUMPDEST PUSH2 0xEA PUSH1 0x4 DUP1 CALLDATASIZE SUB DUP2 ADD SWAP1 PUSH2 0xE5 SWAP2 SWAP1 PUSH2 0x508 JUMP JUMPDEST PUSH2 0x1CB JUMP JUMPDEST PUSH1 0x40 MLOAD PUSH2 0xF7 SWAP2 SWAP1 PUSH2 0x5D0 JUMP JUMPDEST PUSH1 0x40 MLOAD DUP1 SWAP2 SUB SWAP1 RETURN JUMPDEST PUSH2 0x108 PUSH2 0x26F JUMP JUMPDEST PUSH1 0x40 MLOAD PUSH2 0x115 SWAP2 SWAP1 PUSH2 0x33A JUMP JUMPDEST PUSH1 0x40 MLOAD DUP1 SWAP2 SUB SWAP1 RETURN JUMPDEST PUSH2 0x138 PUSH1 0x4 DUP1 CALLDATASIZE SUB DUP2 ADD SWAP1 PUSH2 0x133 SWAP2 SWAP1 PUSH2 0x650 JUMP JUMPDEST PUSH2 0x278 JUMP JUMPDEST PUSH1 0x40 MLOAD PUSH2 0x145 SWAP2 SWAP1 PUSH2 0x68C JUMP JUMPDEST PUSH1 0x40 MLOAD DUP1 SWAP2 SUB SWAP1 RETURN JUMPDEST PUSH2 0x168 PUSH1 0x4 DUP1 CALLDATASIZE SUB DUP2 ADD SWAP1 PUSH2 0x163 SWAP2 SWAP1 PUSH2 0x395 JUMP JUMPDEST PUSH2 0x2E5 JUMP JUMPDEST PUSH1 0x40 MLOAD PUSH2 0x175 SWAP2 SWAP1 PUSH2 0x33A JUMP JUMPDEST PUSH1 0x40 MLOAD DUP1 SWAP2 SUB SWAP1 RETURN JUMPDEST PUSH2 0x198 PUSH1 0x4 DUP1 CALLDATASIZE SUB DUP2 ADD SWAP1 PUSH2 0x193 SWAP2 SWAP1 PUSH2 0x508 JUMP JUMPDEST PUSH2 0x2F8 JUMP JUMPDEST PUSH1 0x40 MLOAD PUSH2 0x1A5 SWAP2 SWAP1 PUSH2 0x5D0 JUMP JUMPDEST PUSH1 0x40 MLOAD DUP1 SWAP2 SUB SWAP1 RETURN JUMPDEST PUSH1 0x0 PUSH1 0x1 SLOAD SWAP1 POP SWAP1 JUMP JUMPDEST PUSH1 0x0 DUP2 PUSH1 0x1 DUP2 SWAP1 SSTORE POP PUSH1 0x1 SLOAD SWAP1 POP SWAP2 SWAP1 POP JUMP JUMPDEST PUSH1 0x60 DUP2 PUSH1 0x2 SWAP1 DUP2 PUSH2 0x1DC SWAP2 SWAP1 PUSH2 0x8B3 JUMP JUMPDEST POP PUSH1 0x2 DUP1 SLOAD PUSH2 0x1EA SWAP1 PUSH2 0x6D6 JUMP JUMPDEST DUP1 PUSH1 0x1F ADD PUSH1 0x20 DUP1 SWAP2 DIV MUL PUSH1 0x20 ADD PUSH1 0x40 MLOAD SWAP1 DUP2 ADD PUSH1 0x40 MSTORE DUP1 SWAP3 SWAP2 SWAP1 DUP2 DUP2 MSTORE PUSH1 0x20 ADD DUP3 DUP1 SLOAD PUSH2 0x216 SWAP1 PUSH2 0x6D6 JUMP JUMPDEST DUP1 ISZERO PUSH2 0x263 JUMPI DUP1 PUSH1 0x1F LT PUSH2 0x238 JUMPI PUSH2 0x100 DUP1 DUP4 SLOAD DIV MUL DUP4 MSTORE SWAP2 PUSH1 0x20 ADD SWAP2 PUSH2 0x263 JUMP JUMPDEST DUP3 ADD SWAP2 SWAP1 PUSH1 0x0 MSTORE PUSH1 0x20 PUSH1 0x0 KECCAK256 SWAP1 JUMPDEST DUP2 SLOAD DUP2 MSTORE SWAP1 PUSH1 0x1 ADD SWAP1 PUSH1 0x20 ADD DUP1 DUP4 GT PUSH2 0x246 JUMPI DUP3 SWAP1 SUB PUSH1 0x1F AND DUP3 ADD SWAP2 JUMPDEST POP POP POP POP POP SWAP1 POP SWAP2 SWAP1 POP JUMP JUMPDEST PUSH1 0x0 DUP1 SLOAD SWAP1 POP SWAP1 JUMP JUMPDEST PUSH1 0x0 DUP2 PUSH1 0x3 PUSH1 0x0 PUSH2 0x100 EXP DUP2 SLOAD DUP2 PUSH20 0xFFFFFFFFFFFFFFFFFFFFFFFFFFFFFFFFFFFFFFFF MUL NOT AND SWAP1 DUP4 PUSH20 0xFFFFFFFFFFFFFFFFFFFFFFFFFFFFFFFFFFFFFFFF AND MUL OR SWAP1 SSTORE POP PUSH1 0x3 PUSH1 0x0 SWAP1 SLOAD SWAP1 PUSH2 0x100 EXP SWAP1 DIV PUSH20 0xFFFFFFFFFFFFFFFFFFFFFFFFFFFFFFFFFFFFFFFF AND SWAP1 POP SWAP2 SWAP1 POP JUMP JUMPDEST PUSH1 0x0 DUP2 PUSH1 0x0 DUP2 SWAP1 SSTORE POP PUSH1 0x0 SLOAD SWAP1 POP SWAP2 SWAP1 POP JUMP JUMPDEST PUSH1 0x60 DUP2 PUSH1 0x40 MLOAD PUSH1 0x20 ADD PUSH2 0x30B SWAP2 SWAP1 PUSH2 0x9E7 JUMP JUMPDEST PUSH1 0x40 MLOAD PUSH1 0x20 DUP2 DUP4 SUB SUB DUP2 MSTORE SWAP1 PUSH1 0x40 MSTORE SWAP1 POP SWAP2 SWAP1 POP JUMP JUMPDEST PUSH1 0x0 DUP2 SWAP1 POP SWAP2 SWAP1 POP JUMP JUMPDEST PUSH2 0x334 DUP2 PUSH2 0x321 JUMP JUMPDEST DUP3 MSTORE POP POP JUMP JUMPDEST PUSH1 0x0 PUSH1 0x20 DUP3 ADD SWAP1 POP PUSH2 0x34F PUSH1 0x0 DUP4 ADD DUP5 PUSH2 0x32B JUMP JUMPDEST SWAP3 SWAP2 POP POP JUMP JUMPDEST PUSH1 0x0 PUSH1 0x40 MLOAD SWAP1 POP SWAP1 JUMP JUMPDEST PUSH1 0x0 DUP1 REVERT JUMPDEST PUSH1 0x0 DUP1 REVERT JUMPDEST PUSH2 0x372 DUP2 PUSH2 0x321 JUMP JUMPDEST DUP2 EQ PUSH2 0x37D JUMPI PUSH1 0x0 DUP1 REVERT JUMPDEST POP JUMP JUMPDEST PUSH1 0x0 DUP2 CALLDATALOAD SWAP1 POP PUSH2 0x38F DUP2 PUSH2 0x369 JUMP JUMPDEST SWAP3 SWAP2 POP POP JUMP JUMPDEST PUSH1 0x0 PUSH1 0x20 DUP3 DUP5 SUB SLT ISZERO PUSH2 0x3AB JUMPI PUSH2 0x3AA PUSH2 0x35F JUMP JUMPDEST JUMPDEST PUSH1 0x0 PUSH2 0x3B9 DUP5 DUP3 DUP6 ADD PUSH2 0x380 JUMP JUMPDEST SWAP2 POP POP SWAP3 SWAP2 POP POP JUMP JUMPDEST PUSH1 0x0 DUP1 REVERT JUMPDEST PUSH1 0x0 DUP1 REVERT JUMPDEST PUSH1 0x0 PUSH1 0x1F NOT PUSH1 0x1F DUP4 ADD AND SWAP1 POP SWAP2 SWAP1 POP JUMP JUMPDEST PUSH32 0x4E487B7100000000000000000000000000000000000000000000000000000000 PUSH1 0x0 MSTORE PUSH1 0x41 PUSH1 0x4 MSTORE PUSH1 0x24 PUSH1 0x0 REVERT JUMPDEST PUSH2 0x415 DUP3 PUSH2 0x3CC JUMP JUMPDEST DUP2 ADD DUP2 DUP2 LT PUSH8 0xFFFFFFFFFFFFFFFF DUP3 GT OR ISZERO PUSH2 0x434 JUMPI PUSH2 0x433 PUSH2 0x3DD JUMP JUMPDEST JUMPDEST DUP1 PUSH1 0x40 MSTORE POP POP POP JUMP JUMPDEST PUSH1 0x0 PUSH2 0x447 PUSH2 0x355 JUMP JUMPDEST SWAP1 POP PUSH2 0x453 DUP3 DUP3 PUSH2 0x40C JUMP JUMPDEST SWAP2 SWAP1 POP JUMP JUMPDEST PUSH1 0x0 PUSH8 0xFFFFFFFFFFFFFFFF DUP3 GT ISZERO PUSH2 0x473 JUMPI PUSH2 0x472 PUSH2 0x3DD JUMP JUMPDEST JUMPDEST PUSH2 0x47C DUP3 PUSH2 0x3CC JUMP JUMPDEST SWAP1 POP PUSH1 0x20 DUP2 ADD SWAP1 POP SWAP2 SWAP1 POP JUMP JUMPDEST DUP3 DUP2 DUP4 CALLDATACOPY PUSH1 0x0 DUP4 DUP4 ADD MSTORE POP POP POP JUMP JUMPDEST PUSH1 0x0 PUSH2 0x4AB PUSH2 0x4A6 DUP5 PUSH2 0x458 JUMP JUMPDEST PUSH2 0x43D JUMP JUMPDEST SWAP1 POP DUP3 DUP2 MSTORE PUSH1 0x20 DUP2 ADD DUP5 DUP5 DUP5 ADD GT ISZERO PUSH2 0x4C7 JUMPI PUSH2 0x4C6 PUSH2 0x3C7 JUMP JUMPDEST JUMPDEST PUSH2 0x4D2 DUP5 DUP3 DUP6 PUSH2 0x489 JUMP JUMPDEST POP SWAP4 SWAP3 POP POP POP JUMP JUMPDEST PUSH1 0x0 DUP3 PUSH1 0x1F DUP4 ADD SLT PUSH2 0x4EF JUMPI PUSH2 0x4EE PUSH2 0x3C2 JUMP JUMPDEST JUMPDEST DUP2 CALLDATALOAD PUSH2 0x4FF DUP5 DUP3 PUSH1 0x20 DUP7 ADD PUSH2 0x498 JUMP JUMPDEST SWAP2 POP POP SWAP3 SWAP2 POP POP JUMP JUMPDEST PUSH1 0x0 PUSH1 0x20 DUP3 DUP5 SUB SLT ISZERO PUSH2 0x51E JUMPI PUSH2 0x51D PUSH2 0x35F JUMP JUMPDEST JUMPDEST PUSH1 0x0 DUP3 ADD CALLDATALOAD PUSH8 0xFFFFFFFFFFFFFFFF DUP2 GT ISZERO PUSH2 0x53C JUMPI PUSH2 0x53B PUSH2 0x364 JUMP JUMPDEST JUMPDEST PUSH2 0x548 DUP5 DUP3 DUP6 ADD PUSH2 0x4DA JUMP JUMPDEST SWAP2 POP POP SWAP3 SWAP2 POP POP JUMP JUMPDEST PUSH1 0x0 DUP2 MLOAD SWAP1 POP SWAP2 SWAP1 POP JUMP JUMPDEST PUSH1 0x0 DUP3 DUP3 MSTORE PUSH1 0x20 DUP3 ADD SWAP1 POP SWAP3 SWAP2 POP POP JUMP JUMPDEST PUSH1 0x0 JUMPDEST DUP4 DUP2 LT ISZERO PUSH2 0x58B JUMPI DUP1 DUP3 ADD MLOAD DUP2 DUP5 ADD MSTORE PUSH1 0x20 DUP2 ADD SWAP1 POP PUSH2 0x570 JUMP JUMPDEST PUSH1 0x0 DUP5 DUP5 ADD MSTORE POP POP POP POP JUMP JUMPDEST PUSH1 0x0 PUSH2 0x5A2 DUP3 PUSH2 0x551 JUMP JUMPDEST PUSH2 0x5AC DUP2 DUP6 PUSH2 0x55C JUMP JUMPDEST SWAP4 POP PUSH2 0x5BC DUP2 DUP6 PUSH1 0x20 DUP7 ADD PUSH2 0x56D JUMP JUMPDEST PUSH2 0x5C5 DUP2 PUSH2 0x3CC JUMP JUMPDEST DUP5 ADD SWAP2 POP POP SWAP3 SWAP2 POP POP JUMP JUMPDEST PUSH1 0x0 PUSH1 0x20 DUP3 ADD SWAP1 POP DUP2 DUP2 SUB PUSH1 0x0 DUP4 ADD MSTORE PUSH2 0x5EA DUP2 DUP5 PUSH2 0x597 JUMP JUMPDEST SWAP1 POP SWAP3 SWAP2 POP POP JUMP JUMPDEST PUSH1 0x0 PUSH20 0xFFFFFFFFFFFFFFFFFFFFFFFFFFFFFFFFFFFFFFFF DUP3 AND SWAP1 POP SWAP2 SWAP1 POP JUMP JUMPDEST PUSH1 0x0 PUSH2 0x61D DUP3 PUSH2 0x5F2 JUMP JUMPDEST SWAP1 POP SWAP2 SWAP1 POP JUMP JUMPDEST PUSH2 0x62D DUP2 PUSH2 0x612 JUMP JUMPDEST DUP2 EQ PUSH2 0x638 JUMPI PUSH1 0x0 DUP1 REVERT JUMPDEST POP JUMP JUMPDEST PUSH1 0x0 DUP2 CALLDATALOAD SWAP1 POP PUSH2 0x64A DUP2 PUSH2 0x624 JUMP JUMPDEST SWAP3 SWAP2 POP POP JUMP JUMPDEST PUSH1 0x0 PUSH1 0x20 DUP3 DUP5 SUB SLT ISZERO PUSH2 0x666 JUMPI PUSH2 0x665 PUSH2 0x35F JUMP JUMPDEST JUMPDEST PUSH1 0x0 PUSH2 0x674 DUP5 DUP3 DUP6 ADD PUSH2 0x63B JUMP JUMPDEST SWAP2 POP POP SWAP3 SWAP2 POP POP JUMP JUMPDEST PUSH2 0x686 DUP2 PUSH2 0x612 JUMP JUMPDEST DUP3 MSTORE POP POP JUMP JUMPDEST PUSH1 0x0 PUSH1 0x20 DUP3 ADD SWAP1 POP PUSH2 0x6A1 PUSH1 0x0 DUP4 ADD DUP5 PUSH2 0x67D JUMP JUMPDEST SWAP3 SWAP2 POP POP JUMP JUMPDEST PUSH32 0x4E487B7100000000000000000000000000000000000000000000000000000000 PUSH1 0x0 MSTORE PUSH1 0x22 PUSH1 0x4 MSTORE PUSH1 0x24 PUSH1 0x0 REVERT JUMPDEST PUSH1 0x0 PUSH1 0x2 DUP3 DIV SWAP1 POP PUSH1 0x1 DUP3 AND DUP1 PUSH2 0x6EE JUMPI PUSH1 0x7F DUP3 AND SWAP2 POP JUMPDEST PUSH1 0x20 DUP3 LT DUP2 SUB PUSH2 0x701 JUMPI PUSH2 0x700 PUSH2 0x6A7 JUMP JUMPDEST JUMPDEST POP SWAP2 SWAP1 POP JUMP JUMPDEST PUSH1 0x0 DUP2 SWAP1 POP DUP2 PUSH1 0x0 MSTORE PUSH1 0x20 PUSH1 0x0 KECCAK256 SWAP1 POP SWAP2 SWAP1 POP JUMP JUMPDEST PUSH1 0x0 PUSH1 0x20 PUSH1 0x1F DUP4 ADD DIV SWAP1 POP SWAP2 SWAP1 POP JUMP JUMPDEST PUSH1 0x0 DUP3 DUP3 SHL SWAP1 POP SWAP3 SWAP2 POP POP JUMP JUMPDEST PUSH1 0x0 PUSH1 0x8 DUP4 MUL PUSH2 0x769 PUSH32 0xFFFFFFFFFFFFFFFFFFFFFFFFFFFFFFFFFFFFFFFFFFFFFFFFFFFFFFFFFFFFFFFF DUP3 PUSH2 0x72C JUMP JUMPDEST PUSH2 0x773 DUP7 DUP4 PUSH2 0x72C JUMP JUMPDEST SWAP6 POP DUP1 NOT DUP5 AND SWAP4 POP DUP1 DUP7 AND DUP5 OR SWAP3 POP POP POP SWAP4 SWAP3 POP POP POP JUMP JUMPDEST PUSH1 0x0 DUP2 SWAP1 POP SWAP2 SWAP1 POP JUMP JUMPDEST PUSH1 0x0 PUSH2 0x7B0 PUSH2 0x7AB PUSH2 0x7A6 DUP5 PUSH2 0x321 JUMP JUMPDEST PUSH2 0x78B JUMP JUMPDEST PUSH2 0x321 JUMP JUMPDEST SWAP1 POP SWAP2 SWAP1 POP JUMP JUMPDEST PUSH1 0x0 DUP2 SWAP1 POP SWAP2 SWAP1 POP JUMP JUMPDEST PUSH2 0x7CA DUP4 PUSH2 0x795 JUMP JUMPDEST PUSH2 0x7DE PUSH2 0x7D6 DUP3 PUSH2 0x7B7 JUMP JUMPDEST DUP5 DUP5 SLOAD PUSH2 0x739 JUMP JUMPDEST DUP3 SSTORE POP POP POP POP JUMP JUMPDEST PUSH1 0x0 SWAP1 JUMP JUMPDEST PUSH2 0x7F3 PUSH2 0x7E6 JUMP JUMPDEST PUSH2 0x7FE DUP2 DUP5 DUP5 PUSH2 0x7C1 JUMP JUMPDEST POP POP POP JUMP JUMPDEST JUMPDEST DUP2 DUP2 LT ISZERO PUSH2 0x822 JUMPI PUSH2 0x817 PUSH1 0x0 DUP3 PUSH2 0x7EB JUMP JUMPDEST PUSH1 0x1 DUP2 ADD SWAP1 POP PUSH2 0x804 JUMP JUMPDEST POP POP JUMP JUMPDEST PUSH1 0x1F DUP3 GT ISZERO PUSH2 0x867 JUMPI PUSH2 0x838 DUP2 PUSH2 0x707 JUMP JUMPDEST PUSH2 0x841 DUP5 PUSH2 0x71C JUMP JUMPDEST DUP2 ADD PUSH1 0x20 DUP6 LT ISZERO PUSH2 0x850 JUMPI DUP2 SWAP1 POP JUMPDEST PUSH2 0x864 PUSH2 0x85C DUP6 PUSH2 0x71C JUMP JUMPDEST DUP4 ADD DUP3 PUSH2 0x803 JUMP JUMPDEST POP POP JUMPDEST POP POP POP JUMP JUMPDEST PUSH1 0x0 DUP3 DUP3 SHR SWAP1 POP SWAP3 SWAP2 POP POP JUMP JUMPDEST PUSH1 0x0 PUSH2 0x88A PUSH1 0x0 NOT DUP5 PUSH1 0x8 MUL PUSH2 0x86C JUMP JUMPDEST NOT DUP1 DUP4 AND SWAP2 POP POP SWAP3 SWAP2 POP POP JUMP JUMPDEST PUSH1 0x0 PUSH2 0x8A3 DUP4 DUP4 PUSH2 0x879 JUMP JUMPDEST SWAP2 POP DUP3 PUSH1 0x2 MUL DUP3 OR SWAP1 POP SWAP3 SWAP2 POP POP JUMP JUMPDEST PUSH2 0x8BC DUP3 PUSH2 0x551 JUMP JUMPDEST PUSH8 0xFFFFFFFFFFFFFFFF DUP2 GT ISZERO PUSH2 0x8D5 JUMPI PUSH2 0x8D4 PUSH2 0x3DD JUMP JUMPDEST JUMPDEST PUSH2 0x8DF DUP3 SLOAD PUSH2 0x6D6 JUMP JUMPDEST PUSH2 0x8EA DUP3 DUP3 DUP6 PUSH2 0x826 JUMP JUMPDEST PUSH1 0x0 PUSH1 0x20 SWAP1 POP PUSH1 0x1F DUP4 GT PUSH1 0x1 DUP2 EQ PUSH2 0x91D JUMPI PUSH1 0x0 DUP5 ISZERO PUSH2 0x90B JUMPI DUP3 DUP8 ADD MLOAD SWAP1 POP JUMPDEST PUSH2 0x915 DUP6 DUP3 PUSH2 0x897 JUMP JUMPDEST DUP7 SSTORE POP PUSH2 0x97D JUMP JUMPDEST PUSH1 0x1F NOT DUP5 AND PUSH2 0x92B DUP7 PUSH2 0x707 JUMP JUMPDEST PUSH1 0x0 JUMPDEST DUP3 DUP2 LT ISZERO PUSH2 0x953 JUMPI DUP5 DUP10 ADD MLOAD DUP3 SSTORE PUSH1 0x1 DUP3 ADD SWAP2 POP PUSH1 0x20 DUP6 ADD SWAP5 POP PUSH1 0x20 DUP2 ADD SWAP1 POP PUSH2 0x92E JUMP JUMPDEST DUP7 DUP4 LT ISZERO PUSH2 0x970 JUMPI DUP5 DUP10 ADD MLOAD PUSH2 0x96C PUSH1 0x1F DUP10 AND DUP3 PUSH2 0x879 JUMP JUMPDEST DUP4 SSTORE POP JUMPDEST PUSH1 0x1 PUSH1 0x2 DUP9 MUL ADD DUP9 SSTORE POP POP POP JUMPDEST POP POP POP POP POP POP JUMP JUMPDEST PUSH32 0x48656C6C6F200000000000000000000000000000000000000000000000000000 DUP2 MSTORE POP JUMP JUMPDEST PUSH1 0x0 DUP2 SWAP1 POP SWAP3 SWAP2 POP POP JUMP JUMPDEST PUSH1 0x0 PUSH2 0x9C1 DUP3 PUSH2 0x551 JUMP JUMPDEST PUSH2 0x9CB DUP2 DUP6 PUSH2 0x9AB JUMP JUMPDEST SWAP4 POP PUSH2 0x9DB DUP2 DUP6 PUSH1 0x20 DUP7 ADD PUSH2 0x56D JUMP JUMPDEST DUP1 DUP5 ADD SWAP2 POP POP SWAP3 SWAP2 POP POP JUMP JUMPDEST PUSH1 0x0 PUSH2 0x9F2 DUP3 PUSH2 0x985 JUMP JUMPDEST PUSH1 0x6 DUP3 ADD SWAP2 POP PUSH2 0xA02 DUP3 DUP5 PUSH2 0x9B6 JUMP JUMPDEST SWAP2 POP DUP2 SWAP1 POP SWAP3 SWAP2 POP POP JUMP INVALID LOG2 PUSH5 0x6970667358 0x22 SLT KECCAK256 0xAA MOD CALLER DUP11 0x2B DUP4 0x28 SWAP14 PUSH15 0x772427BC14D1E9E054727039BBA2AA DUP11 DUP4 0xED 0xE0 0xF8 PUSH11 0xD1F664736F6C6343000817 STOP CALLER "
				},
				"gasEstimates": {
					"creation": {
						"codeDepositCost": "525400",
						"executionCost": "infinite",
						"totalCost": "infinite"
					},
					"external": {
						"getNoDays()": "2437",
						"getNoWeeks()": "2438",
						"sayHello(string)": "infinite",
						"updateCreatoAddress(address)": "infinite",
						"updateCreatorName(string)": "infinite",
						"updateNoDays(uint256)": "infinite",
						"updateNoWeeks(uint256)": "infinite"
					}
				},
				"methodIdentifiers": {
					"getNoDays()": "89667fe6",
					"getNoWeeks()": "0643b16b",
					"sayHello(string)": "c3a9b1c5",
					"updateCreatoAddress(address)": "a16ed288",
					"updateCreatorName(string)": "7a24a180",
					"updateNoDays(uint256)": "b96fe62f",
					"updateNoWeeks(uint256)": "20ea1356"
				}
			},
			"storageLayout": {
				"storage": [
					{
						"astId": 3,
						"contract": "pamilern_test.sol:AnotherTrest",
						"label": "no_days",
						"offset": 0,
						"slot": "0",
						"type": "t_uint256"
					},
					{
						"astId": 5,
						"contract": "pamilern_test.sol:AnotherTrest",
						"label": "no_weeks",
						"offset": 0,
						"slot": "1",
						"type": "t_uint256"
					},
					{
						"astId": 7,
						"contract": "pamilern_test.sol:AnotherTrest",
						"label": "creator_name",
						"offset": 0,
						"slot": "2",
						"type": "t_string_storage"
					},
					{
						"astId": 9,
						"contract": "pamilern_test.sol:AnotherTrest",
						"label": "creator_address",
						"offset": 0,
						"slot": "3",
						"type": "t_address"
					}
				],
				"types": {
					"t_address": {
						"encoding": "inplace",
						"label": "address",
						"numberOfBytes": "20"
					},
					"t_string_storage": {
						"encoding": "bytes",
						"label": "string",
						"numberOfBytes": "32"
					},
					"t_uint256": {
						"encoding": "inplace",
						"label": "uint256",
						"numberOfBytes": "32"
					}
				}
			},
			"userdoc": {
				"kind": "user",
				"methods": {},
				"version": 1
			}
		}
	}
}